{
  "_format": "hh-sol-artifact-1",
  "contractName": "WavePortal",
  "sourceName": "contracts/newMarriages2.sol",
  "abi": [
    {
      "inputs": [],
      "stateMutability": "payable",
      "type": "constructor"
    },
    {
      "anonymous": false,
      "inputs": [
        {
          "indexed": true,
          "internalType": "address",
          "name": "from",
          "type": "address"
        },
        {
          "indexed": false,
          "internalType": "uint256",
          "name": "timestamp",
          "type": "uint256"
        },
        {
          "indexed": false,
          "internalType": "uint256",
          "name": "amount",
          "type": "uint256"
        }
      ],
      "name": "AddStake",
      "type": "event"
    },
    {
      "anonymous": false,
      "inputs": [
        {
          "indexed": true,
          "internalType": "address",
          "name": "owner",
          "type": "address"
        },
        {
          "indexed": true,
          "internalType": "address",
          "name": "approved",
          "type": "address"
        },
        {
          "indexed": true,
          "internalType": "uint256",
          "name": "tokenId",
          "type": "uint256"
        }
      ],
      "name": "Approval",
      "type": "event"
    },
    {
      "anonymous": false,
      "inputs": [
        {
          "indexed": true,
          "internalType": "address",
          "name": "owner",
          "type": "address"
        },
        {
          "indexed": true,
          "internalType": "address",
          "name": "operator",
          "type": "address"
        },
        {
          "indexed": false,
          "internalType": "bool",
          "name": "approved",
          "type": "bool"
        }
      ],
      "name": "ApprovalForAll",
      "type": "event"
    },
    {
      "anonymous": false,
      "inputs": [
        {
          "indexed": false,
          "internalType": "address",
          "name": "sender",
          "type": "address"
        },
        {
          "indexed": false,
          "internalType": "address",
          "name": "proposed",
          "type": "address"
        },
        {
          "indexed": false,
          "internalType": "uint256",
          "name": "tokenId",
          "type": "uint256"
        }
      ],
      "name": "CertificateNFTMinted",
      "type": "event"
    },
    {
      "anonymous": false,
      "inputs": [
        {
          "indexed": false,
          "internalType": "uint256",
          "name": "id",
          "type": "uint256"
        },
        {
          "indexed": false,
          "internalType": "address",
          "name": "waver",
          "type": "address"
        },
        {
          "indexed": false,
          "internalType": "address",
          "name": "proposed",
          "type": "address"
        },
        {
          "indexed": true,
          "internalType": "address",
          "name": "from",
          "type": "address"
        },
        {
          "indexed": false,
          "internalType": "string",
          "name": "message",
          "type": "string"
        },
        {
          "indexed": false,
          "internalType": "uint256",
          "name": "timestamp",
          "type": "uint256"
        },
        {
          "indexed": false,
          "internalType": "uint8",
          "name": "vid",
          "type": "uint8"
        }
      ],
      "name": "NewWave",
      "type": "event"
    },
    {
      "anonymous": false,
      "inputs": [
        {
          "indexed": true,
          "internalType": "address",
          "name": "from",
          "type": "address"
        },
        {
          "indexed": true,
          "internalType": "address",
          "name": "to",
          "type": "address"
        },
        {
          "indexed": true,
          "internalType": "uint256",
          "name": "tokenId",
          "type": "uint256"
        }
      ],
      "name": "Transfer",
      "type": "event"
    },
    {
      "inputs": [],
      "name": "addstake",
      "outputs": [],
      "stateMutability": "payable",
      "type": "function"
    },
    {
      "inputs": [
        {
          "internalType": "string",
          "name": "_message",
          "type": "string"
        },
        {
          "internalType": "uint256",
          "name": "_agreed",
          "type": "uint256"
        }
      ],
      "name": "approvals",
      "outputs": [],
      "stateMutability": "nonpayable",
      "type": "function"
    },
    {
      "inputs": [
        {
          "internalType": "address",
          "name": "to",
          "type": "address"
        },
        {
          "internalType": "uint256",
          "name": "tokenId",
          "type": "uint256"
        }
      ],
      "name": "approve",
      "outputs": [],
      "stateMutability": "nonpayable",
      "type": "function"
    },
    {
      "inputs": [
        {
          "internalType": "address",
          "name": "owner",
          "type": "address"
        }
      ],
      "name": "balanceOf",
      "outputs": [
        {
          "internalType": "uint256",
          "name": "",
          "type": "uint256"
        }
      ],
      "stateMutability": "view",
      "type": "function"
    },
    {
      "inputs": [],
      "name": "cancel",
      "outputs": [],
      "stateMutability": "nonpayable",
      "type": "function"
    },
    {
      "inputs": [],
      "name": "checkIfUserHasBeenProposed",
      "outputs": [
        {
          "components": [
            {
              "internalType": "uint256",
              "name": "id",
              "type": "uint256"
            },
            {
              "internalType": "address",
              "name": "waver",
              "type": "address"
            },
            {
              "internalType": "address",
              "name": "proposed",
              "type": "address"
            },
            {
              "internalType": "uint8",
              "name": "ProposalStatus",
              "type": "uint8"
            },
            {
              "internalType": "uint8",
              "name": "DivorceStatus",
              "type": "uint8"
            },
            {
              "internalType": "uint256",
              "name": "stake",
              "type": "uint256"
            },
            {
              "internalType": "uint256",
              "name": "gift",
              "type": "uint256"
            },
            {
              "internalType": "uint256",
              "name": "FamilyBudget",
              "type": "uint256"
            }
          ],
          "internalType": "struct WavePortal.Wave",
          "name": "",
          "type": "tuple"
        }
      ],
      "stateMutability": "view",
      "type": "function"
    },
    {
      "inputs": [],
      "name": "checkIfUserHasProposed",
      "outputs": [
        {
          "components": [
            {
              "internalType": "uint256",
              "name": "id",
              "type": "uint256"
            },
            {
              "internalType": "address",
              "name": "waver",
              "type": "address"
            },
            {
              "internalType": "address",
              "name": "proposed",
              "type": "address"
            },
            {
              "internalType": "uint8",
              "name": "ProposalStatus",
              "type": "uint8"
            },
            {
              "internalType": "uint8",
              "name": "DivorceStatus",
              "type": "uint8"
            },
            {
              "internalType": "uint256",
              "name": "stake",
              "type": "uint256"
            },
            {
              "internalType": "uint256",
              "name": "gift",
              "type": "uint256"
            },
            {
              "internalType": "uint256",
              "name": "FamilyBudget",
              "type": "uint256"
            }
          ],
          "internalType": "struct WavePortal.Wave",
          "name": "",
          "type": "tuple"
        }
      ],
      "stateMutability": "view",
      "type": "function"
    },
    {
      "inputs": [
        {
          "internalType": "string",
          "name": "_message",
          "type": "string"
        }
      ],
      "name": "divorceproposal",
      "outputs": [],
      "stateMutability": "nonpayable",
      "type": "function"
    },
    {
      "inputs": [
        {
          "internalType": "uint8",
          "name": "_divorceresponse",
          "type": "uint8"
        },
        {
          "internalType": "string",
          "name": "_message",
          "type": "string"
        }
      ],
      "name": "divorceresponse",
      "outputs": [],
      "stateMutability": "nonpayable",
      "type": "function"
    },
    {
      "inputs": [],
      "name": "execute",
      "outputs": [],
      "stateMutability": "payable",
      "type": "function"
    },
    {
      "inputs": [
        {
          "internalType": "uint256",
          "name": "tokenId",
          "type": "uint256"
        }
      ],
      "name": "getApproved",
      "outputs": [
        {
          "internalType": "address",
          "name": "",
          "type": "address"
        }
      ],
      "stateMutability": "view",
      "type": "function"
    },
    {
      "inputs": [],
      "name": "getBalance",
      "outputs": [
        {
          "internalType": "uint256",
          "name": "",
          "type": "uint256"
        },
        {
          "internalType": "uint256",
          "name": "",
          "type": "uint256"
        }
      ],
      "stateMutability": "view",
      "type": "function"
    },
    {
      "inputs": [
        {
          "internalType": "address",
          "name": "owner",
          "type": "address"
        },
        {
          "internalType": "address",
          "name": "operator",
          "type": "address"
        }
      ],
      "name": "isApprovedForAll",
      "outputs": [
        {
          "internalType": "bool",
          "name": "",
          "type": "bool"
        }
      ],
      "stateMutability": "view",
      "type": "function"
    },
    {
      "inputs": [],
      "name": "name",
      "outputs": [
        {
          "internalType": "string",
          "name": "",
          "type": "string"
        }
      ],
      "stateMutability": "view",
      "type": "function"
    },
    {
      "inputs": [
        {
          "internalType": "address",
          "name": "",
          "type": "address"
        },
        {
          "internalType": "address",
          "name": "",
          "type": "address"
        }
      ],
      "name": "nftHolders",
      "outputs": [
        {
          "internalType": "uint256",
          "name": "",
          "type": "uint256"
        }
      ],
      "stateMutability": "view",
      "type": "function"
    },
    {
      "inputs": [
        {
          "internalType": "uint256",
          "name": "tokenId",
          "type": "uint256"
        }
      ],
      "name": "ownerOf",
      "outputs": [
        {
          "internalType": "address",
          "name": "",
          "type": "address"
        }
      ],
      "stateMutability": "view",
      "type": "function"
    },
    {
      "inputs": [
        {
          "internalType": "address",
          "name": "from",
          "type": "address"
        },
        {
          "internalType": "address",
          "name": "to",
          "type": "address"
        },
        {
          "internalType": "uint256",
          "name": "tokenId",
          "type": "uint256"
        }
      ],
      "name": "safeTransferFrom",
      "outputs": [],
      "stateMutability": "nonpayable",
      "type": "function"
    },
    {
      "inputs": [
        {
          "internalType": "address",
          "name": "from",
          "type": "address"
        },
        {
          "internalType": "address",
          "name": "to",
          "type": "address"
        },
        {
          "internalType": "uint256",
          "name": "tokenId",
          "type": "uint256"
        },
        {
          "internalType": "bytes",
          "name": "_data",
          "type": "bytes"
        }
      ],
      "name": "safeTransferFrom",
      "outputs": [],
      "stateMutability": "nonpayable",
      "type": "function"
    },
    {
      "inputs": [
        {
          "internalType": "address",
          "name": "operator",
          "type": "address"
        },
        {
          "internalType": "bool",
          "name": "approved",
          "type": "bool"
        }
      ],
      "name": "setApprovalForAll",
      "outputs": [],
      "stateMutability": "nonpayable",
      "type": "function"
    },
    {
      "inputs": [
        {
          "internalType": "bytes4",
          "name": "interfaceId",
          "type": "bytes4"
        }
      ],
      "name": "supportsInterface",
      "outputs": [
        {
          "internalType": "bool",
          "name": "",
          "type": "bool"
        }
      ],
      "stateMutability": "view",
      "type": "function"
    },
    {
      "inputs": [],
      "name": "symbol",
      "outputs": [
        {
          "internalType": "string",
          "name": "",
          "type": "string"
        }
      ],
      "stateMutability": "view",
      "type": "function"
    },
    {
      "inputs": [],
      "name": "timewithdraw",
      "outputs": [],
      "stateMutability": "nonpayable",
      "type": "function"
    },
    {
      "inputs": [
        {
          "internalType": "uint256",
          "name": "_tokenId",
          "type": "uint256"
        }
      ],
      "name": "tokenURI",
      "outputs": [
        {
          "internalType": "string",
          "name": "",
          "type": "string"
        }
      ],
      "stateMutability": "view",
      "type": "function"
    },
    {
      "inputs": [
        {
          "internalType": "address",
          "name": "from",
          "type": "address"
        },
        {
          "internalType": "address",
          "name": "to",
          "type": "address"
        },
        {
          "internalType": "uint256",
          "name": "tokenId",
          "type": "uint256"
        }
      ],
      "name": "transferFrom",
      "outputs": [],
      "stateMutability": "nonpayable",
      "type": "function"
    },
    {
      "inputs": [
        {
          "internalType": "address",
          "name": "_proposed",
          "type": "address"
        },
        {
          "internalType": "uint256",
          "name": "_stake",
          "type": "uint256"
        },
        {
          "internalType": "uint256",
          "name": "_gift",
          "type": "uint256"
        },
        {
          "internalType": "string",
          "name": "_message",
          "type": "string"
        }
      ],
      "name": "wave",
      "outputs": [],
      "stateMutability": "nonpayable",
      "type": "function"
    },
    {
      "inputs": [],
      "name": "withdrawcomission",
      "outputs": [],
      "stateMutability": "nonpayable",
      "type": "function"
    },
    {
      "stateMutability": "payable",
      "type": "receive"
    }
  ],
  "bytecode": "0x60806040526040518061096001604052806109258152602001620064d86109259139600990805190602001906200003892919062000270565b5060405180610120016040528060f6815260200162006e4d60f69139600a90805190602001906200006b92919062000270565b5060405180610120016040528060fb815260200162006f4360fb9139600b90805190602001906200009e92919062000270565b506040518061018001604052806101488152602001620063906101489139600c9080519060200190620000d392919062000270565b5060405180608001604052806050815260200162006dfd60509139600d90805190602001906200010592919062000270565b506040518060400160405280601181526020017f3c2f746578743e3c2f673e3c2f7376673e000000000000000000000000000000815250600e90805190602001906200015392919062000270565b50633b9aca006010556040518060400160405280600a81526020017f4d617272794d654e4654000000000000000000000000000000000000000000008152506040518060400160405280600381526020017f4d4d4500000000000000000000000000000000000000000000000000000000008152508160009080519060200190620001e092919062000270565b508060019080519060200190620001f992919062000270565b5050506200021360066200025a60201b620028671760201c565b33601160006101000a81548173ffffffffffffffffffffffffffffffffffffffff021916908373ffffffffffffffffffffffffffffffffffffffff16021790555062000385565b6001816000016000828254019250508190555050565b8280546200027e9062000320565b90600052602060002090601f016020900481019282620002a25760008555620002ee565b82601f10620002bd57805160ff1916838001178555620002ee565b82800160010185558215620002ee579182015b82811115620002ed578251825591602001919060010190620002d0565b5b509050620002fd919062000301565b5090565b5b808211156200031c57600081600090555060010162000302565b5090565b600060028204905060018216806200033957607f821691505b6020821081141562000350576200034f62000356565b5b50919050565b7f4e487b7100000000000000000000000000000000000000000000000000000000600052602260045260246000fd5b615ffb80620003956000396000f3fe6080604052600436106101855760003560e01c8063614cae62116100d1578063b77a88c91161008a578063e44089f811610064578063e44089f814610581578063e9385f7b146105be578063e985e9c5146105e7578063ea8a1af014610624576101e9565b8063b77a88c9146104f0578063b88d4fde1461051b578063c87b56dd14610544576101e9565b8063614cae62146104015780636352211e1461041857806370a082311461045557806393b45dad1461049257806395d89b411461049c578063a22cb465146104c7576101e9565b806323b872dd1161013e578063477de22b11610118578063477de22b1461037a57806348678390146103a357806352f7991c146103cc57806361461954146103f7576101e9565b806323b872dd146102ff57806342842e0e1461032857806342d99b1314610351576101e9565b806301ffc9a7146101ee57806306fdde031461022b578063081812fc14610256578063095ea7b31461029357806312065fe0146102bc5780631c5a217b146102e8576101e9565b366101e9576000341161019757600080fd5b3373ffffffffffffffffffffffffffffffffffffffff167f454558f821e516381f5735afdf706c1069e066bc2f6c62ac498eb191dc57b42842346040516101df9291906153a0565b60405180910390a2005b600080fd5b3480156101fa57600080fd5b50610215600480360381019061021091906145f4565b61063b565b6040516102229190614f20565b60405180910390f35b34801561023757600080fd5b5061024061071d565b60405161024d9190614f3b565b60405180910390f35b34801561026257600080fd5b5061027d600480360381019061027891906146db565b6107af565b60405161028a9190614e82565b60405180910390f35b34801561029f57600080fd5b506102ba60048036038101906102b5919061453d565b610834565b005b3480156102c857600080fd5b506102d161094c565b6040516102df9291906153a0565b60405180910390f35b3480156102f457600080fd5b506102fd6109ba565b005b34801561030b57600080fd5b5061032660048036038101906103219190614437565b610b49565b005b34801561033457600080fd5b5061034f600480360381019061034a9190614437565b610ba9565b005b34801561035d57600080fd5b5061037860048036038101906103739190614646565b610bc9565b005b34801561038657600080fd5b506103a1600480360381019061039c9190614579565b610db1565b005b3480156103af57600080fd5b506103ca60048036038101906103c59190614687565b61119e565b005b3480156103d857600080fd5b506103e161135e565b6040516103ee91906150fd565b60405180910390f35b6103ff6114f9565b005b34801561040d57600080fd5b50610416611840565b005b34801561042457600080fd5b5061043f600480360381019061043a91906146db565b61192a565b60405161044c9190614e82565b60405180910390f35b34801561046157600080fd5b5061047c600480360381019061047791906143d2565b6119dc565b6040516104899190615119565b60405180910390f35b61049a611a94565b005b3480156104a857600080fd5b506104b1611c7a565b6040516104be9190614f3b565b60405180910390f35b3480156104d357600080fd5b506104ee60048036038101906104e99190614501565b611d0c565b005b3480156104fc57600080fd5b50610505611d22565b60405161051291906150fd565b60405180910390f35b34801561052757600080fd5b50610542600480360381019061053d9190614486565b611ebd565b005b34801561055057600080fd5b5061056b600480360381019061056691906146db565b611f1f565b6040516105789190614f3b565b60405180910390f35b34801561058d57600080fd5b506105a860048036038101906105a391906143fb565b612104565b6040516105b59190615119565b60405180910390f35b3480156105ca57600080fd5b506105e560048036038101906105e09190614704565b612129565b005b3480156105f357600080fd5b5061060e600480360381019061060991906143fb565b61265d565b60405161061b9190614f20565b60405180910390f35b34801561063057600080fd5b506106396126f1565b005b60007f80ac58cd000000000000000000000000000000000000000000000000000000007bffffffffffffffffffffffffffffffffffffffffffffffffffffffff1916827bffffffffffffffffffffffffffffffffffffffffffffffffffffffff1916148061070657507f5b5e139f000000000000000000000000000000000000000000000000000000007bffffffffffffffffffffffffffffffffffffffffffffffffffffffff1916827bffffffffffffffffffffffffffffffffffffffffffffffffffffffff1916145b8061071657506107158261287d565b5b9050919050565b60606000805461072c906157ce565b80601f0160208091040260200160405190810160405280929190818152602001828054610758906157ce565b80156107a55780601f1061077a576101008083540402835291602001916107a5565b820191906000526020600020905b81548152906001019060200180831161078857829003601f168201915b5050505050905090565b60006107ba826128e7565b6107f9576040517f08c379a00000000000000000000000000000000000000000000000000000000081526004016107f09061507d565b60405180910390fd5b6004600083815260200190815260200160002060009054906101000a900473ffffffffffffffffffffffffffffffffffffffff169050919050565b600061083f8261192a565b90508073ffffffffffffffffffffffffffffffffffffffff168373ffffffffffffffffffffffffffffffffffffffff1614156108b0576040517f08c379a00000000000000000000000000000000000000000000000000000000081526004016108a7906150bd565b60405180910390fd5b8073ffffffffffffffffffffffffffffffffffffffff166108cf612953565b73ffffffffffffffffffffffffffffffffffffffff1614806108fe57506108fd816108f8612953565b61265d565b5b61093d576040517f08c379a000000000000000000000000000000000000000000000000000000000815260040161093490614ffd565b60405180910390fd5b610947838361295b565b505050565b6000804760166000601160009054906101000a900473ffffffffffffffffffffffffffffffffffffffff1673ffffffffffffffffffffffffffffffffffffffff1673ffffffffffffffffffffffffffffffffffffffff16815260200190815260200160002054915091509091565b60006109c4612a14565b905060006014600083815260200190815260200160002090506000601560003373ffffffffffffffffffffffffffffffffffffffff1673ffffffffffffffffffffffffffffffffffffffff16815260200190815260200160002054118015610a7957506276a700601560003373ffffffffffffffffffffffffffffffffffffffff1673ffffffffffffffffffffffffffffffffffffffff16815260200190815260200160002054610a7591906154b3565b4210155b8015610a89575060008160050154115b610a9257600080fd5b60008160050154905060008260050181905550610aaf3382612b39565b610b018260010160009054906101000a900473ffffffffffffffffffffffffffffffffffffffff168360020160009054906101000a900473ffffffffffffffffffffffffffffffffffffffff16612bb4565b601560003373ffffffffffffffffffffffffffffffffffffffff1673ffffffffffffffffffffffffffffffffffffffff16815260200190815260200160002060009055505050565b610b5a610b54612953565b82612c42565b610b99576040517f08c379a0000000000000000000000000000000000000000000000000000000008152600401610b90906150dd565b60405180910390fd5b610ba4838383612d20565b505050565b610bc483838360405180602001604052806000815250611ebd565b505050565b6000610bd3612a14565b9050600060146000838152602001908152602001600020905060048160020160149054906101000a900460ff1660ff16148015610c24575060008160020160159054906101000a900460ff1660ff16145b610c2d57600080fd5b3373ffffffffffffffffffffffffffffffffffffffff168160010160009054906101000a900473ffffffffffffffffffffffffffffffffffffffff1673ffffffffffffffffffffffffffffffffffffffff161415610ca85760018160020160156101000a81548160ff021916908360ff160217905550610cc7565b60028160020160156101000a81548160ff021916908360ff1602179055505b42601560003373ffffffffffffffffffffffffffffffffffffffff1673ffffffffffffffffffffffffffffffffffffffff168152602001908152602001600020819055503373ffffffffffffffffffffffffffffffffffffffff167f4ab7b1a9735aa28f2d38d47e9c125ea09812c83140e1878788159dd599c19788838360010160009054906101000a900473ffffffffffffffffffffffffffffffffffffffff168460020160009054906101000a900473ffffffffffffffffffffffffffffffffffffffff1687426005604051610da496959493929190615204565b60405180910390a2505050565b6001600f6000828254610dc491906154b3565b925050819055508373ffffffffffffffffffffffffffffffffffffffff163373ffffffffffffffffffffffffffffffffffffffff1614158015610e4657506000601260003373ffffffffffffffffffffffffffffffffffffffff1673ffffffffffffffffffffffffffffffffffffffff16815260200190815260200160002054145b8015610e9157506000601360003373ffffffffffffffffffffffffffffffffffffffff1673ffffffffffffffffffffffffffffffffffffffff16815260200190815260200160002054145b8015610edc57506000601360008673ffffffffffffffffffffffffffffffffffffffff1673ffffffffffffffffffffffffffffffffffffffff16815260200190815260200160002054145b8015610f2757506000601260008673ffffffffffffffffffffffffffffffffffffffff1673ffffffffffffffffffffffffffffffffffffffff16815260200190815260200160002054145b610f3057600080fd5b600f54601260003373ffffffffffffffffffffffffffffffffffffffff1673ffffffffffffffffffffffffffffffffffffffff16815260200190815260200160002081905550600f54601360008673ffffffffffffffffffffffffffffffffffffffff1673ffffffffffffffffffffffffffffffffffffffff16815260200190815260200160002081905550604051806101000160405280600f5481526020013373ffffffffffffffffffffffffffffffffffffffff1681526020018573ffffffffffffffffffffffffffffffffffffffff168152602001600160ff168152602001600060ff168152602001848152602001838152602001600081525060146000600f5481526020019081526020016000206000820151816000015560208201518160010160006101000a81548173ffffffffffffffffffffffffffffffffffffffff021916908373ffffffffffffffffffffffffffffffffffffffff16021790555060408201518160020160006101000a81548173ffffffffffffffffffffffffffffffffffffffff021916908373ffffffffffffffffffffffffffffffffffffffff16021790555060608201518160020160146101000a81548160ff021916908360ff16021790555060808201518160020160156101000a81548160ff021916908360ff16021790555060a0820151816003015560c0820151816004015560e082015181600501559050503373ffffffffffffffffffffffffffffffffffffffff167f4ab7b1a9735aa28f2d38d47e9c125ea09812c83140e1878788159dd599c19788600f5433878542600160405161119096959493929190615134565b60405180910390a250505050565b6000601360003373ffffffffffffffffffffffffffffffffffffffff1673ffffffffffffffffffffffffffffffffffffffff168152602001908152602001600020549050600060146000838152602001908152602001600020905060018160020160149054906101000a900460ff1660ff161461121a57600080fd5b60018314156112465760038160020160146101000a81548160ff021916908360ff1602179055506112b7565b60008160020160146101000a81548160ff021916908360ff1602179055506112b68160010160009054906101000a900473ffffffffffffffffffffffffffffffffffffffff168260020160009054906101000a900473ffffffffffffffffffffffffffffffffffffffff16612bb4565b5b3373ffffffffffffffffffffffffffffffffffffffff167f4ab7b1a9735aa28f2d38d47e9c125ea09812c83140e1878788159dd599c19788838360010160009054906101000a900473ffffffffffffffffffffffffffffffffffffffff168460020160009054906101000a900473ffffffffffffffffffffffffffffffffffffffff16884260026040516113509695949392919061519c565b60405180910390a250505050565b6113666140dd565b6000601360003373ffffffffffffffffffffffffffffffffffffffff1673ffffffffffffffffffffffffffffffffffffffff16815260200190815260200160002054905060008111156114e8576014600082815260200190815260200160002060405180610100016040529081600082015481526020016001820160009054906101000a900473ffffffffffffffffffffffffffffffffffffffff1673ffffffffffffffffffffffffffffffffffffffff1673ffffffffffffffffffffffffffffffffffffffff1681526020016002820160009054906101000a900473ffffffffffffffffffffffffffffffffffffffff1673ffffffffffffffffffffffffffffffffffffffff1673ffffffffffffffffffffffffffffffffffffffff1681526020016002820160149054906101000a900460ff1660ff1660ff1681526020016002820160159054906101000a900460ff1660ff1660ff16815260200160038201548152602001600482015481526020016005820154815250509150506114f6565b6114f06140dd565b80925050505b90565b6000601260003373ffffffffffffffffffffffffffffffffffffffff1673ffffffffffffffffffffffffffffffffffffffff168152602001908152602001600020549050600060146000838152602001908152602001600020905060038160020160149054906101000a900460ff1660ff161461157557600080fd5b6010548160030154826004015461158c91906154b3565b61159691906155a2565b3410156115a257600080fd5b601054816003015482600401546115b991906154b3565b6115c391906155a2565b346115ce9190615637565b60166000601160009054906101000a900473ffffffffffffffffffffffffffffffffffffffff1673ffffffffffffffffffffffffffffffffffffffff1673ffffffffffffffffffffffffffffffffffffffff168152602001908152602001600020600082825461163e91906154b3565b925050819055506010548160030154826004015461165c91906154b3565b61166691906155a2565b816005018190555060008160040154111561171857601054816004015461168d91906155a2565b81600501541161169c57600080fd5b60105481600401546116ae91906155a2565b8160050160008282546116c19190615637565b92505081905550600060105482600401546116dc91906155a2565b9050600082600401819055506117168260020160009054906101000a900473ffffffffffffffffffffffffffffffffffffffff1682612b39565b505b61177f8160010160009054906101000a900473ffffffffffffffffffffffffffffffffffffffff168260020160009054906101000a900473ffffffffffffffffffffffffffffffffffffffff1660105484600301546117779190615540565b600186612f7c565b60048160020160146101000a81548160ff021916908360ff1602179055503373ffffffffffffffffffffffffffffffffffffffff167f4ab7b1a9735aa28f2d38d47e9c125ea09812c83140e1878788159dd599c19788838360010160009054906101000a900473ffffffffffffffffffffffffffffffffffffffff168460020160009054906101000a900473ffffffffffffffffffffffffffffffffffffffff1642600460405161183495949392919061533a565b60405180910390a25050565b3373ffffffffffffffffffffffffffffffffffffffff16601160009054906101000a900473ffffffffffffffffffffffffffffffffffffffff1673ffffffffffffffffffffffffffffffffffffffff161461189a57600080fd5b6118e333601660003373ffffffffffffffffffffffffffffffffffffffff1673ffffffffffffffffffffffffffffffffffffffff16815260200190815260200160002054612b39565b6000601660003373ffffffffffffffffffffffffffffffffffffffff1673ffffffffffffffffffffffffffffffffffffffff16815260200190815260200160002081905550565b6000806002600084815260200190815260200160002060009054906101000a900473ffffffffffffffffffffffffffffffffffffffff169050600073ffffffffffffffffffffffffffffffffffffffff168173ffffffffffffffffffffffffffffffffffffffff1614156119d3576040517f08c379a00000000000000000000000000000000000000000000000000000000081526004016119ca9061503d565b60405180910390fd5b80915050919050565b60008073ffffffffffffffffffffffffffffffffffffffff168273ffffffffffffffffffffffffffffffffffffffff161415611a4d576040517f08c379a0000000000000000000000000000000000000000000000000000000008152600401611a449061501d565b60405180910390fd5b600360008373ffffffffffffffffffffffffffffffffffffffff1673ffffffffffffffffffffffffffffffffffffffff168152602001908152602001600020549050919050565b6000611a9e612a14565b905060006014600083815260200190815260200160002090508060050154348260050154611acc91906154b3565b118015611aed575060048160020160149054906101000a900460ff1660ff16145b611af657600080fd5b6064600134611b0591906155a2565b611b0f9190615540565b60166000601160009054906101000a900473ffffffffffffffffffffffffffffffffffffffff1673ffffffffffffffffffffffffffffffffffffffff1673ffffffffffffffffffffffffffffffffffffffff1681526020019081526020016000206000828254611b7f91906154b3565b925050819055506064606334611b9591906155a2565b611b9f9190615540565b816005016000828254611bb291906154b3565b92505081905550611c268160010160009054906101000a900473ffffffffffffffffffffffffffffffffffffffff168260020160009054906101000a900473ffffffffffffffffffffffffffffffffffffffff16670de0b6b3a76400008460050154611c1e9190615540565b600186613187565b3373ffffffffffffffffffffffffffffffffffffffff167f454558f821e516381f5735afdf706c1069e066bc2f6c62ac498eb191dc57b4284234604051611c6e9291906153a0565b60405180910390a25050565b606060018054611c89906157ce565b80601f0160208091040260200160405190810160405280929190818152602001828054611cb5906157ce565b8015611d025780601f10611cd757610100808354040283529160200191611d02565b820191906000526020600020905b815481529060010190602001808311611ce557829003601f168201915b5050505050905090565b611d1e611d17612953565b83836132da565b5050565b611d2a6140dd565b6000601260003373ffffffffffffffffffffffffffffffffffffffff1673ffffffffffffffffffffffffffffffffffffffff1681526020019081526020016000205490506000811115611eac576014600082815260200190815260200160002060405180610100016040529081600082015481526020016001820160009054906101000a900473ffffffffffffffffffffffffffffffffffffffff1673ffffffffffffffffffffffffffffffffffffffff1673ffffffffffffffffffffffffffffffffffffffff1681526020016002820160009054906101000a900473ffffffffffffffffffffffffffffffffffffffff1673ffffffffffffffffffffffffffffffffffffffff1673ffffffffffffffffffffffffffffffffffffffff1681526020016002820160149054906101000a900460ff1660ff1660ff1681526020016002820160159054906101000a900460ff1660ff1660ff1681526020016003820154815260200160048201548152602001600582015481525050915050611eba565b611eb46140dd565b80925050505b90565b611ece611ec8612953565b83612c42565b611f0d576040517f08c379a0000000000000000000000000000000000000000000000000000000008152600401611f04906150dd565b60405180910390fd5b611f1984848484613447565b50505050565b6060600060076000848152602001908152602001600020604051806060016040529081600082018054611f51906157ce565b80601f0160208091040260200160405190810160405280929190818152602001828054611f7d906157ce565b8015611fca5780601f10611f9f57610100808354040283529160200191611fca565b820191906000526020600020905b815481529060010190602001808311611fad57829003601f168201915b505050505081526020016001820160009054906101000a900460ff161515151581526020016002820154815250509050600061200982604001516134a3565b90506060826020015115612054576040518060400160405280600781526020017f4d61727269656400000000000000000000000000000000000000000000000000815250905061208d565b6040518060400160405280600881526020017f4469766f7263656400000000000000000000000000000000000000000000000081525090505b60006120d161209b876134a3565b6120a88660000151613678565b85856040516020016120bd9493929190614dc0565b604051602081830303815290604052613678565b90506000816040516020016120e69190614e4b565b60405160208183030381529060405290508095505050505050919050565b6008602052816000526040600020602052806000526040600020600091509150505481565b6000612133612a14565b90506000601260003373ffffffffffffffffffffffffffffffffffffffff1673ffffffffffffffffffffffffffffffffffffffff1681526020019081526020016000205411156121c457601260003373ffffffffffffffffffffffffffffffffffffffff1673ffffffffffffffffffffffffffffffffffffffff168152602001908152602001600020549050612250565b6000601360003373ffffffffffffffffffffffffffffffffffffffff1673ffffffffffffffffffffffffffffffffffffffff16815260200190815260200160002054111561224f57601360003373ffffffffffffffffffffffffffffffffffffffff1673ffffffffffffffffffffffffffffffffffffffff1681526020019081526020016000205490505b5b600060146000838152602001908152602001600020905060018160020160159054906101000a900460ff1660ff1614156122e5573373ffffffffffffffffffffffffffffffffffffffff168160020160009054906101000a900473ffffffffffffffffffffffffffffffffffffffff1673ffffffffffffffffffffffffffffffffffffffff16146122e057600080fd5b612369565b60028160020160159054906101000a900460ff1660ff161415612363573373ffffffffffffffffffffffffffffffffffffffff168160010160009054906101000a900473ffffffffffffffffffffffffffffffffffffffff1673ffffffffffffffffffffffffffffffffffffffff161461235e57600080fd5b612368565b600080fd5b5b60018460ff1614156124bc576000600282600501546123889190615540565b9050600082600501819055506123c28260010160009054906101000a900473ffffffffffffffffffffffffffffffffffffffff1682612b39565b6123f08260020160009054906101000a900473ffffffffffffffffffffffffffffffffffffffff1682612b39565b60038260020160156101000a81548160ff021916908360ff1602179055506124608260010160009054906101000a900473ffffffffffffffffffffffffffffffffffffffff168360020160009054906101000a900473ffffffffffffffffffffffffffffffffffffffff16612bb4565b6124b68260010160009054906101000a900473ffffffffffffffffffffffffffffffffffffffff168360020160009054906101000a900473ffffffffffffffffffffffffffffffffffffffff1660008087613187565b506124e8565b60028460ff1614156124e75760008160020160156101000a81548160ff021916908360ff1602179055505b5b601560008260010160009054906101000a900473ffffffffffffffffffffffffffffffffffffffff1673ffffffffffffffffffffffffffffffffffffffff1673ffffffffffffffffffffffffffffffffffffffff16815260200190815260200160002060009055601560008260020160009054906101000a900473ffffffffffffffffffffffffffffffffffffffff1673ffffffffffffffffffffffffffffffffffffffff1673ffffffffffffffffffffffffffffffffffffffff168152602001908152602001600020600090553373ffffffffffffffffffffffffffffffffffffffff167f4ab7b1a9735aa28f2d38d47e9c125ea09812c83140e1878788159dd599c19788838360010160009054906101000a900473ffffffffffffffffffffffffffffffffffffffff168460020160009054906101000a900473ffffffffffffffffffffffffffffffffffffffff168742600660405161264f9695949392919061526c565b60405180910390a250505050565b6000600560008473ffffffffffffffffffffffffffffffffffffffff1673ffffffffffffffffffffffffffffffffffffffff16815260200190815260200160002060008373ffffffffffffffffffffffffffffffffffffffff1673ffffffffffffffffffffffffffffffffffffffff16815260200190815260200160002060009054906101000a900460ff16905092915050565b60006126fb612a14565b9050600060146000838152602001908152602001600020905060018160020160149054906101000a900460ff1660ff16148061274b575060038160020160149054906101000a900460ff1660ff16145b61275457600080fd5b60028160020160146101000a81548160ff021916908360ff1602179055503373ffffffffffffffffffffffffffffffffffffffff167f4ab7b1a9735aa28f2d38d47e9c125ea09812c83140e1878788159dd599c19788838360010160009054906101000a900473ffffffffffffffffffffffffffffffffffffffff168460020160009054906101000a900473ffffffffffffffffffffffffffffffffffffffff164260036040516128099594939291906152d4565b60405180910390a26128638160010160009054906101000a900473ffffffffffffffffffffffffffffffffffffffff168260020160009054906101000a900473ffffffffffffffffffffffffffffffffffffffff16612bb4565b5050565b6001816000016000828254019250508190555050565b60007f01ffc9a7000000000000000000000000000000000000000000000000000000007bffffffffffffffffffffffffffffffffffffffffffffffffffffffff1916827bffffffffffffffffffffffffffffffffffffffffffffffffffffffff1916149050919050565b60008073ffffffffffffffffffffffffffffffffffffffff166002600084815260200190815260200160002060009054906101000a900473ffffffffffffffffffffffffffffffffffffffff1673ffffffffffffffffffffffffffffffffffffffff1614159050919050565b600033905090565b816004600083815260200190815260200160002060006101000a81548173ffffffffffffffffffffffffffffffffffffffff021916908373ffffffffffffffffffffffffffffffffffffffff160217905550808273ffffffffffffffffffffffffffffffffffffffff166129ce8361192a565b73ffffffffffffffffffffffffffffffffffffffff167f8c5be1e5ebec7d5bd14f71427d1e84f3dd0314c0f7b2291e5b200ac8c7c3b92560405160405180910390a45050565b6000806000601260003373ffffffffffffffffffffffffffffffffffffffff1673ffffffffffffffffffffffffffffffffffffffff168152602001908152602001600020541115612aa657601260003373ffffffffffffffffffffffffffffffffffffffff1673ffffffffffffffffffffffffffffffffffffffff168152602001908152602001600020549050612b32565b6000601360003373ffffffffffffffffffffffffffffffffffffffff1673ffffffffffffffffffffffffffffffffffffffff168152602001908152602001600020541115612b3157601360003373ffffffffffffffffffffffffffffffffffffffff1673ffffffffffffffffffffffffffffffffffffffff1681526020019081526020016000205490505b5b8091505090565b60008273ffffffffffffffffffffffffffffffffffffffff1682604051612b5f90614e6d565b60006040518083038185875af1925050503d8060008114612b9c576040519150601f19603f3d011682016040523d82523d6000602084013e612ba1565b606091505b5050905080612baf57600080fd5b505050565b6000601260008473ffffffffffffffffffffffffffffffffffffffff1673ffffffffffffffffffffffffffffffffffffffff168152602001908152602001600020819055506000601360008373ffffffffffffffffffffffffffffffffffffffff1673ffffffffffffffffffffffffffffffffffffffff168152602001908152602001600020819055505050565b6000612c4d826128e7565b612c8c576040517f08c379a0000000000000000000000000000000000000000000000000000000008152600401612c8390614fdd565b60405180910390fd5b6000612c978361192a565b90508073ffffffffffffffffffffffffffffffffffffffff168473ffffffffffffffffffffffffffffffffffffffff161480612d0657508373ffffffffffffffffffffffffffffffffffffffff16612cee846107af565b73ffffffffffffffffffffffffffffffffffffffff16145b80612d175750612d16818561265d565b5b91505092915050565b8273ffffffffffffffffffffffffffffffffffffffff16612d408261192a565b73ffffffffffffffffffffffffffffffffffffffff1614612d96576040517f08c379a0000000000000000000000000000000000000000000000000000000008152600401612d8d9061509d565b60405180910390fd5b600073ffffffffffffffffffffffffffffffffffffffff168273ffffffffffffffffffffffffffffffffffffffff161415612e06576040517f08c379a0000000000000000000000000000000000000000000000000000000008152600401612dfd90614f9d565b60405180910390fd5b612e11838383613836565b612e1c60008261295b565b6001600360008573ffffffffffffffffffffffffffffffffffffffff1673ffffffffffffffffffffffffffffffffffffffff1681526020019081526020016000206000828254612e6c9190615637565b925050819055506001600360008473ffffffffffffffffffffffffffffffffffffffff1673ffffffffffffffffffffffffffffffffffffffff1681526020019081526020016000206000828254612ec391906154b3565b92505081905550816002600083815260200190815260200160002060006101000a81548173ffffffffffffffffffffffffffffffffffffffff021916908373ffffffffffffffffffffffffffffffffffffffff160217905550808273ffffffffffffffffffffffffffffffffffffffff168473ffffffffffffffffffffffffffffffffffffffff167fddf252ad1be2c89b69c2b068fc378daa952ba7f163c4a11628f55a4df523b3ef60405160405180910390a4505050565b6000612f88600661383b565b9050612f948682613849565b6000612fa287878786613867565b90506040518060600160405280828152602001851515815260200186815250600760008481526020019081526020016000206000820151816000019080519060200190612ff0929190614154565b5060208201518160010160006101000a81548160ff0219169083151502179055506040820151816002015590505081600860008973ffffffffffffffffffffffffffffffffffffffff1673ffffffffffffffffffffffffffffffffffffffff16815260200190815260200160002060008873ffffffffffffffffffffffffffffffffffffffff1673ffffffffffffffffffffffffffffffffffffffff168152602001908152602001600020819055507f07f1b1953b40299113f6351066fd07a4f6d0b71b9e18ae5ce552d5484bae43b98787846040516130d293929190614e9d565b60405180910390a16130e46006612867565b6130ee600661383b565b91506130fa8683613849565b6040518060600160405280828152602001851515815260200186815250600760008481526020019081526020016000206000820151816000019080519060200190613146929190614154565b5060208201518160010160006101000a81548160ff0219169083151502179055506040820151816002015590505061317e6006612867565b50505050505050565b6000600860008773ffffffffffffffffffffffffffffffffffffffff1673ffffffffffffffffffffffffffffffffffffffff16815260200190815260200160002060008673ffffffffffffffffffffffffffffffffffffffff1673ffffffffffffffffffffffffffffffffffffffff168152602001908152602001600020549050600060076000838152602001908152602001600020905061322b87878786613867565b816000019080519060200190613242929190614154565b50848160020181905550838160010160006101000a81548160ff02191690831515021790555060006007600060018561327b91906154b3565b81526020019081526020016000209050816000018160000190805461329f906157ce565b6132aa9291906141da565b50858160020181905550848160010160006101000a81548160ff0219169083151502179055505050505050505050565b8173ffffffffffffffffffffffffffffffffffffffff168373ffffffffffffffffffffffffffffffffffffffff161415613349576040517f08c379a000000000000000000000000000000000000000000000000000000000815260040161334090614fbd565b60405180910390fd5b80600560008573ffffffffffffffffffffffffffffffffffffffff1673ffffffffffffffffffffffffffffffffffffffff16815260200190815260200160002060008473ffffffffffffffffffffffffffffffffffffffff1673ffffffffffffffffffffffffffffffffffffffff16815260200190815260200160002060006101000a81548160ff0219169083151502179055508173ffffffffffffffffffffffffffffffffffffffff168373ffffffffffffffffffffffffffffffffffffffff167f17307eab39ab6107e8899845ad3d59bd9653f200f220920489ca2b5937696c318360405161343a9190614f20565b60405180910390a3505050565b613452848484612d20565b61345e84848484613905565b61349d576040517f08c379a000000000000000000000000000000000000000000000000000000000815260040161349490614f5d565b60405180910390fd5b50505050565b606060008214156134eb576040518060400160405280600181526020017f30000000000000000000000000000000000000000000000000000000000000008152509050613673565b600082905060005b6000821461351d57808061350690615831565b915050600a826135169190615540565b91506134f3565b60008167ffffffffffffffff81111561355f577f4e487b7100000000000000000000000000000000000000000000000000000000600052604160045260246000fd5b6040519080825280601f01601f1916602001820160405280156135915781602001600182028036833780820191505090505b50905060008290505b6000861461366b576001816135af9190615637565b90506000600a80886135c19190615540565b6135cb91906155a2565b876135d69190615637565b60306135e29190615509565b905060008160f81b905080848481518110613626577f4e487b7100000000000000000000000000000000000000000000000000000000600052603260045260246000fd5b60200101907effffffffffffffffffffffffffffffffffffffffffffffffffffffffffffff1916908160001a905350600a886136629190615540565b9750505061359a565b819450505050505b919050565b606060008251905060008114156136a15760405180602001604052806000815250915050613831565b600060036002836136b291906154b3565b6136bc9190615540565b60046136c891906155a2565b905060006020826136d991906154b3565b67ffffffffffffffff811115613718577f4e487b7100000000000000000000000000000000000000000000000000000000600052604160045260246000fd5b6040519080825280601f01601f19166020018201604052801561374a5781602001600182028036833780820191505090505b5090506000604051806060016040528060408152602001615f86604091399050600181016020830160005b868110156137ee5760038101905062ffffff818a015116603f8160121c168401518060081b905060ff603f83600c1c1686015116810190508060081b905060ff603f8360061c1686015116810190508060081b905060ff603f831686015116810190508060e01b90508084526004840193505050613775565b506003860660018114613808576002811461381857613823565b613d3d60f01b6002830352613823565b603d60f81b60018303525b508484525050819450505050505b919050565b505050565b600081600001549050919050565b613863828260405180602001604052806000815250613a9c565b5050565b6060600061387486613af7565b9050600061388186613af7565b9050600061388e436134a3565b9050600061389b876134a3565b905060006138b46001886138af91906154b3565b6134a3565b90506000600982600a85600b88600c8c600d8d600e6040516020016138e39b9a99989796959493929190614d27565b6040516020818303038152906040529050809650505050505050949350505050565b60006139268473ffffffffffffffffffffffffffffffffffffffff16613efc565b15613a8f578373ffffffffffffffffffffffffffffffffffffffff1663150b7a0261394f612953565b8786866040518563ffffffff1660e01b81526004016139719493929190614ed4565b602060405180830381600087803b15801561398b57600080fd5b505af19250505080156139bc57506040513d601f19601f820116820180604052508101906139b9919061461d565b60015b613a3f573d80600081146139ec576040519150601f19603f3d011682016040523d82523d6000602084013e6139f1565b606091505b50600081511415613a37576040517f08c379a0000000000000000000000000000000000000000000000000000000008152600401613a2e90614f5d565b60405180910390fd5b805181602001fd5b63150b7a0260e01b7bffffffffffffffffffffffffffffffffffffffffffffffffffffffff1916817bffffffffffffffffffffffffffffffffffffffffffffffffffffffff191614915050613a94565b600190505b949350505050565b613aa68383613f0f565b613ab36000848484613905565b613af2576040517f08c379a0000000000000000000000000000000000000000000000000000000008152600401613ae990614f5d565b60405180910390fd5b505050565b6060600082604051602001613b0c9190614d0c565b60405160208183030381529060405290506000602a67ffffffffffffffff811115613b60577f4e487b7100000000000000000000000000000000000000000000000000000000600052604160045260246000fd5b6040519080825280601f01601f191660200182016040528015613b925781602001600182028036833780820191505090505b5090507f300000000000000000000000000000000000000000000000000000000000000081600081518110613bf0577f4e487b7100000000000000000000000000000000000000000000000000000000600052603260045260246000fd5b60200101907effffffffffffffffffffffffffffffffffffffffffffffffffffffffffffff1916908160001a9053507f780000000000000000000000000000000000000000000000000000000000000081600181518110613c7a577f4e487b7100000000000000000000000000000000000000000000000000000000600052603260045260246000fd5b60200101907effffffffffffffffffffffffffffffffffffffffffffffffffffffffffffff1916908160001a90535060005b6014811015613ef15760006010848381518110613cf2577f4e487b7100000000000000000000000000000000000000000000000000000000600052603260045260246000fd5b602001015160f81c60f81b60f81c613d0a9190615571565b90506000816010613d1b91906155fc565b858481518110613d54577f4e487b7100000000000000000000000000000000000000000000000000000000600052603260045260246000fd5b602001015160f81c60f81b60f81c613d6c919061566b565b90506000600a8360ff1610613d9057605783613d889190615509565b60f81b613da1565b603083613d9d9190615509565b60f81b5b90506000600a8360ff1610613dc557605783613dbd9190615509565b60f81b613dd6565b603083613dd29190615509565b60f81b5b905080866003876002613de991906155a2565b613df391906154b3565b81518110613e2a577f4e487b7100000000000000000000000000000000000000000000000000000000600052603260045260246000fd5b60200101907effffffffffffffffffffffffffffffffffffffffffffffffffffffffffffff1916908160001a90535081866002876002613e6a91906155a2565b613e7491906154b3565b81518110613eab577f4e487b7100000000000000000000000000000000000000000000000000000000600052603260045260246000fd5b60200101907effffffffffffffffffffffffffffffffffffffffffffffffffffffffffffff1916908160001a905350505050508080613ee990615831565b915050613cac565b508092505050919050565b600080823b905060008111915050919050565b600073ffffffffffffffffffffffffffffffffffffffff168273ffffffffffffffffffffffffffffffffffffffff161415613f7f576040517f08c379a0000000000000000000000000000000000000000000000000000000008152600401613f769061505d565b60405180910390fd5b613f88816128e7565b15613fc8576040517f08c379a0000000000000000000000000000000000000000000000000000000008152600401613fbf90614f7d565b60405180910390fd5b613fd460008383613836565b6001600360008473ffffffffffffffffffffffffffffffffffffffff1673ffffffffffffffffffffffffffffffffffffffff168152602001908152602001600020600082825461402491906154b3565b92505081905550816002600083815260200190815260200160002060006101000a81548173ffffffffffffffffffffffffffffffffffffffff021916908373ffffffffffffffffffffffffffffffffffffffff160217905550808273ffffffffffffffffffffffffffffffffffffffff16600073ffffffffffffffffffffffffffffffffffffffff167fddf252ad1be2c89b69c2b068fc378daa952ba7f163c4a11628f55a4df523b3ef60405160405180910390a45050565b60405180610100016040528060008152602001600073ffffffffffffffffffffffffffffffffffffffff168152602001600073ffffffffffffffffffffffffffffffffffffffff168152602001600060ff168152602001600060ff1681526020016000815260200160008152602001600081525090565b828054614160906157ce565b90600052602060002090601f01602090048101928261418257600085556141c9565b82601f1061419b57805160ff19168380011785556141c9565b828001600101855582156141c9579182015b828111156141c85782518255916020019190600101906141ad565b5b5090506141d69190614267565b5090565b8280546141e6906157ce565b90600052602060002090601f0160209004810192826142085760008555614256565b82601f106142195780548555614256565b8280016001018555821561425657600052602060002091601f016020900482015b8281111561425557825482559160010191906001019061423a565b5b5090506142639190614267565b5090565b5b80821115614280576000816000905550600101614268565b5090565b6000614297614292846153ee565b6153c9565b9050828152602081018484840111156142af57600080fd5b6142ba84828561578c565b509392505050565b60006142d56142d08461541f565b6153c9565b9050828152602081018484840111156142ed57600080fd5b6142f884828561578c565b509392505050565b60008135905061430f81615f12565b92915050565b60008135905061432481615f29565b92915050565b60008135905061433981615f40565b92915050565b60008151905061434e81615f40565b92915050565b600082601f83011261436557600080fd5b8135614375848260208601614284565b91505092915050565b600082601f83011261438f57600080fd5b813561439f8482602086016142c2565b91505092915050565b6000813590506143b781615f57565b92915050565b6000813590506143cc81615f6e565b92915050565b6000602082840312156143e457600080fd5b60006143f284828501614300565b91505092915050565b6000806040838503121561440e57600080fd5b600061441c85828601614300565b925050602061442d85828601614300565b9150509250929050565b60008060006060848603121561444c57600080fd5b600061445a86828701614300565b935050602061446b86828701614300565b925050604061447c868287016143a8565b9150509250925092565b6000806000806080858703121561449c57600080fd5b60006144aa87828801614300565b94505060206144bb87828801614300565b93505060406144cc878288016143a8565b925050606085013567ffffffffffffffff8111156144e957600080fd5b6144f587828801614354565b91505092959194509250565b6000806040838503121561451457600080fd5b600061452285828601614300565b925050602061453385828601614315565b9150509250929050565b6000806040838503121561455057600080fd5b600061455e85828601614300565b925050602061456f858286016143a8565b9150509250929050565b6000806000806080858703121561458f57600080fd5b600061459d87828801614300565b94505060206145ae878288016143a8565b93505060406145bf878288016143a8565b925050606085013567ffffffffffffffff8111156145dc57600080fd5b6145e88782880161437e565b91505092959194509250565b60006020828403121561460657600080fd5b60006146148482850161432a565b91505092915050565b60006020828403121561462f57600080fd5b600061463d8482850161433f565b91505092915050565b60006020828403121561465857600080fd5b600082013567ffffffffffffffff81111561467257600080fd5b61467e8482850161437e565b91505092915050565b6000806040838503121561469a57600080fd5b600083013567ffffffffffffffff8111156146b457600080fd5b6146c08582860161437e565b92505060206146d1858286016143a8565b9150509250929050565b6000602082840312156146ed57600080fd5b60006146fb848285016143a8565b91505092915050565b6000806040838503121561471757600080fd5b6000614725858286016143bd565b925050602083013567ffffffffffffffff81111561474257600080fd5b61474e8582860161437e565b9150509250929050565b6147618161569f565b82525050565b6147708161569f565b82525050565b6147876147828261569f565b61587a565b82525050565b614796816156b1565b82525050565b60006147a782615465565b6147b1818561547b565b93506147c181856020860161579b565b6147ca8161595a565b840191505092915050565b6147de81615720565b82525050565b6147ed81615732565b82525050565b6147fc81615744565b82525050565b61480b81615756565b82525050565b61481a81615768565b82525050565b6148298161577a565b82525050565b600061483a82615470565b6148448185615497565b935061485481856020860161579b565b61485d8161595a565b840191505092915050565b600061487382615470565b61487d81856154a8565b935061488d81856020860161579b565b80840191505092915050565b600081546148a6816157ce565b6148b081866154a8565b945060018216600081146148cb57600181146148dc5761490f565b60ff1983168652818601935061490f565b6148e585615450565b60005b83811015614907578154818901526001820191506020810190506148e8565b838801955050505b50505092915050565b6000614925600b836154a8565b915061493082615978565b600b82019050919050565b60006149486005836154a8565b9150614953826159a1565b600582019050919050565b600061496b6035836154a8565b9150614976826159ca565b603582019050919050565b600061498e603283615497565b915061499982615a19565b604082019050919050565b60006149b1601c83615497565b91506149bc82615a68565b602082019050919050565b60006149d46019836154a8565b91506149df82615a91565b601982019050919050565b60006149f7602483615497565b9150614a0282615aba565b604082019050919050565b6000614a1a601983615497565b9150614a2582615b09565b602082019050919050565b6000614a3d602c83615497565b9150614a4882615b32565b604082019050919050565b6000614a60603883615497565b9150614a6b82615b81565b604082019050919050565b6000614a836027836154a8565b9150614a8e82615bd0565b602782019050919050565b6000614aa6602a83615497565b9150614ab182615c1f565b604082019050919050565b6000614ac9602983615497565b9150614ad482615c6e565b604082019050919050565b6000614aec602083615497565b9150614af782615cbd565b602082019050919050565b6000614b0f602c83615497565b9150614b1a82615ce6565b604082019050919050565b6000614b32602983615497565b9150614b3d82615d35565b604082019050919050565b6000614b55600a836154a8565b9150614b6082615d84565b600a82019050919050565b6000614b78602183615497565b9150614b8382615dad565b604082019050919050565b6000614b9b601d836154a8565b9150614ba682615dfc565b601d82019050919050565b6000614bbe60008361548c565b9150614bc982615e25565b600082019050919050565b6000614be1600083615497565b9150614bec82615e25565b600082019050919050565b6000614c04603183615497565b9150614c0f82615e28565b604082019050919050565b6000614c276075836154a8565b9150614c3282615e77565b607582019050919050565b61010082016000820151614c546000850182614cdf565b506020820151614c676020850182614758565b506040820151614c7a6040850182614758565b506060820151614c8d6060850182614cfd565b506080820151614ca06080850182614cfd565b5060a0820151614cb360a0850182614cdf565b5060c0820151614cc660c0850182614cdf565b5060e0820151614cd960e0850182614cdf565b50505050565b614ce881615709565b82525050565b614cf781615709565b82525050565b614d0681615713565b82525050565b6000614d188284614776565b60148201915081905092915050565b6000614d33828e614899565b9150614d3f828d614868565b9150614d4b828c614899565b9150614d57828b614868565b9150614d63828a614899565b9150614d6f8289614868565b9150614d7b8288614899565b9150614d878287614868565b9150614d938286614899565b9150614d9f8285614868565b9150614dab8284614899565b91508190509c9b505050505050505050505050565b6000614dcb82614b48565b9150614dd6826149c7565b9150614de182614918565b9150614ded8287614868565b9150614df882614c1a565b9150614e048286614868565b9150614e0f8261495e565b9150614e1b8285614868565b9150614e2682614a76565b9150614e328284614868565b9150614e3d8261493b565b915081905095945050505050565b6000614e5682614b8e565b9150614e628284614868565b915081905092915050565b6000614e7882614bb1565b9150819050919050565b6000602082019050614e976000830184614767565b92915050565b6000606082019050614eb26000830186614767565b614ebf6020830185614767565b614ecc6040830184614cee565b949350505050565b6000608082019050614ee96000830187614767565b614ef66020830186614767565b614f036040830185614cee565b8181036060830152614f15818461479c565b905095945050505050565b6000602082019050614f35600083018461478d565b92915050565b60006020820190508181036000830152614f55818461482f565b905092915050565b60006020820190508181036000830152614f7681614981565b9050919050565b60006020820190508181036000830152614f96816149a4565b9050919050565b60006020820190508181036000830152614fb6816149ea565b9050919050565b60006020820190508181036000830152614fd681614a0d565b9050919050565b60006020820190508181036000830152614ff681614a30565b9050919050565b6000602082019050818103600083015261501681614a53565b9050919050565b6000602082019050818103600083015261503681614a99565b9050919050565b6000602082019050818103600083015261505681614abc565b9050919050565b6000602082019050818103600083015261507681614adf565b9050919050565b6000602082019050818103600083015261509681614b02565b9050919050565b600060208201905081810360008301526150b681614b25565b9050919050565b600060208201905081810360008301526150d681614b6b565b9050919050565b600060208201905081810360008301526150f681614bf7565b9050919050565b6000610100820190506151136000830184614c3d565b92915050565b600060208201905061512e6000830184614cee565b92915050565b600060c0820190506151496000830189614cee565b6151566020830188614767565b6151636040830187614767565b8181036060830152615175818661482f565b90506151846080830185614cee565b61519160a08301846147d5565b979650505050505050565b600060c0820190506151b16000830189614cee565b6151be6020830188614767565b6151cb6040830187614767565b81810360608301526151dd818661482f565b90506151ec6080830185614cee565b6151f960a08301846147e4565b979650505050505050565b600060c0820190506152196000830189614cee565b6152266020830188614767565b6152336040830187614767565b8181036060830152615245818661482f565b90506152546080830185614cee565b61526160a0830184614811565b979650505050505050565b600060c0820190506152816000830189614cee565b61528e6020830188614767565b61529b6040830187614767565b81810360608301526152ad818661482f565b90506152bc6080830185614cee565b6152c960a0830184614820565b979650505050505050565b600060c0820190506152e96000830188614cee565b6152f66020830187614767565b6153036040830186614767565b818103606083015261531481614bd4565b90506153236080830185614cee565b61533060a08301846147f3565b9695505050505050565b600060c08201905061534f6000830188614cee565b61535c6020830187614767565b6153696040830186614767565b818103606083015261537a81614bd4565b90506153896080830185614cee565b61539660a0830184614802565b9695505050505050565b60006040820190506153b56000830185614cee565b6153c26020830184614cee565b9392505050565b60006153d36153e4565b90506153df8282615800565b919050565b6000604051905090565b600067ffffffffffffffff8211156154095761540861592b565b5b6154128261595a565b9050602081019050919050565b600067ffffffffffffffff82111561543a5761543961592b565b5b6154438261595a565b9050602081019050919050565b60008190508160005260206000209050919050565b600081519050919050565b600081519050919050565b600082825260208201905092915050565b600081905092915050565b600082825260208201905092915050565b600081905092915050565b60006154be82615709565b91506154c983615709565b9250827fffffffffffffffffffffffffffffffffffffffffffffffffffffffffffffffff038211156154fe576154fd61589e565b5b828201905092915050565b600061551482615713565b915061551f83615713565b92508260ff038211156155355761553461589e565b5b828201905092915050565b600061554b82615709565b915061555683615709565b925082615566576155656158cd565b5b828204905092915050565b600061557c82615713565b915061558783615713565b925082615597576155966158cd565b5b828204905092915050565b60006155ad82615709565b91506155b883615709565b9250817fffffffffffffffffffffffffffffffffffffffffffffffffffffffffffffffff04831182151516156155f1576155f061589e565b5b828202905092915050565b600061560782615713565b915061561283615713565b92508160ff048311821515161561562c5761562b61589e565b5b828202905092915050565b600061564282615709565b915061564d83615709565b9250828210156156605761565f61589e565b5b828203905092915050565b600061567682615713565b915061568183615713565b9250828210156156945761569361589e565b5b828203905092915050565b60006156aa826156e9565b9050919050565b60008115159050919050565b60007fffffffff0000000000000000000000000000000000000000000000000000000082169050919050565b600073ffffffffffffffffffffffffffffffffffffffff82169050919050565b6000819050919050565b600060ff82169050919050565b600061572b82615713565b9050919050565b600061573d82615713565b9050919050565b600061574f82615713565b9050919050565b600061576182615713565b9050919050565b600061577382615713565b9050919050565b600061578582615713565b9050919050565b82818337600083830152505050565b60005b838110156157b957808201518184015260208101905061579e565b838111156157c8576000848401525b50505050565b600060028204905060018216806157e657607f821691505b602082108114156157fa576157f96158fc565b5b50919050565b6158098261595a565b810181811067ffffffffffffffff821117156158285761582761592b565b5b80604052505050565b600061583c82615709565b91507fffffffffffffffffffffffffffffffffffffffffffffffffffffffffffffffff82141561586f5761586e61589e565b5b600182019050919050565b60006158858261588c565b9050919050565b60006158978261596b565b9050919050565b7f4e487b7100000000000000000000000000000000000000000000000000000000600052601160045260246000fd5b7f4e487b7100000000000000000000000000000000000000000000000000000000600052601260045260246000fd5b7f4e487b7100000000000000000000000000000000000000000000000000000000600052602260045260246000fd5b7f4e487b7100000000000000000000000000000000000000000000000000000000600052604160045260246000fd5b6000601f19601f8301169050919050565b60008160601b9050919050565b7f202d2d204e465420233a20000000000000000000000000000000000000000000600082015250565b7f227d205d7d000000000000000000000000000000000000000000000000000000600082015250565b7f222c202261747472696275746573223a205b207b202274726169745f7479706560008201527f223a20225374616b65222c202276616c7565223a200000000000000000000000602082015250565b7f4552433732313a207472616e7366657220746f206e6f6e20455243373231526560008201527f63656976657220696d706c656d656e7465720000000000000000000000000000602082015250565b7f4552433732313a20746f6b656e20616c7265616479206d696e74656400000000600082015250565b7f455448204d617272696167652043657274696669636174652e00000000000000600082015250565b7f4552433732313a207472616e7366657220746f20746865207a65726f2061646460008201527f7265737300000000000000000000000000000000000000000000000000000000602082015250565b7f4552433732313a20617070726f766520746f2063616c6c657200000000000000600082015250565b7f4552433732313a206f70657261746f7220717565727920666f72206e6f6e657860008201527f697374656e7420746f6b656e0000000000000000000000000000000000000000602082015250565b7f4552433732313a20617070726f76652063616c6c6572206973206e6f74206f7760008201527f6e6572206e6f7220617070726f76656420666f7220616c6c0000000000000000602082015250565b7f7d2c207b202274726169745f74797065223a2022537461747573222c2022766160008201527f6c7565223a202200000000000000000000000000000000000000000000000000602082015250565b7f4552433732313a2062616c616e636520717565727920666f7220746865207a6560008201527f726f206164647265737300000000000000000000000000000000000000000000602082015250565b7f4552433732313a206f776e657220717565727920666f72206e6f6e657869737460008201527f656e7420746f6b656e0000000000000000000000000000000000000000000000602082015250565b7f4552433732313a206d696e7420746f20746865207a65726f2061646472657373600082015250565b7f4552433732313a20617070726f76656420717565727920666f72206e6f6e657860008201527f697374656e7420746f6b656e0000000000000000000000000000000000000000602082015250565b7f4552433732313a207472616e73666572206f6620746f6b656e2074686174206960008201527f73206e6f74206f776e0000000000000000000000000000000000000000000000602082015250565b7f7b226e616d65223a202200000000000000000000000000000000000000000000600082015250565b7f4552433732313a20617070726f76616c20746f2063757272656e74206f776e6560008201527f7200000000000000000000000000000000000000000000000000000000000000602082015250565b7f646174613a6170706c69636174696f6e2f6a736f6e3b6261736536342c000000600082015250565b50565b7f4552433732313a207472616e736665722063616c6c6572206973206e6f74206f60008201527f776e6572206e6f7220617070726f766564000000000000000000000000000000602082015250565b7f222c20226465736372697074696f6e223a202254686973206973204d6172726960008201527f6167652043657274696669636174652073746f72656420696e2045746865726560208201527f756d20426c6f636b636861696e2e222c2022696d616765223a2022646174613a60408201527f696d6167652f7376672b786d6c3b6261736536342c0000000000000000000000606082015250565b615f1b8161569f565b8114615f2657600080fd5b50565b615f32816156b1565b8114615f3d57600080fd5b50565b615f49816156bd565b8114615f5457600080fd5b50565b615f6081615709565b8114615f6b57600080fd5b50565b615f7781615713565b8114615f8257600080fd5b5056fe4142434445464748494a4b4c4d4e4f505152535455565758595a6162636465666768696a6b6c6d6e6f707172737475767778797a303132333435363738392b2fa2646970667358221220a1fd4fb3f9b36eaaaa2e4e7b60881e5c8b083819c52905bffe21da923ba7ff0f64736f6c634300080400333c2f746578743e3c2f673e3c67207374796c653d277472616e73666f726d3a7472616e736c61746528333570782c333530707829273e3c726563742077696474683d2734333027206865696768743d273935272072783d2738272072793d2738272066696c6c3d277267626128302c302c302c302e3629272f3e3c7465787420783d2731322720793d2733302720666f6e742d66616d696c793d27436f7572696572204e65772720666f6e742d73697a653d273330272066696c6c3d2723666666273e3c747370616e2066696c6c3d2772676261283235352c3235352c3235352c302e3629273e4265747765656e3a203c2f747370616e3e3c2f746578743e3c7465787420783d2731322720793d2735352720666f6e742d66616d696c793d27436f7572696572204e65772720666f6e742d73697a653d273136272066696c6c3d2723666666273e3c7376672077696474683d2735303027206865696768743d27353030272076696577426f783d2730203020353030203530302720786d6c6e733d27687474703a2f2f7777772e77332e6f72672f323030302f7376672720786d6c6e733a786c696e6b3d27687474703a2f2f7777772e77332e6f72672f313939392f786c696e6b273e3c646566733e3c66696c7465722069643d2762273e3c6665496d61676520726573756c743d2770302720786c696e6b3a687265663d27646174613a696d6167652f7376672b786d6c3b6261736536342c50484e325a79423361575230614430694e5441774969426f5a576c6e61485139496a55774d434967646d6c6c64304a76654430694d434177494455774d4341314d444169494868746247357a50534a6f644852774f693876643364334c6e637a4c6d39795a7938794d4441774c334e325a79492b50484268644767675a6d6c7362443069497a63794d446c694e7949675a443069545441674d4767314d4442324e544177534442364969382b5043397a646d632b272f3e3c6665496d61676520726573756c743d2770312720786c696e6b3a687265663d27646174613a696d6167652f7376672b786d6c3b6261736536342c50484e325a79423361575230614430694e5441774969426f5a576c6e61485139496a55774d434967646d6c6c64304a76654430694d434177494455774d4341314d444169494868746247357a50534a6f644852774f693876643364334c6e637a4c6d39795a7938794d4441774c334e325a79492b50474e70636d4e735a53426a654430694d5441334969426a655430694d7a637749694279505349784e54416949475a706247773949694e6d4e7a49314f4455694c7a34384c334e325a7a343d272f3e3c6665496d61676520726573756c743d2770322720786c696e6b3a687265663d27646174613a696d6167652f7376672b786d6c3b6261736536342c50484e325a79423361575230614430694e5441774969426f5a576c6e61485139496a55774d434967646d6c6c64304a76654430694d434177494455774d4341314d444169494868746247357a50534a6f644852774f693876643364334c6e637a4c6d39795a7938794d4441774c334e325a79492b50474e70636d4e735a53426a654430694d6a51354969426a655430694d6a517949694279505349784d44416949475a706247773949694e694e5445334f5755694c7a34384c334e325a7a343d272f3e3c6665496d61676520726573756c743d2770332720786c696e6b3a687265663d27646174613a696d6167652f7376672b786d6c3b6261736536342c50484e325a79423361575230614430694e5441774969426f5a576c6e61485139496a55774d434967646d6c6c64304a76654430694d434177494455774d4341314d444169494868746247357a50534a6f644852774f693876643364334c6e637a4c6d39795a7938794d4441774c334e325a79492b50474e70636d4e735a53426a654430694e4449334969426a655430694d6a6b7749694279505349784e44416949475a706247773949694d304f446b315a5759694c7a34384c334e325a7a343d272f3e3c6665426c656e64206d6f64653d276f7665726c61792720696e3d2770302720696e323d277031272f3e3c6665426c656e64206d6f64653d276578636c7573696f6e2720696e323d277032272f3e3c6665426c656e64206d6f64653d276f7665726c61792720696e323d2770332720726573756c743d27626c656e644f7574272f3e3c6665476175737369616e426c757220696e3d27626c656e644f75742720737464446576696174696f6e3d273435272f3e3c2f66696c7465723e3c66696c7465722069643d2763273e3c6665476175737369616e426c757220696e3d27536f75726365477261706869632720737464446576696174696f6e3d273235272f3e3c2f66696c7465723e3c636c6970506174682069643d2761273e3c726563742077696474683d2735303027206865696768743d27353030272072783d273432272072793d273432272f3e3c2f636c6970506174683e3c2f646566733e3c6720636c69702d706174683d2775726c28236129273e3c706174682066696c6c3d273662313735342720643d274d302030683530307635303048307a272f3e3c70617468207374796c653d2766696c7465723a75726c282362292720643d274d302030683530307635303048307a272f3e3c67207374796c653d2766696c7465723a75726c282363293b7472616e73666f726d3a7363616c6528312e35293b7472616e73666f726d2d6f726967696e3a63656e74657220746f70273e3c706174682066696c6c3d276e6f6e652720643d274d302030683530307635303048307a272f3e3c656c6c697073652063783d27353025272072783d27313830272072793d2731323027206f7061636974793d272e3535272f3e3c2f673e3c2f673e3c67206d61736b3d2775726c28236729272066696c6c3d27236666662720666f6e742d66616d696c793d27436f7572696572204e6577273e3c7465787420793d2738302720783d2739302720666f6e742d7765696768743d273532302720666f6e742d73697a653d273530273e43455254494649434154453c2f746578743e3c7465787420793d273133302720783d273133302720666f6e742d7765696768743d273430302720666f6e742d73697a653d273430273e6f66204d617272696167653c2f746578743e3c2f673e3c7265637420783d2731362720793d273136272077696474683d2734363827206865696768743d27343638272072783d273236272072793d273236272066696c6c3d277267626128302c302c302c302927207374726f6b653d2772676261283235352c3235352c3235352c302e3229272f3e3c67207374796c653d277472616e73666f726d3a7472616e736c61746528333570782c313730707829273e3c726563742077696474683d2731353027206865696768743d273430272072783d2738272072793d2738272066696c6c3d277267626128302c302c302c302e3629272f3e3c7465787420783d2731322720793d2733302720666f6e742d66616d696c793d27436f7572696572204e65772720666f6e742d73697a653d273330272066696c6c3d2723666666273e3c747370616e2066696c6c3d2772676261283235352c3235352c3235352c302e3629273e49443a203c2f747370616e3e3c2f746578743e3c7465787420783d2731322720793d2737352720666f6e742d66616d696c793d27436f7572696572204e65772720666f6e742d73697a653d273136272066696c6c3d2723666666273e3c2f746578743e3c2f673e3c67207374796c653d277472616e73666f726d3a7472616e736c61746528333570782c323330707829273e3c726563742077696474683d2733303027206865696768743d273430272072783d2738272072793d2738272066696c6c3d277267626128302c302c302c302e3629272f3e3c7465787420783d2731322720793d2733302720666f6e742d66616d696c793d27436f7572696572204e65772720666f6e742d73697a653d273330272066696c6c3d2723666666273e3c747370616e2066696c6c3d2772676261283235352c3235352c3235352c302e3629273e5374616b653a203c2f747370616e3e204554483c2f746578743e3c2f673e3c67207374796c653d277472616e73666f726d3a7472616e736c61746528333570782c323930707829273e3c726563742077696474683d2734303027206865696768743d273430272072783d2738272072793d2738272066696c6c3d277267626128302c302c302c302e3629272f3e3c7465787420783d2731322720793d2733302720666f6e742d66616d696c793d27436f7572696572204e65772720666f6e742d73697a653d273330272066696c6c3d2723666666273e3c747370616e2066696c6c3d2772676261283235352c3235352c3235352c302e3629273e426c6f636b233a203c2f747370616e3e",
  "linkReferences": {},
  "deployedLinkReferences": {}
}