{
  "_format": "hh-sol-artifact-1",
  "contractName": "WavePortal",
  "sourceName": "contracts/newMarriages2.sol",
  "abi": [
    {
      "inputs": [],
      "stateMutability": "payable",
      "type": "constructor"
    },
    {
      "anonymous": false,
      "inputs": [
        {
          "indexed": true,
          "internalType": "address",
          "name": "from",
          "type": "address"
        },
        {
          "indexed": false,
          "internalType": "uint256",
          "name": "timestamp",
          "type": "uint256"
        },
        {
          "indexed": false,
          "internalType": "uint256",
          "name": "amount",
          "type": "uint256"
        }
      ],
      "name": "AddStake",
      "type": "event"
    },
    {
      "anonymous": false,
      "inputs": [
        {
          "indexed": false,
          "internalType": "uint256",
          "name": "id",
          "type": "uint256"
        },
        {
          "indexed": false,
          "internalType": "address",
          "name": "waver",
          "type": "address"
        },
        {
          "indexed": false,
          "internalType": "address",
          "name": "proposed",
          "type": "address"
        },
        {
          "indexed": true,
          "internalType": "address",
          "name": "from",
          "type": "address"
        },
        {
          "indexed": false,
          "internalType": "string",
          "name": "message",
          "type": "string"
        },
        {
          "indexed": false,
          "internalType": "uint256",
          "name": "timestamp",
          "type": "uint256"
        },
        {
          "indexed": false,
          "internalType": "uint8",
          "name": "vid",
          "type": "uint8"
        }
      ],
      "name": "NewWave",
      "type": "event"
    },
    {
      "inputs": [],
      "name": "addstake",
      "outputs": [],
      "stateMutability": "payable",
      "type": "function"
    },
    {
      "inputs": [
        {
          "internalType": "string",
          "name": "_message",
          "type": "string"
        },
        {
          "internalType": "uint256",
          "name": "_agreed",
          "type": "uint256"
        }
      ],
      "name": "approvals",
      "outputs": [],
      "stateMutability": "nonpayable",
      "type": "function"
    },
    {
      "inputs": [],
      "name": "cancel",
      "outputs": [],
      "stateMutability": "nonpayable",
      "type": "function"
    },
    {
      "inputs": [],
      "name": "checkIfUserHasBeenProposed",
      "outputs": [
        {
          "components": [
            {
              "internalType": "uint256",
              "name": "id",
              "type": "uint256"
            },
            {
              "internalType": "address",
              "name": "waver",
              "type": "address"
            },
            {
              "internalType": "address",
              "name": "proposed",
              "type": "address"
            },
            {
              "internalType": "uint8",
              "name": "ProposalStatus",
              "type": "uint8"
            },
            {
              "internalType": "uint8",
              "name": "DivorceStatus",
              "type": "uint8"
            },
            {
              "internalType": "uint256",
              "name": "stake",
              "type": "uint256"
            },
            {
              "internalType": "uint256",
              "name": "gift",
              "type": "uint256"
            },
            {
              "internalType": "uint256",
              "name": "FamilyBudget",
              "type": "uint256"
            }
          ],
          "internalType": "struct WavePortal.Wave",
          "name": "",
          "type": "tuple"
        }
      ],
      "stateMutability": "view",
      "type": "function"
    },
    {
      "inputs": [],
      "name": "checkIfUserHasProposed",
      "outputs": [
        {
          "components": [
            {
              "internalType": "uint256",
              "name": "id",
              "type": "uint256"
            },
            {
              "internalType": "address",
              "name": "waver",
              "type": "address"
            },
            {
              "internalType": "address",
              "name": "proposed",
              "type": "address"
            },
            {
              "internalType": "uint8",
              "name": "ProposalStatus",
              "type": "uint8"
            },
            {
              "internalType": "uint8",
              "name": "DivorceStatus",
              "type": "uint8"
            },
            {
              "internalType": "uint256",
              "name": "stake",
              "type": "uint256"
            },
            {
              "internalType": "uint256",
              "name": "gift",
              "type": "uint256"
            },
            {
              "internalType": "uint256",
              "name": "FamilyBudget",
              "type": "uint256"
            }
          ],
          "internalType": "struct WavePortal.Wave",
          "name": "",
          "type": "tuple"
        }
      ],
      "stateMutability": "view",
      "type": "function"
    },
    {
      "inputs": [
        {
          "internalType": "string",
          "name": "_message",
          "type": "string"
        }
      ],
      "name": "divorceproposal",
      "outputs": [],
      "stateMutability": "nonpayable",
      "type": "function"
    },
    {
      "inputs": [
        {
          "internalType": "uint8",
          "name": "_divorceresponse",
          "type": "uint8"
        },
        {
          "internalType": "string",
          "name": "_message",
          "type": "string"
        }
      ],
      "name": "divorceresponse",
      "outputs": [],
      "stateMutability": "nonpayable",
      "type": "function"
    },
    {
      "inputs": [],
      "name": "execute",
      "outputs": [],
      "stateMutability": "payable",
      "type": "function"
    },
    {
      "inputs": [],
      "name": "getBalance",
      "outputs": [
        {
          "internalType": "uint256",
          "name": "",
          "type": "uint256"
        },
        {
          "internalType": "uint256",
          "name": "",
          "type": "uint256"
        }
      ],
      "stateMutability": "view",
      "type": "function"
    },
    {
      "inputs": [],
      "name": "timewithdraw",
      "outputs": [],
      "stateMutability": "nonpayable",
      "type": "function"
    },
    {
      "inputs": [
        {
          "internalType": "address",
          "name": "_proposed",
          "type": "address"
        },
        {
          "internalType": "uint256",
          "name": "_stake",
          "type": "uint256"
        },
        {
          "internalType": "uint256",
          "name": "_gift",
          "type": "uint256"
        },
        {
          "internalType": "string",
          "name": "_message",
          "type": "string"
        }
      ],
      "name": "wave",
      "outputs": [],
      "stateMutability": "nonpayable",
      "type": "function"
    },
    {
      "inputs": [],
      "name": "withdrawcomission",
      "outputs": [],
      "stateMutability": "nonpayable",
      "type": "function"
    },
    {
      "stateMutability": "payable",
      "type": "receive"
    }
  ],
  "bytecode": "0x6080604052633b9aca0060015533600260006101000a81548173ffffffffffffffffffffffffffffffffffffffff021916908373ffffffffffffffffffffffffffffffffffffffff1602179055506127c78061005c6000396000f3fe6080604052600436106100ab5760003560e01c8063614619541161006457806361461954146101fd578063614cae621461020757806393b45dad1461021e578063b77a88c914610228578063e9385f7b14610253578063ea8a1af01461027c5761010f565b806312065fe0146101145780631c5a217b1461014057806342d99b1314610157578063477de22b1461018057806348678390146101a957806352f7991c146101d25761010f565b3661010f57600034116100bd57600080fd5b3373ffffffffffffffffffffffffffffffffffffffff167f454558f821e516381f5735afdf706c1069e066bc2f6c62ac498eb191dc57b42842346040516101059291906123f1565b60405180910390a2005b600080fd5b34801561012057600080fd5b50610129610293565b6040516101379291906123f1565b60405180910390f35b34801561014c57600080fd5b50610155610301565b005b34801561016357600080fd5b5061017e60048036038101906101799190611eb7565b610490565b005b34801561018c57600080fd5b506101a760048036038101906101a29190611e3c565b610678565b005b3480156101b557600080fd5b506101d060048036038101906101cb9190611ef8565b610a63565b005b3480156101de57600080fd5b506101e7610c23565b6040516101f49190612169565b60405180910390f35b610205610dbe565b005b34801561021357600080fd5b5061021c61109e565b005b610226611188565b005b34801561023457600080fd5b5061023d611301565b60405161024a9190612169565b60405180910390f35b34801561025f57600080fd5b5061027a60048036038101906102759190611f4c565b61149c565b005b34801561028857600080fd5b5061029161197a565b005b6000804760076000600260009054906101000a900473ffffffffffffffffffffffffffffffffffffffff1673ffffffffffffffffffffffffffffffffffffffff1673ffffffffffffffffffffffffffffffffffffffff16815260200190815260200160002054915091509091565b600061030b611af0565b905060006005600083815260200190815260200160002090506000600660003373ffffffffffffffffffffffffffffffffffffffff1673ffffffffffffffffffffffffffffffffffffffff168152602001908152602001600020541180156103c05750624f1a00600660003373ffffffffffffffffffffffffffffffffffffffff1673ffffffffffffffffffffffffffffffffffffffff168152602001908152602001600020546103bc91906124a2565b4210155b80156103d0575060008160050154115b6103d957600080fd5b600081600501549050600082600501819055506103f63382611c15565b6104488260010160009054906101000a900473ffffffffffffffffffffffffffffffffffffffff168360020160009054906101000a900473ffffffffffffffffffffffffffffffffffffffff16611c90565b600660003373ffffffffffffffffffffffffffffffffffffffff1673ffffffffffffffffffffffffffffffffffffffff16815260200190815260200160002060009055505050565b600061049a611af0565b9050600060056000838152602001908152602001600020905060048160020160149054906101000a900460ff1660ff161480156104eb575060008160020160159054906101000a900460ff1660ff16145b6104f457600080fd5b3373ffffffffffffffffffffffffffffffffffffffff168160010160009054906101000a900473ffffffffffffffffffffffffffffffffffffffff1673ffffffffffffffffffffffffffffffffffffffff16141561056f5760018160020160156101000a81548160ff021916908360ff16021790555061058e565b60028160020160156101000a81548160ff021916908360ff1602179055505b42600660003373ffffffffffffffffffffffffffffffffffffffff1673ffffffffffffffffffffffffffffffffffffffff168152602001908152602001600020819055503373ffffffffffffffffffffffffffffffffffffffff167f4ab7b1a9735aa28f2d38d47e9c125ea09812c83140e1878788159dd599c19788838360010160009054906101000a900473ffffffffffffffffffffffffffffffffffffffff168460020160009054906101000a900473ffffffffffffffffffffffffffffffffffffffff168742600560405161066b96959493929190612255565b60405180910390a2505050565b600160008082825461068a91906124a2565b925050819055508373ffffffffffffffffffffffffffffffffffffffff163373ffffffffffffffffffffffffffffffffffffffff161415801561070c57506000600360003373ffffffffffffffffffffffffffffffffffffffff1673ffffffffffffffffffffffffffffffffffffffff16815260200190815260200160002054145b801561075757506000600460003373ffffffffffffffffffffffffffffffffffffffff1673ffffffffffffffffffffffffffffffffffffffff16815260200190815260200160002054145b80156107a257506000600460008673ffffffffffffffffffffffffffffffffffffffff1673ffffffffffffffffffffffffffffffffffffffff16815260200190815260200160002054145b80156107ed57506000600360008673ffffffffffffffffffffffffffffffffffffffff1673ffffffffffffffffffffffffffffffffffffffff16815260200190815260200160002054145b6107f657600080fd5b600054600360003373ffffffffffffffffffffffffffffffffffffffff1673ffffffffffffffffffffffffffffffffffffffff16815260200190815260200160002081905550600054600460008673ffffffffffffffffffffffffffffffffffffffff1673ffffffffffffffffffffffffffffffffffffffff1681526020019081526020016000208190555060405180610100016040528060005481526020013373ffffffffffffffffffffffffffffffffffffffff1681526020018573ffffffffffffffffffffffffffffffffffffffff168152602001600160ff168152602001600060ff168152602001848152602001838152602001600081525060056000805481526020019081526020016000206000820151816000015560208201518160010160006101000a81548173ffffffffffffffffffffffffffffffffffffffff021916908373ffffffffffffffffffffffffffffffffffffffff16021790555060408201518160020160006101000a81548173ffffffffffffffffffffffffffffffffffffffff021916908373ffffffffffffffffffffffffffffffffffffffff16021790555060608201518160020160146101000a81548160ff021916908360ff16021790555060808201518160020160156101000a81548160ff021916908360ff16021790555060a0820151816003015560c0820151816004015560e082015181600501559050503373ffffffffffffffffffffffffffffffffffffffff167f4ab7b1a9735aa28f2d38d47e9c125ea09812c83140e1878788159dd599c19788600054338785426001604051610a5596959493929190612185565b60405180910390a250505050565b6000600460003373ffffffffffffffffffffffffffffffffffffffff1673ffffffffffffffffffffffffffffffffffffffff168152602001908152602001600020549050600060056000838152602001908152602001600020905060018160020160149054906101000a900460ff1660ff1614610adf57600080fd5b6001831415610b0b5760038160020160146101000a81548160ff021916908360ff160217905550610b7c565b60008160020160146101000a81548160ff021916908360ff160217905550610b7b8160010160009054906101000a900473ffffffffffffffffffffffffffffffffffffffff168260020160009054906101000a900473ffffffffffffffffffffffffffffffffffffffff16611c90565b5b3373ffffffffffffffffffffffffffffffffffffffff167f4ab7b1a9735aa28f2d38d47e9c125ea09812c83140e1878788159dd599c19788838360010160009054906101000a900473ffffffffffffffffffffffffffffffffffffffff168460020160009054906101000a900473ffffffffffffffffffffffffffffffffffffffff1688426002604051610c15969594939291906121ed565b60405180910390a250505050565b610c2b611d1e565b6000600460003373ffffffffffffffffffffffffffffffffffffffff1673ffffffffffffffffffffffffffffffffffffffff1681526020019081526020016000205490506000811115610dad576005600082815260200190815260200160002060405180610100016040529081600082015481526020016001820160009054906101000a900473ffffffffffffffffffffffffffffffffffffffff1673ffffffffffffffffffffffffffffffffffffffff1673ffffffffffffffffffffffffffffffffffffffff1681526020016002820160009054906101000a900473ffffffffffffffffffffffffffffffffffffffff1673ffffffffffffffffffffffffffffffffffffffff1673ffffffffffffffffffffffffffffffffffffffff1681526020016002820160149054906101000a900460ff1660ff1660ff1681526020016002820160159054906101000a900460ff1660ff1660ff1681526020016003820154815260200160048201548152602001600582015481525050915050610dbb565b610db5611d1e565b80925050505b90565b6000600360003373ffffffffffffffffffffffffffffffffffffffff1673ffffffffffffffffffffffffffffffffffffffff168152602001908152602001600020549050600060056000838152602001908152602001600020905060038160020160149054906101000a900460ff1660ff1614610e3a57600080fd5b60015481600301548260040154610e5191906124a2565b610e5b9190612529565b341015610e6757600080fd5b60015481600301548260040154610e7e91906124a2565b610e889190612529565b34610e939190612583565b60076000600260009054906101000a900473ffffffffffffffffffffffffffffffffffffffff1673ffffffffffffffffffffffffffffffffffffffff1673ffffffffffffffffffffffffffffffffffffffff1681526020019081526020016000206000828254610f0391906124a2565b9250508190555060015481600301548260040154610f2191906124a2565b610f2b9190612529565b8160050181905550600081600401541115610fdd576001548160040154610f529190612529565b816005015411610f6157600080fd5b6001548160040154610f739190612529565b816005016000828254610f869190612583565b9250508190555060006001548260040154610fa19190612529565b905060008260040181905550610fdb8260020160009054906101000a900473ffffffffffffffffffffffffffffffffffffffff1682611c15565b505b60048160020160146101000a81548160ff021916908360ff1602179055503373ffffffffffffffffffffffffffffffffffffffff167f4ab7b1a9735aa28f2d38d47e9c125ea09812c83140e1878788159dd599c19788838360010160009054906101000a900473ffffffffffffffffffffffffffffffffffffffff168460020160009054906101000a900473ffffffffffffffffffffffffffffffffffffffff1642600460405161109295949392919061238b565b60405180910390a25050565b3373ffffffffffffffffffffffffffffffffffffffff16600260009054906101000a900473ffffffffffffffffffffffffffffffffffffffff1673ffffffffffffffffffffffffffffffffffffffff16146110f857600080fd5b61114133600760003373ffffffffffffffffffffffffffffffffffffffff1673ffffffffffffffffffffffffffffffffffffffff16815260200190815260200160002054611c15565b6000600760003373ffffffffffffffffffffffffffffffffffffffff1673ffffffffffffffffffffffffffffffffffffffff16815260200190815260200160002081905550565b6000611192611af0565b9050600060056000838152602001908152602001600020905080600501543482600501546111c091906124a2565b1180156111e1575060048160020160149054906101000a900460ff1660ff16145b6111ea57600080fd5b60646001346111f99190612529565b61120391906124f8565b60076000600260009054906101000a900473ffffffffffffffffffffffffffffffffffffffff1673ffffffffffffffffffffffffffffffffffffffff1673ffffffffffffffffffffffffffffffffffffffff168152602001908152602001600020600082825461127391906124a2565b9250508190555060646063346112899190612529565b61129391906124f8565b8160050160008282546112a691906124a2565b925050819055503373ffffffffffffffffffffffffffffffffffffffff167f454558f821e516381f5735afdf706c1069e066bc2f6c62ac498eb191dc57b42842346040516112f59291906123f1565b60405180910390a25050565b611309611d1e565b6000600360003373ffffffffffffffffffffffffffffffffffffffff1673ffffffffffffffffffffffffffffffffffffffff168152602001908152602001600020549050600081111561148b576005600082815260200190815260200160002060405180610100016040529081600082015481526020016001820160009054906101000a900473ffffffffffffffffffffffffffffffffffffffff1673ffffffffffffffffffffffffffffffffffffffff1673ffffffffffffffffffffffffffffffffffffffff1681526020016002820160009054906101000a900473ffffffffffffffffffffffffffffffffffffffff1673ffffffffffffffffffffffffffffffffffffffff1673ffffffffffffffffffffffffffffffffffffffff1681526020016002820160149054906101000a900460ff1660ff1660ff1681526020016002820160159054906101000a900460ff1660ff1660ff1681526020016003820154815260200160048201548152602001600582015481525050915050611499565b611493611d1e565b80925050505b90565b60006114a6611af0565b90506000600360003373ffffffffffffffffffffffffffffffffffffffff1673ffffffffffffffffffffffffffffffffffffffff16815260200190815260200160002054111561153757600360003373ffffffffffffffffffffffffffffffffffffffff1673ffffffffffffffffffffffffffffffffffffffff1681526020019081526020016000205490506115c3565b6000600460003373ffffffffffffffffffffffffffffffffffffffff1673ffffffffffffffffffffffffffffffffffffffff1681526020019081526020016000205411156115c257600460003373ffffffffffffffffffffffffffffffffffffffff1673ffffffffffffffffffffffffffffffffffffffff1681526020019081526020016000205490505b5b600060056000838152602001908152602001600020905060018160020160159054906101000a900460ff1660ff161415611658573373ffffffffffffffffffffffffffffffffffffffff168160020160009054906101000a900473ffffffffffffffffffffffffffffffffffffffff1673ffffffffffffffffffffffffffffffffffffffff161461165357600080fd5b6116dc565b60028160020160159054906101000a900460ff1660ff1614156116d6573373ffffffffffffffffffffffffffffffffffffffff168160010160009054906101000a900473ffffffffffffffffffffffffffffffffffffffff1673ffffffffffffffffffffffffffffffffffffffff16146116d157600080fd5b6116db565b600080fd5b5b60018460ff1614156117d9576000600282600501546116fb91906124f8565b9050600082600501819055506117358260010160009054906101000a900473ffffffffffffffffffffffffffffffffffffffff1682611c15565b6117638260020160009054906101000a900473ffffffffffffffffffffffffffffffffffffffff1682611c15565b60038260020160156101000a81548160ff021916908360ff1602179055506117d38260010160009054906101000a900473ffffffffffffffffffffffffffffffffffffffff168360020160009054906101000a900473ffffffffffffffffffffffffffffffffffffffff16611c90565b50611805565b60028460ff1614156118045760008160020160156101000a81548160ff021916908360ff1602179055505b5b600660008260010160009054906101000a900473ffffffffffffffffffffffffffffffffffffffff1673ffffffffffffffffffffffffffffffffffffffff1673ffffffffffffffffffffffffffffffffffffffff16815260200190815260200160002060009055600660008260020160009054906101000a900473ffffffffffffffffffffffffffffffffffffffff1673ffffffffffffffffffffffffffffffffffffffff1673ffffffffffffffffffffffffffffffffffffffff168152602001908152602001600020600090553373ffffffffffffffffffffffffffffffffffffffff167f4ab7b1a9735aa28f2d38d47e9c125ea09812c83140e1878788159dd599c19788838360010160009054906101000a900473ffffffffffffffffffffffffffffffffffffffff168460020160009054906101000a900473ffffffffffffffffffffffffffffffffffffffff168742600660405161196c969594939291906122bd565b60405180910390a250505050565b6000611984611af0565b9050600060056000838152602001908152602001600020905060018160020160149054906101000a900460ff1660ff1614806119d4575060038160020160149054906101000a900460ff1660ff16145b6119dd57600080fd5b60028160020160146101000a81548160ff021916908360ff1602179055503373ffffffffffffffffffffffffffffffffffffffff167f4ab7b1a9735aa28f2d38d47e9c125ea09812c83140e1878788159dd599c19788838360010160009054906101000a900473ffffffffffffffffffffffffffffffffffffffff168460020160009054906101000a900473ffffffffffffffffffffffffffffffffffffffff16426003604051611a92959493929190612325565b60405180910390a2611aec8160010160009054906101000a900473ffffffffffffffffffffffffffffffffffffffff168260020160009054906101000a900473ffffffffffffffffffffffffffffffffffffffff16611c90565b5050565b6000806000600360003373ffffffffffffffffffffffffffffffffffffffff1673ffffffffffffffffffffffffffffffffffffffff168152602001908152602001600020541115611b8257600360003373ffffffffffffffffffffffffffffffffffffffff1673ffffffffffffffffffffffffffffffffffffffff168152602001908152602001600020549050611c0e565b6000600460003373ffffffffffffffffffffffffffffffffffffffff1673ffffffffffffffffffffffffffffffffffffffff168152602001908152602001600020541115611c0d57600460003373ffffffffffffffffffffffffffffffffffffffff1673ffffffffffffffffffffffffffffffffffffffff1681526020019081526020016000205490505b5b8091505090565b60008273ffffffffffffffffffffffffffffffffffffffff1682604051611c3b90612154565b60006040518083038185875af1925050503d8060008114611c78576040519150601f19603f3d011682016040523d82523d6000602084013e611c7d565b606091505b5050905080611c8b57600080fd5b505050565b6000600360008473ffffffffffffffffffffffffffffffffffffffff1673ffffffffffffffffffffffffffffffffffffffff168152602001908152602001600020819055506000600460008373ffffffffffffffffffffffffffffffffffffffff1673ffffffffffffffffffffffffffffffffffffffff168152602001908152602001600020819055505050565b60405180610100016040528060008152602001600073ffffffffffffffffffffffffffffffffffffffff168152602001600073ffffffffffffffffffffffffffffffffffffffff168152602001600060ff168152602001600060ff1681526020016000815260200160008152602001600081525090565b6000611da8611da38461244b565b61241a565b905082815260208101848484011115611dc057600080fd5b611dcb84828561266c565b509392505050565b600081359050611de28161274c565b92915050565b600082601f830112611df957600080fd5b8135611e09848260208601611d95565b91505092915050565b600081359050611e2181612763565b92915050565b600081359050611e368161277a565b92915050565b60008060008060808587031215611e5257600080fd5b6000611e6087828801611dd3565b9450506020611e7187828801611e12565b9350506040611e8287828801611e12565b925050606085013567ffffffffffffffff811115611e9f57600080fd5b611eab87828801611de8565b91505092959194509250565b600060208284031215611ec957600080fd5b600082013567ffffffffffffffff811115611ee357600080fd5b611eef84828501611de8565b91505092915050565b60008060408385031215611f0b57600080fd5b600083013567ffffffffffffffff811115611f2557600080fd5b611f3185828601611de8565b9250506020611f4285828601611e12565b9150509250929050565b60008060408385031215611f5f57600080fd5b6000611f6d85828601611e27565b925050602083013567ffffffffffffffff811115611f8a57600080fd5b611f9685828601611de8565b9150509250929050565b611fa9816125b7565b82525050565b611fb8816125b7565b82525050565b611fc781612600565b82525050565b611fd681612612565b82525050565b611fe581612624565b82525050565b611ff481612636565b82525050565b61200381612648565b82525050565b6120128161265a565b82525050565b60006120238261247b565b61202d8185612491565b935061203d81856020860161267b565b6120468161273b565b840191505092915050565b600061205e600083612486565b9150600082019050919050565b6000612078600083612491565b9150600082019050919050565b6101008201600082015161209c6000850182612127565b5060208201516120af6020850182611fa0565b5060408201516120c26040850182611fa0565b5060608201516120d56060850182612145565b5060808201516120e86080850182612145565b5060a08201516120fb60a0850182612127565b5060c082015161210e60c0850182612127565b5060e082015161212160e0850182612127565b50505050565b612130816125e9565b82525050565b61213f816125e9565b82525050565b61214e816125f3565b82525050565b600061215f82612051565b9150819050919050565b60006101008201905061217f6000830184612085565b92915050565b600060c08201905061219a6000830189612136565b6121a76020830188611faf565b6121b46040830187611faf565b81810360608301526121c68186612018565b90506121d56080830185612136565b6121e260a0830184611fbe565b979650505050505050565b600060c0820190506122026000830189612136565b61220f6020830188611faf565b61221c6040830187611faf565b818103606083015261222e8186612018565b905061223d6080830185612136565b61224a60a0830184611fcd565b979650505050505050565b600060c08201905061226a6000830189612136565b6122776020830188611faf565b6122846040830187611faf565b81810360608301526122968186612018565b90506122a56080830185612136565b6122b260a0830184611ffa565b979650505050505050565b600060c0820190506122d26000830189612136565b6122df6020830188611faf565b6122ec6040830187611faf565b81810360608301526122fe8186612018565b905061230d6080830185612136565b61231a60a0830184612009565b979650505050505050565b600060c08201905061233a6000830188612136565b6123476020830187611faf565b6123546040830186611faf565b81810360608301526123658161206b565b90506123746080830185612136565b61238160a0830184611fdc565b9695505050505050565b600060c0820190506123a06000830188612136565b6123ad6020830187611faf565b6123ba6040830186611faf565b81810360608301526123cb8161206b565b90506123da6080830185612136565b6123e760a0830184611feb565b9695505050505050565b60006040820190506124066000830185612136565b6124136020830184612136565b9392505050565b6000604051905081810181811067ffffffffffffffff821117156124415761244061270c565b5b8060405250919050565b600067ffffffffffffffff8211156124665761246561270c565b5b601f19601f8301169050602081019050919050565b600081519050919050565b600081905092915050565b600082825260208201905092915050565b60006124ad826125e9565b91506124b8836125e9565b9250827fffffffffffffffffffffffffffffffffffffffffffffffffffffffffffffffff038211156124ed576124ec6126ae565b5b828201905092915050565b6000612503826125e9565b915061250e836125e9565b92508261251e5761251d6126dd565b5b828204905092915050565b6000612534826125e9565b915061253f836125e9565b9250817fffffffffffffffffffffffffffffffffffffffffffffffffffffffffffffffff0483118215151615612578576125776126ae565b5b828202905092915050565b600061258e826125e9565b9150612599836125e9565b9250828210156125ac576125ab6126ae565b5b828203905092915050565b60006125c2826125c9565b9050919050565b600073ffffffffffffffffffffffffffffffffffffffff82169050919050565b6000819050919050565b600060ff82169050919050565b600061260b826125f3565b9050919050565b600061261d826125f3565b9050919050565b600061262f826125f3565b9050919050565b6000612641826125f3565b9050919050565b6000612653826125f3565b9050919050565b6000612665826125f3565b9050919050565b82818337600083830152505050565b60005b8381101561269957808201518184015260208101905061267e565b838111156126a8576000848401525b50505050565b7f4e487b7100000000000000000000000000000000000000000000000000000000600052601160045260246000fd5b7f4e487b7100000000000000000000000000000000000000000000000000000000600052601260045260246000fd5b7f4e487b7100000000000000000000000000000000000000000000000000000000600052604160045260246000fd5b6000601f19601f8301169050919050565b612755816125b7565b811461276057600080fd5b50565b61276c816125e9565b811461277757600080fd5b50565b612783816125f3565b811461278e57600080fd5b5056fea2646970667358221220ca6a71562995afc61f00cf21b8b1f6fadfe540db2f5ef7b2711c40a890f1882d64736f6c63430008000033",
  "linkReferences": {},
  "deployedLinkReferences": {}
}