{
  "_format": "hh-sol-artifact-1",
  "contractName": "WavePortal3",
  "sourceName": "contracts/newmarriages7.sol",
  "abi": [
    {
      "inputs": [
        {
          "internalType": "contract MinimalForwarder",
          "name": "forwarder",
          "type": "address"
        }
      ],
      "stateMutability": "payable",
      "type": "constructor"
    },
    {
      "anonymous": false,
      "inputs": [
        {
          "indexed": true,
          "internalType": "address",
          "name": "from",
          "type": "address"
        },
        {
          "indexed": false,
          "internalType": "uint256",
          "name": "timestamp",
          "type": "uint256"
        },
        {
          "indexed": false,
          "internalType": "uint256",
          "name": "amount",
          "type": "uint256"
        }
      ],
      "name": "AddStake",
      "type": "event"
    },
    {
      "anonymous": false,
      "inputs": [
        {
          "indexed": true,
          "internalType": "address",
          "name": "owner",
          "type": "address"
        },
        {
          "indexed": true,
          "internalType": "address",
          "name": "spender",
          "type": "address"
        },
        {
          "indexed": false,
          "internalType": "uint256",
          "name": "value",
          "type": "uint256"
        }
      ],
      "name": "Approval",
      "type": "event"
    },
    {
      "anonymous": false,
      "inputs": [
        {
          "indexed": false,
          "internalType": "uint256",
          "name": "id",
          "type": "uint256"
        },
        {
          "indexed": true,
          "internalType": "address",
          "name": "waver",
          "type": "address"
        },
        {
          "indexed": true,
          "internalType": "address",
          "name": "proposed",
          "type": "address"
        },
        {
          "indexed": false,
          "internalType": "string",
          "name": "message",
          "type": "string"
        },
        {
          "indexed": false,
          "internalType": "uint256",
          "name": "timestamp",
          "type": "uint256"
        },
        {
          "indexed": false,
          "internalType": "uint8",
          "name": "vid",
          "type": "uint8"
        }
      ],
      "name": "NewWave",
      "type": "event"
    },
    {
      "anonymous": false,
      "inputs": [
        {
          "indexed": true,
          "internalType": "address",
          "name": "from",
          "type": "address"
        },
        {
          "indexed": true,
          "internalType": "address",
          "name": "to",
          "type": "address"
        },
        {
          "indexed": false,
          "internalType": "uint256",
          "name": "value",
          "type": "uint256"
        }
      ],
      "name": "Transfer",
      "type": "event"
    },
    {
      "anonymous": false,
      "inputs": [
        {
          "indexed": false,
          "internalType": "uint256",
          "name": "id",
          "type": "uint256"
        },
        {
          "indexed": true,
          "internalType": "address",
          "name": "proposer",
          "type": "address"
        },
        {
          "indexed": true,
          "internalType": "address",
          "name": "responder",
          "type": "address"
        },
        {
          "indexed": false,
          "internalType": "uint8",
          "name": "voteStatus",
          "type": "uint8"
        },
        {
          "indexed": false,
          "internalType": "uint256",
          "name": "timestamp",
          "type": "uint256"
        }
      ],
      "name": "VoteStatus",
      "type": "event"
    },
    {
      "inputs": [],
      "name": "MintCertificate",
      "outputs": [],
      "stateMutability": "payable",
      "type": "function"
    },
    {
      "inputs": [],
      "name": "addstake",
      "outputs": [],
      "stateMutability": "payable",
      "type": "function"
    },
    {
      "inputs": [
        {
          "internalType": "uint256",
          "name": "_id",
          "type": "uint256"
        }
      ],
      "name": "agreeVoting",
      "outputs": [],
      "stateMutability": "nonpayable",
      "type": "function"
    },
    {
      "inputs": [
        {
          "internalType": "address",
          "name": "owner",
          "type": "address"
        },
        {
          "internalType": "address",
          "name": "spender",
          "type": "address"
        }
      ],
      "name": "allowance",
      "outputs": [
        {
          "internalType": "uint256",
          "name": "",
          "type": "uint256"
        }
      ],
      "stateMutability": "view",
      "type": "function"
    },
    {
      "inputs": [
        {
          "internalType": "string",
          "name": "_message",
          "type": "string"
        },
        {
          "internalType": "uint256",
          "name": "_agreed",
          "type": "uint256"
        },
        {
          "internalType": "uint256",
          "name": "_hasensProposed",
          "type": "uint256"
        }
      ],
      "name": "approvals",
      "outputs": [],
      "stateMutability": "nonpayable",
      "type": "function"
    },
    {
      "inputs": [
        {
          "internalType": "address",
          "name": "spender",
          "type": "address"
        },
        {
          "internalType": "uint256",
          "name": "amount",
          "type": "uint256"
        }
      ],
      "name": "approve",
      "outputs": [
        {
          "internalType": "bool",
          "name": "",
          "type": "bool"
        }
      ],
      "stateMutability": "nonpayable",
      "type": "function"
    },
    {
      "inputs": [
        {
          "internalType": "address",
          "name": "account",
          "type": "address"
        }
      ],
      "name": "balanceOf",
      "outputs": [
        {
          "internalType": "uint256",
          "name": "",
          "type": "uint256"
        }
      ],
      "stateMutability": "view",
      "type": "function"
    },
    {
      "inputs": [],
      "name": "buyLovToken",
      "outputs": [],
      "stateMutability": "payable",
      "type": "function"
    },
    {
      "inputs": [],
      "name": "cancel",
      "outputs": [],
      "stateMutability": "nonpayable",
      "type": "function"
    },
    {
      "inputs": [
        {
          "internalType": "uint256",
          "name": "_id",
          "type": "uint256"
        }
      ],
      "name": "cancelVoting",
      "outputs": [],
      "stateMutability": "nonpayable",
      "type": "function"
    },
    {
      "inputs": [
        {
          "internalType": "uint256",
          "name": "_policyDays",
          "type": "uint256"
        },
        {
          "internalType": "address",
          "name": "_addressNFT",
          "type": "address"
        },
        {
          "internalType": "uint256",
          "name": "_saleCap",
          "type": "uint256"
        }
      ],
      "name": "changePolicy",
      "outputs": [],
      "stateMutability": "nonpayable",
      "type": "function"
    },
    {
      "inputs": [],
      "name": "checkIfUserHasBeenProposed",
      "outputs": [
        {
          "components": [
            {
              "internalType": "uint256",
              "name": "id",
              "type": "uint256"
            },
            {
              "internalType": "address",
              "name": "waver",
              "type": "address"
            },
            {
              "internalType": "address",
              "name": "proposed",
              "type": "address"
            },
            {
              "internalType": "uint8",
              "name": "ProposalStatus",
              "type": "uint8"
            },
            {
              "internalType": "uint256",
              "name": "stake",
              "type": "uint256"
            },
            {
              "internalType": "uint256",
              "name": "gift",
              "type": "uint256"
            },
            {
              "internalType": "uint256",
              "name": "FamilyBudget",
              "type": "uint256"
            },
            {
              "internalType": "uint256",
              "name": "marryDate",
              "type": "uint256"
            }
          ],
          "internalType": "struct WavePortal3.Wave",
          "name": "",
          "type": "tuple"
        }
      ],
      "stateMutability": "view",
      "type": "function"
    },
    {
      "inputs": [],
      "name": "checkIfUserHasProposed",
      "outputs": [
        {
          "components": [
            {
              "internalType": "uint256",
              "name": "id",
              "type": "uint256"
            },
            {
              "internalType": "address",
              "name": "waver",
              "type": "address"
            },
            {
              "internalType": "address",
              "name": "proposed",
              "type": "address"
            },
            {
              "internalType": "uint8",
              "name": "ProposalStatus",
              "type": "uint8"
            },
            {
              "internalType": "uint256",
              "name": "stake",
              "type": "uint256"
            },
            {
              "internalType": "uint256",
              "name": "gift",
              "type": "uint256"
            },
            {
              "internalType": "uint256",
              "name": "FamilyBudget",
              "type": "uint256"
            },
            {
              "internalType": "uint256",
              "name": "marryDate",
              "type": "uint256"
            }
          ],
          "internalType": "struct WavePortal3.Wave",
          "name": "",
          "type": "tuple"
        }
      ],
      "stateMutability": "view",
      "type": "function"
    },
    {
      "inputs": [],
      "name": "claimToken",
      "outputs": [],
      "stateMutability": "nonpayable",
      "type": "function"
    },
    {
      "inputs": [
        {
          "internalType": "address",
          "name": "",
          "type": "address"
        }
      ],
      "name": "claimtimer",
      "outputs": [
        {
          "internalType": "uint256",
          "name": "",
          "type": "uint256"
        }
      ],
      "stateMutability": "view",
      "type": "function"
    },
    {
      "inputs": [
        {
          "internalType": "string",
          "name": "_message",
          "type": "string"
        },
        {
          "internalType": "uint8",
          "name": "_votetype",
          "type": "uint8"
        },
        {
          "internalType": "uint256",
          "name": "_voteends",
          "type": "uint256"
        },
        {
          "internalType": "uint256",
          "name": "_numTokens",
          "type": "uint256"
        },
        {
          "internalType": "address",
          "name": "_receiver",
          "type": "address"
        },
        {
          "internalType": "uint256",
          "name": "_amount",
          "type": "uint256"
        }
      ],
      "name": "createProposal",
      "outputs": [],
      "stateMutability": "nonpayable",
      "type": "function"
    },
    {
      "inputs": [],
      "name": "decimals",
      "outputs": [
        {
          "internalType": "uint8",
          "name": "",
          "type": "uint8"
        }
      ],
      "stateMutability": "view",
      "type": "function"
    },
    {
      "inputs": [
        {
          "internalType": "address",
          "name": "spender",
          "type": "address"
        },
        {
          "internalType": "uint256",
          "name": "subtractedValue",
          "type": "uint256"
        }
      ],
      "name": "decreaseAllowance",
      "outputs": [
        {
          "internalType": "bool",
          "name": "",
          "type": "bool"
        }
      ],
      "stateMutability": "nonpayable",
      "type": "function"
    },
    {
      "inputs": [
        {
          "internalType": "uint256",
          "name": "_id",
          "type": "uint256"
        },
        {
          "internalType": "uint256",
          "name": "_numTokens",
          "type": "uint256"
        }
      ],
      "name": "disagreeVoting",
      "outputs": [],
      "stateMutability": "nonpayable",
      "type": "function"
    },
    {
      "inputs": [
        {
          "internalType": "uint256",
          "name": "_id",
          "type": "uint256"
        }
      ],
      "name": "endVotingByTime",
      "outputs": [],
      "stateMutability": "nonpayable",
      "type": "function"
    },
    {
      "inputs": [],
      "name": "execute",
      "outputs": [],
      "stateMutability": "payable",
      "type": "function"
    },
    {
      "inputs": [
        {
          "internalType": "uint256",
          "name": "_id",
          "type": "uint256"
        }
      ],
      "name": "executeVoting",
      "outputs": [],
      "stateMutability": "payable",
      "type": "function"
    },
    {
      "inputs": [],
      "name": "getBalance",
      "outputs": [
        {
          "internalType": "uint256",
          "name": "",
          "type": "uint256"
        },
        {
          "internalType": "uint256",
          "name": "",
          "type": "uint256"
        }
      ],
      "stateMutability": "view",
      "type": "function"
    },
    {
      "inputs": [
        {
          "internalType": "address",
          "name": "waver",
          "type": "address"
        },
        {
          "internalType": "address",
          "name": "proposed",
          "type": "address"
        }
      ],
      "name": "getVotingStatuses",
      "outputs": [
        {
          "components": [
            {
              "internalType": "uint256",
              "name": "id",
              "type": "uint256"
            },
            {
              "internalType": "address",
              "name": "proposer",
              "type": "address"
            },
            {
              "internalType": "address",
              "name": "responder",
              "type": "address"
            },
            {
              "internalType": "uint8",
              "name": "voteType",
              "type": "uint8"
            },
            {
              "internalType": "uint256",
              "name": "tokenVoteQuantity",
              "type": "uint256"
            },
            {
              "internalType": "string",
              "name": "voteProposalText",
              "type": "string"
            },
            {
              "internalType": "uint8",
              "name": "voteStatus",
              "type": "uint8"
            },
            {
              "internalType": "uint256",
              "name": "timestamp",
              "type": "uint256"
            },
            {
              "internalType": "uint256",
              "name": "voteends",
              "type": "uint256"
            },
            {
              "internalType": "address",
              "name": "receiver",
              "type": "address"
            },
            {
              "internalType": "uint256",
              "name": "amount",
              "type": "uint256"
            }
          ],
          "internalType": "struct WavePortal3.VoteProposal[]",
          "name": "",
          "type": "tuple[]"
        }
      ],
      "stateMutability": "view",
      "type": "function"
    },
    {
      "inputs": [
        {
          "internalType": "address",
          "name": "spender",
          "type": "address"
        },
        {
          "internalType": "uint256",
          "name": "addedValue",
          "type": "uint256"
        }
      ],
      "name": "increaseAllowance",
      "outputs": [
        {
          "internalType": "bool",
          "name": "",
          "type": "bool"
        }
      ],
      "stateMutability": "nonpayable",
      "type": "function"
    },
    {
      "inputs": [
        {
          "internalType": "address",
          "name": "forwarder",
          "type": "address"
        }
      ],
      "name": "isTrustedForwarder",
      "outputs": [
        {
          "internalType": "bool",
          "name": "",
          "type": "bool"
        }
      ],
      "stateMutability": "view",
      "type": "function"
    },
    {
      "inputs": [],
      "name": "name",
      "outputs": [
        {
          "internalType": "string",
          "name": "",
          "type": "string"
        }
      ],
      "stateMutability": "view",
      "type": "function"
    },
    {
      "inputs": [
        {
          "internalType": "address",
          "name": "",
          "type": "address"
        },
        {
          "internalType": "address",
          "name": "",
          "type": "address"
        }
      ],
      "name": "nftminted",
      "outputs": [
        {
          "internalType": "bool",
          "name": "",
          "type": "bool"
        }
      ],
      "stateMutability": "view",
      "type": "function"
    },
    {
      "inputs": [],
      "name": "policyDays",
      "outputs": [
        {
          "internalType": "uint256",
          "name": "",
          "type": "uint256"
        }
      ],
      "stateMutability": "view",
      "type": "function"
    },
    {
      "inputs": [],
      "name": "saleCap",
      "outputs": [
        {
          "internalType": "uint256",
          "name": "",
          "type": "uint256"
        }
      ],
      "stateMutability": "view",
      "type": "function"
    },
    {
      "inputs": [],
      "name": "symbol",
      "outputs": [
        {
          "internalType": "string",
          "name": "",
          "type": "string"
        }
      ],
      "stateMutability": "view",
      "type": "function"
    },
    {
      "inputs": [],
      "name": "totalSupply",
      "outputs": [
        {
          "internalType": "uint256",
          "name": "",
          "type": "uint256"
        }
      ],
      "stateMutability": "view",
      "type": "function"
    },
    {
      "inputs": [
        {
          "internalType": "address",
          "name": "to",
          "type": "address"
        },
        {
          "internalType": "uint256",
          "name": "amount",
          "type": "uint256"
        }
      ],
      "name": "transfer",
      "outputs": [
        {
          "internalType": "bool",
          "name": "",
          "type": "bool"
        }
      ],
      "stateMutability": "nonpayable",
      "type": "function"
    },
    {
      "inputs": [
        {
          "internalType": "address",
          "name": "from",
          "type": "address"
        },
        {
          "internalType": "address",
          "name": "to",
          "type": "address"
        },
        {
          "internalType": "uint256",
          "name": "amount",
          "type": "uint256"
        }
      ],
      "name": "transferFrom",
      "outputs": [
        {
          "internalType": "bool",
          "name": "",
          "type": "bool"
        }
      ],
      "stateMutability": "nonpayable",
      "type": "function"
    },
    {
      "inputs": [
        {
          "internalType": "address",
          "name": "_proposed",
          "type": "address"
        },
        {
          "internalType": "uint256",
          "name": "_stake",
          "type": "uint256"
        },
        {
          "internalType": "uint256",
          "name": "_gift",
          "type": "uint256"
        },
        {
          "internalType": "string",
          "name": "_message",
          "type": "string"
        },
        {
          "internalType": "uint256",
          "name": "_hasensWaver",
          "type": "uint256"
        }
      ],
      "name": "wave",
      "outputs": [],
      "stateMutability": "nonpayable",
      "type": "function"
    },
    {
      "inputs": [],
      "name": "withdrawcomission",
      "outputs": [],
      "stateMutability": "nonpayable",
      "type": "function"
    },
    {
      "stateMutability": "payable",
      "type": "receive"
    }
  ],
  "bytecode": "0x60a0604052633b9aca006008556040516200638e3803806200638e833981810160405281019062000031919062000309565b806040518060400160405280600b81526020017f43727970746f4d617272790000000000000000000000000000000000000000008152506040518060400160405280600381526020017f4c4f5600000000000000000000000000000000000000000000000000000000008152508160039080519060200190620000b6929190620001db565b508060049080519060200190620000cf929190620001db565b50505060016005819055508073ffffffffffffffffffffffffffffffffffffffff1660808173ffffffffffffffffffffffffffffffffffffffff16815250505060016006600082825462000124919062000374565b9250508190555033600960006101000a81548173ffffffffffffffffffffffffffffffffffffffff021916908373ffffffffffffffffffffffffffffffffffffffff1602179055506276a700600b8190555073b7826559f4d0244840708907fa08f089400d2679600c60006101000a81548173ffffffffffffffffffffffffffffffffffffffff021916908373ffffffffffffffffffffffffffffffffffffffff160217905550612710600d819055505062000436565b828054620001e99062000400565b90600052602060002090601f0160209004810192826200020d576000855562000259565b82601f106200022857805160ff191683800117855562000259565b8280016001018555821562000259579182015b82811115620002585782518255916020019190600101906200023b565b5b5090506200026891906200026c565b5090565b5b80821115620002875760008160009055506001016200026d565b5090565b600080fd5b600073ffffffffffffffffffffffffffffffffffffffff82169050919050565b6000620002bd8262000290565b9050919050565b6000620002d182620002b0565b9050919050565b620002e381620002c4565b8114620002ef57600080fd5b50565b6000815190506200030381620002d8565b92915050565b6000602082840312156200032257620003216200028b565b5b60006200033284828501620002f2565b91505092915050565b6000819050919050565b7f4e487b7100000000000000000000000000000000000000000000000000000000600052601160045260246000fd5b600062000381826200033b565b91506200038e836200033b565b9250827fffffffffffffffffffffffffffffffffffffffffffffffffffffffffffffffff03821115620003c657620003c562000345565b5b828201905092915050565b7f4e487b7100000000000000000000000000000000000000000000000000000000600052602260045260246000fd5b600060028204905060018216806200041957607f821691505b6020821081141562000430576200042f620003d1565b5b50919050565b608051615f3c620004526000396000611d6a0152615f3c6000f3fe6080604052600436106102135760003560e01c8063572b6c051161011857806395d89b41116100a0578063cd4a338a1161006f578063cd4a338a146107ac578063dd62ed3e146107d5578063ea8a1af014610812578063f3d9124314610829578063ff9898351461084557610277565b806395d89b41146106dc578063a457c2d714610707578063a9059cbb14610744578063b77a88c91461078157610277565b806370039e7c116100e757806370039e7c1461063957806370a08231146106435780637f7b3ee6146106805780638e4ebf40146106a957806393b45dad146106d257610277565b8063572b6c051461059e5780635c8ab787146105db5780636146195414610618578063614cae621461062257610277565b8063395093511161019b5780634760b84e1161016a5780634760b84e146104a75780634d8c0c35146104d057806352f7991c1461050d5780635347b6f214610538578063549bdd6e1461057557610277565b8063395093511461042057806343a7c5a01461045d5780634451d89f14610467578063460629111461047e57610277565b806318160ddd116101e257806318160ddd1461033b5780631a5728c41461036657806323b872dd1461038f578063313ce567146103cc5780633242b85b146103f757610277565b806306fdde031461027c578063078fd9ea146102a7578063095ea7b3146102d257806312065fe01461030f57610277565b36610277576000341161022557600080fd5b3373ffffffffffffffffffffffffffffffffffffffff167f454558f821e516381f5735afdf706c1069e066bc2f6c62ac498eb191dc57b428423460405161026d9291906148df565b60405180910390a2005b600080fd5b34801561028857600080fd5b50610291610870565b60405161029e91906149a1565b60405180910390f35b3480156102b357600080fd5b506102bc610902565b6040516102c991906149c3565b60405180910390f35b3480156102de57600080fd5b506102f960048036038101906102f49190614a7c565b610908565b6040516103069190614ad7565b60405180910390f35b34801561031b57600080fd5b5061032461092b565b6040516103329291906148df565b60405180910390f35b34801561034757600080fd5b5061035061093a565b60405161035d91906149c3565b60405180910390f35b34801561037257600080fd5b5061038d60048036038101906103889190614af2565b610944565b005b34801561039b57600080fd5b506103b660048036038101906103b19190614b1f565b610aa4565b6040516103c39190614ad7565b60405180910390f35b3480156103d857600080fd5b506103e1610ad3565b6040516103ee9190614b8e565b60405180910390f35b34801561040357600080fd5b5061041e60048036038101906104199190614d0a565b610adc565b005b34801561042c57600080fd5b5061044760048036038101906104429190614a7c565b6110c7565b6040516104549190614ad7565b60405180910390f35b610465611171565b005b34801561047357600080fd5b5061047c61123e565b005b34801561048a57600080fd5b506104a560048036038101906104a09190614af2565b6113cc565b005b3480156104b357600080fd5b506104ce60048036038101906104c99190614db3565b61154b565b005b3480156104dc57600080fd5b506104f760048036038101906104f29190614e06565b6115f9565b6040516105049190614ad7565b60405180910390f35b34801561051957600080fd5b50610522611628565b60405161052f9190614f15565b60405180910390f35b34801561054457600080fd5b5061055f600480360381019061055a9190614e06565b6117b0565b60405161056c919061512c565b60405180910390f35b34801561058157600080fd5b5061059c60048036038101906105979190614af2565b611c06565b005b3480156105aa57600080fd5b506105c560048036038101906105c0919061514e565b611d66565b6040516105d29190614ad7565b60405180910390f35b3480156105e757600080fd5b5061060260048036038101906105fd919061514e565b611dbe565b60405161060f91906149c3565b60405180910390f35b610620611dd6565b005b34801561062e57600080fd5b5061063761208d565b005b6106416120fd565b005b34801561064f57600080fd5b5061066a6004803603810190610665919061514e565b6124dd565b60405161067791906149c3565b60405180910390f35b34801561068c57600080fd5b506106a760048036038101906106a2919061517b565b612525565b005b3480156106b557600080fd5b506106d060048036038101906106cb91906151ea565b61274a565b005b6106da6129ca565b005b3480156106e857600080fd5b506106f1612ac6565b6040516106fe91906149a1565b60405180910390f35b34801561071357600080fd5b5061072e60048036038101906107299190614a7c565b612b58565b60405161073b9190614ad7565b60405180910390f35b34801561075057600080fd5b5061076b60048036038101906107669190614a7c565b612c42565b6040516107789190614ad7565b60405180910390f35b34801561078d57600080fd5b50610796612c65565b6040516107a39190614f15565b60405180910390f35b3480156107b857600080fd5b506107d360048036038101906107ce919061522a565b612ded565b005b3480156107e157600080fd5b506107fc60048036038101906107f79190614e06565b613218565b60405161080991906149c3565b60405180910390f35b34801561081e57600080fd5b5061082761329f565b005b610843600480360381019061083e9190614af2565b61340a565b005b34801561085157600080fd5b5061085a613abb565b60405161086791906149c3565b60405180910390f35b60606003805461087f906152f0565b80601f01602080910402602001604051908101604052809291908181526020018280546108ab906152f0565b80156108f85780601f106108cd576101008083540402835291602001916108f8565b820191906000526020600020905b8154815290600101906020018083116108db57829003601f168201915b5050505050905090565b600d5481565b600080610913613ac1565b9050610920818585613ad0565b600191505092915050565b60008047600a54915091509091565b6000600254905090565b600061094e613ac1565b905060006015600084815260200190815260200160002090508173ffffffffffffffffffffffffffffffffffffffff168160020160009054906101000a900473ffffffffffffffffffffffffffffffffffffffff1673ffffffffffffffffffffffffffffffffffffffff161480156109da575060018160050160009054906101000a900460ff1660ff16145b6109e357600080fd5b60028160050160006101000a81548160ff021916908360ff1602179055508173ffffffffffffffffffffffffffffffffffffffff168160010160009054906101000a900473ffffffffffffffffffffffffffffffffffffffff1673ffffffffffffffffffffffffffffffffffffffff167f264aa01f1aad7e9bfba5ebee0a4a69d1193beb5d509f12d1dc4464c52b5e9479858460050160009054906101000a900460ff1642604051610a9793929190615322565b60405180910390a3505050565b600080610aaf613ac1565b9050610abc858285613c9b565b610ac7858585613d27565b60019150509392505050565b60006012905090565b6000610ae6613fa8565b905060006011600083815260200190815260200160002090506000610b09613ac1565b905060048260020160149054906101000a900460ff1660ff16148015610b375750610b33816124dd565b8611155b610b4057600080fd5b60028860ff161415610ba357600073ffffffffffffffffffffffffffffffffffffffff168573ffffffffffffffffffffffffffffffffffffffff1614158015610b895750600084115b610b9257600080fd5b600b5487610ba09190615388565b96505b60038860ff161415610bdd5742600b548360060154610bc29190615388565b10610bcc57600080fd5b600b5487610bda9190615388565b96505b610be781876140da565b60008173ffffffffffffffffffffffffffffffffffffffff168360010160009054906101000a900473ffffffffffffffffffffffffffffffffffffffff1673ffffffffffffffffffffffffffffffffffffffff161415610c6d578260020160009054906101000a900473ffffffffffffffffffffffffffffffffffffffff169050610cee565b8173ffffffffffffffffffffffffffffffffffffffff168360020160009054906101000a900473ffffffffffffffffffffffffffffffffffffffff1673ffffffffffffffffffffffffffffffffffffffff161415610ced578260010160009054906101000a900473ffffffffffffffffffffffffffffffffffffffff1690505b5b601460008460010160009054906101000a900473ffffffffffffffffffffffffffffffffffffffff1673ffffffffffffffffffffffffffffffffffffffff1673ffffffffffffffffffffffffffffffffffffffff16815260200190815260200160002060008460020160009054906101000a900473ffffffffffffffffffffffffffffffffffffffff1673ffffffffffffffffffffffffffffffffffffffff1673ffffffffffffffffffffffffffffffffffffffff168152602001908152602001600020600654908060018154018082558091505060019003906000526020600020016000909190919091505560405180610160016040528060065481526020018373ffffffffffffffffffffffffffffffffffffffff1681526020018273ffffffffffffffffffffffffffffffffffffffff1681526020018a60ff1681526020018881526020018b8152602001600160ff1681526020014281526020018981526020018773ffffffffffffffffffffffffffffffffffffffff168152602001868152506015600060065481526020019081526020016000206000820151816000015560208201518160010160006101000a81548173ffffffffffffffffffffffffffffffffffffffff021916908373ffffffffffffffffffffffffffffffffffffffff16021790555060408201518160020160006101000a81548173ffffffffffffffffffffffffffffffffffffffff021916908373ffffffffffffffffffffffffffffffffffffffff16021790555060608201518160020160146101000a81548160ff021916908360ff1602179055506080820151816003015560a0820151816004019080519060200190610f669291906146ec565b5060c08201518160050160006101000a81548160ff021916908360ff16021790555060e0820151816006015561010082015181600701556101208201518160080160006101000a81548173ffffffffffffffffffffffffffffffffffffffff021916908373ffffffffffffffffffffffffffffffffffffffff16021790555061014082015181600901559050506001600660008282546110069190615388565b92505081905550660aa87bee538000600a60008282546110269190615388565b92505081905550660aa87bee53800083600501600082825461104891906153de565b925050819055508073ffffffffffffffffffffffffffffffffffffffff168273ffffffffffffffffffffffffffffffffffffffff167f264aa01f1aad7e9bfba5ebee0a4a69d1193beb5d509f12d1dc4464c52b5e94796006546001426040516110b393929190615457565b60405180910390a350505050505050505050565b6000806110d2613ac1565b9050611166818585600160008673ffffffffffffffffffffffffffffffffffffffff1673ffffffffffffffffffffffffffffffffffffffff16815260200190815260200160002060008973ffffffffffffffffffffffffffffffffffffffff1673ffffffffffffffffffffffffffffffffffffffff168152602001908152602001600020546111619190615388565b613ad0565b600191505092915050565b60003411801561118357506000600d54115b61118c57600080fd5b34600a600082825461119e9190615388565b925050819055506111c133662386f26fc10000346111bc91906154bd565b6142b1565b662386f26fc10000346111d491906154bd565b600d60008282546111e591906153de565b925050819055503373ffffffffffffffffffffffffffffffffffffffff167f454558f821e516381f5735afdf706c1069e066bc2f6c62ac498eb191dc57b42842346040516112349291906148df565b60405180910390a2565b60026005541415611284576040517f08c379a000000000000000000000000000000000000000000000000000000000815260040161127b9061553a565b60405180910390fd5b60026005819055506000611296613ac1565b905060006112a2613fa8565b9050600060116000838152602001908152602001600020905042600b54601260008673ffffffffffffffffffffffffffffffffffffffff1673ffffffffffffffffffffffffffffffffffffffff168152602001908152602001600020546113099190615388565b1061131357600080fd5b6000662386f26fc10000826005015461132c91906154bd565b905066038d7ea4c68000600a60008282546113479190615388565b9250508190555066038d7ea4c6800082600501600082825461136991906153de565b9250508190555042601260008673ffffffffffffffffffffffffffffffffffffffff1673ffffffffffffffffffffffffffffffffffffffff168152602001908152602001600020819055506113be84826142b1565b505050506001600581905550565b60006113d6613ac1565b9050600060156000848152602001908152602001600020905042816007015482600601546114049190615388565b1061140e57600080fd5b8173ffffffffffffffffffffffffffffffffffffffff168160010160009054906101000a900473ffffffffffffffffffffffffffffffffffffffff1673ffffffffffffffffffffffffffffffffffffffff16148015611481575060018160050160009054906101000a900460ff1660ff16145b61148a57600080fd5b60028160050160006101000a81548160ff021916908360ff1602179055508173ffffffffffffffffffffffffffffffffffffffff168160010160009054906101000a900473ffffffffffffffffffffffffffffffffffffffff1673ffffffffffffffffffffffffffffffffffffffff167f264aa01f1aad7e9bfba5ebee0a4a69d1193beb5d509f12d1dc4464c52b5e9479858460050160009054906101000a900460ff164260405161153e93929190615322565b60405180910390a3505050565b600960009054906101000a900473ffffffffffffffffffffffffffffffffffffffff1673ffffffffffffffffffffffffffffffffffffffff163373ffffffffffffffffffffffffffffffffffffffff16146115a557600080fd5b82600b8190555080600d8190555081600c60006101000a81548173ffffffffffffffffffffffffffffffffffffffff021916908373ffffffffffffffffffffffffffffffffffffffff160217905550505050565b60136020528160005260406000206020528060005260406000206000915091509054906101000a900460ff1681565b611630614772565b6000600f60003373ffffffffffffffffffffffffffffffffffffffff1673ffffffffffffffffffffffffffffffffffffffff168152602001908152602001600020549050600081111561179f576011600082815260200190815260200160002060405180610100016040529081600082015481526020016001820160009054906101000a900473ffffffffffffffffffffffffffffffffffffffff1673ffffffffffffffffffffffffffffffffffffffff1673ffffffffffffffffffffffffffffffffffffffff1681526020016002820160009054906101000a900473ffffffffffffffffffffffffffffffffffffffff1673ffffffffffffffffffffffffffffffffffffffff1673ffffffffffffffffffffffffffffffffffffffff1681526020016002820160149054906101000a900460ff1660ff1660ff1681526020016003820154815260200160048201548152602001600582015481526020016006820154815250509150506117ad565b6117a7614772565b80925050505b90565b60606000601460008573ffffffffffffffffffffffffffffffffffffffff1673ffffffffffffffffffffffffffffffffffffffff16815260200190815260200160002060008473ffffffffffffffffffffffffffffffffffffffff1673ffffffffffffffffffffffffffffffffffffffff1681526020019081526020016000208054905067ffffffffffffffff81111561184d5761184c614bb3565b5b60405190808252806020026020018201604052801561188657816020015b6118736147e6565b81526020019060019003908161186b5790505b50905060005b601460008673ffffffffffffffffffffffffffffffffffffffff1673ffffffffffffffffffffffffffffffffffffffff16815260200190815260200160002060008573ffffffffffffffffffffffffffffffffffffffff1673ffffffffffffffffffffffffffffffffffffffff16815260200190815260200160002080549050811015611bfb5760156000601460008873ffffffffffffffffffffffffffffffffffffffff1673ffffffffffffffffffffffffffffffffffffffff16815260200190815260200160002060008773ffffffffffffffffffffffffffffffffffffffff1673ffffffffffffffffffffffffffffffffffffffff16815260200190815260200160002083815481106119a5576119a461555a565b5b9060005260206000200154815260200190815260200160002060405180610160016040529081600082015481526020016001820160009054906101000a900473ffffffffffffffffffffffffffffffffffffffff1673ffffffffffffffffffffffffffffffffffffffff1673ffffffffffffffffffffffffffffffffffffffff1681526020016002820160009054906101000a900473ffffffffffffffffffffffffffffffffffffffff1673ffffffffffffffffffffffffffffffffffffffff1673ffffffffffffffffffffffffffffffffffffffff1681526020016002820160149054906101000a900460ff1660ff1660ff16815260200160038201548152602001600482018054611ab7906152f0565b80601f0160208091040260200160405190810160405280929190818152602001828054611ae3906152f0565b8015611b305780601f10611b0557610100808354040283529160200191611b30565b820191906000526020600020905b815481529060010190602001808311611b1357829003601f168201915b505050505081526020016005820160009054906101000a900460ff1660ff1660ff16815260200160068201548152602001600782015481526020016008820160009054906101000a900473ffffffffffffffffffffffffffffffffffffffff1673ffffffffffffffffffffffffffffffffffffffff1673ffffffffffffffffffffffffffffffffffffffff168152602001600982015481525050828281518110611bdd57611bdc61555a565b5b60200260200101819052508080611bf390615589565b91505061188c565b508091505092915050565b6000611c10613ac1565b905060006015600084815260200190815260200160002090508173ffffffffffffffffffffffffffffffffffffffff168160010160009054906101000a900473ffffffffffffffffffffffffffffffffffffffff1673ffffffffffffffffffffffffffffffffffffffff16148015611c9c575060018160050160009054906101000a900460ff1660ff16145b611ca557600080fd5b60048160050160006101000a81548160ff021916908360ff1602179055508173ffffffffffffffffffffffffffffffffffffffff168160010160009054906101000a900473ffffffffffffffffffffffffffffffffffffffff1673ffffffffffffffffffffffffffffffffffffffff167f264aa01f1aad7e9bfba5ebee0a4a69d1193beb5d509f12d1dc4464c52b5e9479858460050160009054906101000a900460ff1642604051611d5993929190615322565b60405180910390a3505050565b60007f000000000000000000000000000000000000000000000000000000000000000073ffffffffffffffffffffffffffffffffffffffff168273ffffffffffffffffffffffffffffffffffffffff16149050919050565b60126020528060005260406000206000915090505481565b60026005541415611e1c576040517f08c379a0000000000000000000000000000000000000000000000000000000008152600401611e139061553a565b60405180910390fd5b60026005819055506000600e60003373ffffffffffffffffffffffffffffffffffffffff1673ffffffffffffffffffffffffffffffffffffffff168152602001908152602001600020549050600060116000838152602001908152602001600020905060038160020160149054906101000a900460ff1660ff1614611ea057600080fd5b60085481600301548260040154611eb79190615388565b611ec191906155d2565b341015611ecd57600080fd5b6064600134611edc91906155d2565b611ee691906154bd565b600a6000828254611ef79190615388565b925050819055506064606334611f0d91906155d2565b611f1791906154bd565b8160050181905550600081600401541115611fa8576008548160040154611f3e91906155d2565b816005016000828254611f5191906153de565b9250508190555060006008548260040154611f6c91906155d2565b905060008260040181905550611fa68260020160009054906101000a900473ffffffffffffffffffffffffffffffffffffffff1682614411565b505b60048160020160146101000a81548160ff021916908360ff1602179055504281600601819055508060020160009054906101000a900473ffffffffffffffffffffffffffffffffffffffff1673ffffffffffffffffffffffffffffffffffffffff168160010160009054906101000a900473ffffffffffffffffffffffffffffffffffffffff1673ffffffffffffffffffffffffffffffffffffffff167f2dba7582d324296c3a561ea9c15d2ce23e15996e5661d4cddfdb617c672c8571844260046040516120799392919061568d565b60405180910390a350506001600581905550565b3373ffffffffffffffffffffffffffffffffffffffff16600960009054906101000a900473ffffffffffffffffffffffffffffffffffffffff1673ffffffffffffffffffffffffffffffffffffffff16146120e757600080fd5b6120f333600a54614411565b6000600a81905550565b6000341161210a57600080fd5b6000600c60009054906101000a900473ffffffffffffffffffffffffffffffffffffffff169050600061213b613fa8565b9050600060116000838152602001908152602001600020905060048160020160149054906101000a900460ff1660ff1614801561224e575060011515601360008360010160009054906101000a900473ffffffffffffffffffffffffffffffffffffffff1673ffffffffffffffffffffffffffffffffffffffff1673ffffffffffffffffffffffffffffffffffffffff16815260200190815260200160002060008360020160009054906101000a900473ffffffffffffffffffffffffffffffffffffffff1673ffffffffffffffffffffffffffffffffffffffff1673ffffffffffffffffffffffffffffffffffffffff16815260200190815260200160002060009054906101000a900460ff16151514155b61225757600080fd5b6001601360008360010160009054906101000a900473ffffffffffffffffffffffffffffffffffffffff1673ffffffffffffffffffffffffffffffffffffffff1673ffffffffffffffffffffffffffffffffffffffff16815260200190815260200160002060008360020160009054906101000a900473ffffffffffffffffffffffffffffffffffffffff1673ffffffffffffffffffffffffffffffffffffffff1673ffffffffffffffffffffffffffffffffffffffff16815260200190815260200160002060006101000a81548160ff02191690831515021790555034600a60008282546123469190615388565b925050819055508273ffffffffffffffffffffffffffffffffffffffff1663671541f18260010160009054906101000a900473ffffffffffffffffffffffffffffffffffffffff16601060008560010160009054906101000a900473ffffffffffffffffffffffffffffffffffffffff1673ffffffffffffffffffffffffffffffffffffffff1673ffffffffffffffffffffffffffffffffffffffff168152602001908152602001600020548460020160009054906101000a900473ffffffffffffffffffffffffffffffffffffffff16601060008760020160009054906101000a900473ffffffffffffffffffffffffffffffffffffffff1673ffffffffffffffffffffffffffffffffffffffff1673ffffffffffffffffffffffffffffffffffffffff16815260200190815260200160002054866005015487600001546040518763ffffffff1660e01b81526004016124a6969594939291906156e6565b600060405180830381600087803b1580156124c057600080fd5b505af11580156124d4573d6000803e3d6000fd5b50505050505050565b60008060008373ffffffffffffffffffffffffffffffffffffffff1673ffffffffffffffffffffffffffffffffffffffff168152602001908152602001600020549050919050565b600061252f613ac1565b90506000600f60008373ffffffffffffffffffffffffffffffffffffffff1673ffffffffffffffffffffffffffffffffffffffff168152602001908152602001600020549050600060116000838152602001908152602001600020905060018160020160149054906101000a900460ff1660ff16146125ad57600080fd5b600185141561261d5760038160020160146101000a81548160ff021916908360ff16021790555083601060008573ffffffffffffffffffffffffffffffffffffffff1673ffffffffffffffffffffffffffffffffffffffff1681526020019081526020016000208190555061268e565b60008160020160146101000a81548160ff021916908360ff16021790555061268d8160010160009054906101000a900473ffffffffffffffffffffffffffffffffffffffff168260020160009054906101000a900473ffffffffffffffffffffffffffffffffffffffff1661448c565b5b8060020160009054906101000a900473ffffffffffffffffffffffffffffffffffffffff1673ffffffffffffffffffffffffffffffffffffffff168160010160009054906101000a900473ffffffffffffffffffffffffffffffffffffffff1673ffffffffffffffffffffffffffffffffffffffff167f2dba7582d324296c3a561ea9c15d2ce23e15996e5661d4cddfdb617c672c8571848942600260405161273a9493929190615782565b60405180910390a3505050505050565b6000612754613ac1565b90506000601560008581526020019081526020016000209050612776826124dd565b831061278157600080fd5b8173ffffffffffffffffffffffffffffffffffffffff168160020160009054906101000a900473ffffffffffffffffffffffffffffffffffffffff1673ffffffffffffffffffffffffffffffffffffffff161480156127f4575060018160050160009054906101000a900460ff1660ff16145b6127fd57600080fd5b61280782846140da565b60018160020160149054906101000a900460ff1660ff1614801561283a575080600301546001846128389190615388565b115b156128625760038160050160006101000a81548160ff021916908360ff160217905550612926565b60028160020160149054906101000a900460ff1660ff1614801561289d575061288e816003015461462e565b60018461289b9190615388565b115b156128c55760038160050160006101000a81548160ff021916908360ff160217905550612925565b60038160020160149054906101000a900460ff1660ff1614156129055760038160050160006101000a81548160ff021916908360ff160217905550612924565b60028160050160006101000a81548160ff021916908360ff1602179055505b5b5b8173ffffffffffffffffffffffffffffffffffffffff168160010160009054906101000a900473ffffffffffffffffffffffffffffffffffffffff1673ffffffffffffffffffffffffffffffffffffffff167f264aa01f1aad7e9bfba5ebee0a4a69d1193beb5d509f12d1dc4464c52b5e9479868460050160009054906101000a900460ff16426040516129bc93929190615322565b60405180910390a350505050565b60006129d4613fa8565b9050600060116000838152602001908152602001600020905060048160020160149054906101000a900460ff1660ff1614612a0e57600080fd5b6064600134612a1d91906155d2565b612a2791906154bd565b600a6000828254612a389190615388565b925050819055506064606334612a4e91906155d2565b612a5891906154bd565b816005016000828254612a6b9190615388565b925050819055503373ffffffffffffffffffffffffffffffffffffffff167f454558f821e516381f5735afdf706c1069e066bc2f6c62ac498eb191dc57b4284234604051612aba9291906148df565b60405180910390a25050565b606060048054612ad5906152f0565b80601f0160208091040260200160405190810160405280929190818152602001828054612b01906152f0565b8015612b4e5780601f10612b2357610100808354040283529160200191612b4e565b820191906000526020600020905b815481529060010190602001808311612b3157829003601f168201915b5050505050905090565b600080612b63613ac1565b90506000600160008373ffffffffffffffffffffffffffffffffffffffff1673ffffffffffffffffffffffffffffffffffffffff16815260200190815260200160002060008673ffffffffffffffffffffffffffffffffffffffff1673ffffffffffffffffffffffffffffffffffffffff16815260200190815260200160002054905083811015612c29576040517f08c379a0000000000000000000000000000000000000000000000000000000008152600401612c2090615840565b60405180910390fd5b612c368286868403613ad0565b60019250505092915050565b600080612c4d613ac1565b9050612c5a818585613d27565b600191505092915050565b612c6d614772565b6000600e60003373ffffffffffffffffffffffffffffffffffffffff1673ffffffffffffffffffffffffffffffffffffffff1681526020019081526020016000205490506000811115612ddc576011600082815260200190815260200160002060405180610100016040529081600082015481526020016001820160009054906101000a900473ffffffffffffffffffffffffffffffffffffffff1673ffffffffffffffffffffffffffffffffffffffff1673ffffffffffffffffffffffffffffffffffffffff1681526020016002820160009054906101000a900473ffffffffffffffffffffffffffffffffffffffff1673ffffffffffffffffffffffffffffffffffffffff1673ffffffffffffffffffffffffffffffffffffffff1681526020016002820160149054906101000a900460ff1660ff1660ff168152602001600382015481526020016004820154815260200160058201548152602001600682015481525050915050612dea565b612de4614772565b80925050505b90565b600160076000828254612e009190615388565b925050819055508473ffffffffffffffffffffffffffffffffffffffff163373ffffffffffffffffffffffffffffffffffffffff1614158015612e8257506000600e60003373ffffffffffffffffffffffffffffffffffffffff1673ffffffffffffffffffffffffffffffffffffffff16815260200190815260200160002054145b8015612ecd57506000600f60003373ffffffffffffffffffffffffffffffffffffffff1673ffffffffffffffffffffffffffffffffffffffff16815260200190815260200160002054145b8015612f1857506000600f60008773ffffffffffffffffffffffffffffffffffffffff1673ffffffffffffffffffffffffffffffffffffffff16815260200190815260200160002054145b8015612f6357506000600e60008773ffffffffffffffffffffffffffffffffffffffff1673ffffffffffffffffffffffffffffffffffffffff16815260200190815260200160002054145b612f6c57600080fd5b600754600e60003373ffffffffffffffffffffffffffffffffffffffff1673ffffffffffffffffffffffffffffffffffffffff16815260200190815260200160002081905550600754600f60008773ffffffffffffffffffffffffffffffffffffffff1673ffffffffffffffffffffffffffffffffffffffff1681526020019081526020016000208190555080601060003373ffffffffffffffffffffffffffffffffffffffff1673ffffffffffffffffffffffffffffffffffffffff1681526020019081526020016000208190555060405180610100016040528060075481526020013373ffffffffffffffffffffffffffffffffffffffff1681526020018673ffffffffffffffffffffffffffffffffffffffff168152602001600160ff1681526020018581526020018481526020016000815260200160008152506011600060075481526020019081526020016000206000820151816000015560208201518160010160006101000a81548173ffffffffffffffffffffffffffffffffffffffff021916908373ffffffffffffffffffffffffffffffffffffffff16021790555060408201518160020160006101000a81548173ffffffffffffffffffffffffffffffffffffffff021916908373ffffffffffffffffffffffffffffffffffffffff16021790555060608201518160020160146101000a81548160ff021916908360ff1602179055506080820151816003015560a0820151816004015560c0820151816005015560e082015181600601559050508473ffffffffffffffffffffffffffffffffffffffff163373ffffffffffffffffffffffffffffffffffffffff167f2dba7582d324296c3a561ea9c15d2ce23e15996e5661d4cddfdb617c672c8571600754854260016040516132099493929190615860565b60405180910390a35050505050565b6000600160008473ffffffffffffffffffffffffffffffffffffffff1673ffffffffffffffffffffffffffffffffffffffff16815260200190815260200160002060008373ffffffffffffffffffffffffffffffffffffffff1673ffffffffffffffffffffffffffffffffffffffff16815260200190815260200160002054905092915050565b60006132a9613fa8565b9050600060116000838152602001908152602001600020905060048160020160149054906101000a900460ff1660ff1614156132e457600080fd5b60028160020160146101000a81548160ff021916908360ff1602179055508060020160009054906101000a900473ffffffffffffffffffffffffffffffffffffffff1673ffffffffffffffffffffffffffffffffffffffff168160010160009054906101000a900473ffffffffffffffffffffffffffffffffffffffff1673ffffffffffffffffffffffffffffffffffffffff167f2dba7582d324296c3a561ea9c15d2ce23e15996e5661d4cddfdb617c672c8571844260036040516133ac939291906158e7565b60405180910390a36134068160010160009054906101000a900473ffffffffffffffffffffffffffffffffffffffff168260020160009054906101000a900473ffffffffffffffffffffffffffffffffffffffff1661448c565b5050565b60026005541415613450576040517f08c379a00000000000000000000000000000000000000000000000000000000081526004016134479061553a565b60405180910390fd5b60026005819055506000613462613ac1565b9050600060156000848152602001908152602001600020905060028160050160009054906101000a900460ff1660ff161461349c57600080fd5b8173ffffffffffffffffffffffffffffffffffffffff168160010160009054906101000a900473ffffffffffffffffffffffffffffffffffffffff1673ffffffffffffffffffffffffffffffffffffffff16148061354957508173ffffffffffffffffffffffffffffffffffffffff168160020160009054906101000a900473ffffffffffffffffffffffffffffffffffffffff1673ffffffffffffffffffffffffffffffffffffffff16145b61355257600080fd5b600061355c613fa8565b9050600060116000838152602001908152602001600020905060028360020160149054906101000a900460ff1660ff16141561370e57600060085484600901546135a691906155d2565b9050816005015481106135b857600080fd5b808260050160008282546135cc91906153de565b92505081905550600060646063836135e491906155d2565b6135ee91906154bd565b905060646001836135ff91906155d2565b61360991906154bd565b600a600082825461361a9190615388565b9250508190555060058560050160006101000a81548160ff021916908360ff16021790555061366d8560080160009054906101000a900473ffffffffffffffffffffffffffffffffffffffff1682614411565b8573ffffffffffffffffffffffffffffffffffffffff168560010160009054906101000a900473ffffffffffffffffffffffffffffffffffffffff1673ffffffffffffffffffffffffffffffffffffffff167f264aa01f1aad7e9bfba5ebee0a4a69d1193beb5d509f12d1dc4464c52b5e9479898860050160009054906101000a900460ff164260405161370393929190615322565b60405180910390a350505b60038360020160149054906101000a900460ff1660ff161415613aac5760646001826005015461373e91906155d2565b61374891906154bd565b600a60008282546137599190615388565b92505081905550600060c86063836005015461377591906155d2565b61377f91906154bd565b9050600082600501819055506137b98260010160009054906101000a900473ffffffffffffffffffffffffffffffffffffffff1682614411565b6137e78260020160009054906101000a900473ffffffffffffffffffffffffffffffffffffffff1682614411565b60011515601360008460010160009054906101000a900473ffffffffffffffffffffffffffffffffffffffff1673ffffffffffffffffffffffffffffffffffffffff1673ffffffffffffffffffffffffffffffffffffffff16815260200190815260200160002060008460020160009054906101000a900473ffffffffffffffffffffffffffffffffffffffff1673ffffffffffffffffffffffffffffffffffffffff1673ffffffffffffffffffffffffffffffffffffffff16815260200190815260200160002060009054906101000a900460ff16151514156139a6576000600c60009054906101000a900473ffffffffffffffffffffffffffffffffffffffff1690508073ffffffffffffffffffffffffffffffffffffffff1663197cf2008460010160009054906101000a900473ffffffffffffffffffffffffffffffffffffffff168560020160009054906101000a900473ffffffffffffffffffffffffffffffffffffffff1660006040518463ffffffff1660e01b815260040161397293929190615931565b600060405180830381600087803b15801561398c57600080fd5b505af11580156139a0573d6000803e3d6000fd5b50505050505b6139f88260010160009054906101000a900473ffffffffffffffffffffffffffffffffffffffff168360020160009054906101000a900473ffffffffffffffffffffffffffffffffffffffff1661448c565b8160020160009054906101000a900473ffffffffffffffffffffffffffffffffffffffff1673ffffffffffffffffffffffffffffffffffffffff168260010160009054906101000a900473ffffffffffffffffffffffffffffffffffffffff1673ffffffffffffffffffffffffffffffffffffffff167f2dba7582d324296c3a561ea9c15d2ce23e15996e5661d4cddfdb617c672c857188426006604051613aa2939291906159a3565b60405180910390a3505b50505050600160058190555050565b600b5481565b6000613acb6146a8565b905090565b600073ffffffffffffffffffffffffffffffffffffffff168373ffffffffffffffffffffffffffffffffffffffff161415613b40576040517f08c379a0000000000000000000000000000000000000000000000000000000008152600401613b3790615a5f565b60405180910390fd5b600073ffffffffffffffffffffffffffffffffffffffff168273ffffffffffffffffffffffffffffffffffffffff161415613bb0576040517f08c379a0000000000000000000000000000000000000000000000000000000008152600401613ba790615af1565b60405180910390fd5b80600160008573ffffffffffffffffffffffffffffffffffffffff1673ffffffffffffffffffffffffffffffffffffffff16815260200190815260200160002060008473ffffffffffffffffffffffffffffffffffffffff1673ffffffffffffffffffffffffffffffffffffffff168152602001908152602001600020819055508173ffffffffffffffffffffffffffffffffffffffff168373ffffffffffffffffffffffffffffffffffffffff167f8c5be1e5ebec7d5bd14f71427d1e84f3dd0314c0f7b2291e5b200ac8c7c3b92583604051613c8e91906149c3565b60405180910390a3505050565b6000613ca78484613218565b90507fffffffffffffffffffffffffffffffffffffffffffffffffffffffffffffffff8114613d215781811015613d13576040517f08c379a0000000000000000000000000000000000000000000000000000000008152600401613d0a90615b5d565b60405180910390fd5b613d208484848403613ad0565b5b50505050565b600073ffffffffffffffffffffffffffffffffffffffff168373ffffffffffffffffffffffffffffffffffffffff161415613d97576040517f08c379a0000000000000000000000000000000000000000000000000000000008152600401613d8e90615bef565b60405180910390fd5b600073ffffffffffffffffffffffffffffffffffffffff168273ffffffffffffffffffffffffffffffffffffffff161415613e07576040517f08c379a0000000000000000000000000000000000000000000000000000000008152600401613dfe90615c81565b60405180910390fd5b613e128383836146da565b60008060008573ffffffffffffffffffffffffffffffffffffffff1673ffffffffffffffffffffffffffffffffffffffff16815260200190815260200160002054905081811015613e98576040517f08c379a0000000000000000000000000000000000000000000000000000000008152600401613e8f90615d13565b60405180910390fd5b8181036000808673ffffffffffffffffffffffffffffffffffffffff1673ffffffffffffffffffffffffffffffffffffffff16815260200190815260200160002081905550816000808573ffffffffffffffffffffffffffffffffffffffff1673ffffffffffffffffffffffffffffffffffffffff1681526020019081526020016000206000828254613f2b9190615388565b925050819055508273ffffffffffffffffffffffffffffffffffffffff168473ffffffffffffffffffffffffffffffffffffffff167fddf252ad1be2c89b69c2b068fc378daa952ba7f163c4a11628f55a4df523b3ef84604051613f8f91906149c3565b60405180910390a3613fa28484846146df565b50505050565b6000806000613fb5613ac1565b90506000600e60008373ffffffffffffffffffffffffffffffffffffffff1673ffffffffffffffffffffffffffffffffffffffff16815260200190815260200160002054111561404657600e60008273ffffffffffffffffffffffffffffffffffffffff1673ffffffffffffffffffffffffffffffffffffffff1681526020019081526020016000205491506140d2565b6000600f60008373ffffffffffffffffffffffffffffffffffffffff1673ffffffffffffffffffffffffffffffffffffffff1681526020019081526020016000205411156140d157600f60008273ffffffffffffffffffffffffffffffffffffffff1673ffffffffffffffffffffffffffffffffffffffff1681526020019081526020016000205491505b5b819250505090565b600073ffffffffffffffffffffffffffffffffffffffff168273ffffffffffffffffffffffffffffffffffffffff16141561414a576040517f08c379a000000000000000000000000000000000000000000000000000000000815260040161414190615da5565b60405180910390fd5b614156826000836146da565b60008060008473ffffffffffffffffffffffffffffffffffffffff1673ffffffffffffffffffffffffffffffffffffffff168152602001908152602001600020549050818110156141dc576040517f08c379a00000000000000000000000000000000000000000000000000000000081526004016141d390615e37565b60405180910390fd5b8181036000808573ffffffffffffffffffffffffffffffffffffffff1673ffffffffffffffffffffffffffffffffffffffff16815260200190815260200160002081905550816002600082825461423391906153de565b92505081905550600073ffffffffffffffffffffffffffffffffffffffff168373ffffffffffffffffffffffffffffffffffffffff167fddf252ad1be2c89b69c2b068fc378daa952ba7f163c4a11628f55a4df523b3ef8460405161429891906149c3565b60405180910390a36142ac836000846146df565b505050565b600073ffffffffffffffffffffffffffffffffffffffff168273ffffffffffffffffffffffffffffffffffffffff161415614321576040517f08c379a000000000000000000000000000000000000000000000000000000000815260040161431890615ea3565b60405180910390fd5b61432d600083836146da565b806002600082825461433f9190615388565b92505081905550806000808473ffffffffffffffffffffffffffffffffffffffff1673ffffffffffffffffffffffffffffffffffffffff16815260200190815260200160002060008282546143949190615388565b925050819055508173ffffffffffffffffffffffffffffffffffffffff16600073ffffffffffffffffffffffffffffffffffffffff167fddf252ad1be2c89b69c2b068fc378daa952ba7f163c4a11628f55a4df523b3ef836040516143f991906149c3565b60405180910390a361440d600083836146df565b5050565b60008273ffffffffffffffffffffffffffffffffffffffff168260405161443790615ef1565b60006040518083038185875af1925050503d8060008114614474576040519150601f19603f3d011682016040523d82523d6000602084013e614479565b606091505b505090508061448757600080fd5b505050565b6000600e60008473ffffffffffffffffffffffffffffffffffffffff1673ffffffffffffffffffffffffffffffffffffffff168152602001908152602001600020819055506000600f60008373ffffffffffffffffffffffffffffffffffffffff1673ffffffffffffffffffffffffffffffffffffffff16815260200190815260200160002081905550601460008373ffffffffffffffffffffffffffffffffffffffff1673ffffffffffffffffffffffffffffffffffffffff16815260200190815260200160002060008273ffffffffffffffffffffffffffffffffffffffff1673ffffffffffffffffffffffffffffffffffffffff168152602001908152602001600020600061459e9190614888565b601360008373ffffffffffffffffffffffffffffffffffffffff1673ffffffffffffffffffffffffffffffffffffffff16815260200190815260200160002060008273ffffffffffffffffffffffffffffffffffffffff1673ffffffffffffffffffffffffffffffffffffffff16815260200190815260200160002060006101000a81549060ff02191690555050565b60006003821115614695578190506000600160028461464d91906154bd565b6146579190615388565b90505b8181101561468f57809150600281828561467491906154bd565b61467e9190615388565b61468891906154bd565b905061465a565b506146a3565b600082146146a257600190505b5b919050565b60006146b333611d66565b156146c757601436033560601c90506146d6565b6146cf6146e4565b90506146d7565b5b90565b505050565b505050565b600033905090565b8280546146f8906152f0565b90600052602060002090601f01602090048101928261471a5760008555614761565b82601f1061473357805160ff1916838001178555614761565b82800160010185558215614761579182015b82811115614760578251825591602001919060010190614745565b5b50905061476e91906148a9565b5090565b60405180610100016040528060008152602001600073ffffffffffffffffffffffffffffffffffffffff168152602001600073ffffffffffffffffffffffffffffffffffffffff168152602001600060ff168152602001600081526020016000815260200160008152602001600081525090565b60405180610160016040528060008152602001600073ffffffffffffffffffffffffffffffffffffffff168152602001600073ffffffffffffffffffffffffffffffffffffffff168152602001600060ff1681526020016000815260200160608152602001600060ff1681526020016000815260200160008152602001600073ffffffffffffffffffffffffffffffffffffffff168152602001600081525090565b50805460008255906000526020600020908101906148a691906148a9565b50565b5b808211156148c25760008160009055506001016148aa565b5090565b6000819050919050565b6148d9816148c6565b82525050565b60006040820190506148f460008301856148d0565b61490160208301846148d0565b9392505050565b600081519050919050565b600082825260208201905092915050565b60005b83811015614942578082015181840152602081019050614927565b83811115614951576000848401525b50505050565b6000601f19601f8301169050919050565b600061497382614908565b61497d8185614913565b935061498d818560208601614924565b61499681614957565b840191505092915050565b600060208201905081810360008301526149bb8184614968565b905092915050565b60006020820190506149d860008301846148d0565b92915050565b6000604051905090565b600080fd5b600080fd5b600073ffffffffffffffffffffffffffffffffffffffff82169050919050565b6000614a1d826149f2565b9050919050565b614a2d81614a12565b8114614a3857600080fd5b50565b600081359050614a4a81614a24565b92915050565b614a59816148c6565b8114614a6457600080fd5b50565b600081359050614a7681614a50565b92915050565b60008060408385031215614a9357614a926149e8565b5b6000614aa185828601614a3b565b9250506020614ab285828601614a67565b9150509250929050565b60008115159050919050565b614ad181614abc565b82525050565b6000602082019050614aec6000830184614ac8565b92915050565b600060208284031215614b0857614b076149e8565b5b6000614b1684828501614a67565b91505092915050565b600080600060608486031215614b3857614b376149e8565b5b6000614b4686828701614a3b565b9350506020614b5786828701614a3b565b9250506040614b6886828701614a67565b9150509250925092565b600060ff82169050919050565b614b8881614b72565b82525050565b6000602082019050614ba36000830184614b7f565b92915050565b600080fd5b600080fd5b7f4e487b7100000000000000000000000000000000000000000000000000000000600052604160045260246000fd5b614beb82614957565b810181811067ffffffffffffffff82111715614c0a57614c09614bb3565b5b80604052505050565b6000614c1d6149de565b9050614c298282614be2565b919050565b600067ffffffffffffffff821115614c4957614c48614bb3565b5b614c5282614957565b9050602081019050919050565b82818337600083830152505050565b6000614c81614c7c84614c2e565b614c13565b905082815260208101848484011115614c9d57614c9c614bae565b5b614ca8848285614c5f565b509392505050565b600082601f830112614cc557614cc4614ba9565b5b8135614cd5848260208601614c6e565b91505092915050565b614ce781614b72565b8114614cf257600080fd5b50565b600081359050614d0481614cde565b92915050565b60008060008060008060c08789031215614d2757614d266149e8565b5b600087013567ffffffffffffffff811115614d4557614d446149ed565b5b614d5189828a01614cb0565b9650506020614d6289828a01614cf5565b9550506040614d7389828a01614a67565b9450506060614d8489828a01614a67565b9350506080614d9589828a01614a3b565b92505060a0614da689828a01614a67565b9150509295509295509295565b600080600060608486031215614dcc57614dcb6149e8565b5b6000614dda86828701614a67565b9350506020614deb86828701614a3b565b9250506040614dfc86828701614a67565b9150509250925092565b60008060408385031215614e1d57614e1c6149e8565b5b6000614e2b85828601614a3b565b9250506020614e3c85828601614a3b565b9150509250929050565b614e4f816148c6565b82525050565b614e5e81614a12565b82525050565b614e6d81614b72565b82525050565b61010082016000820151614e8a6000850182614e46565b506020820151614e9d6020850182614e55565b506040820151614eb06040850182614e55565b506060820151614ec36060850182614e64565b506080820151614ed66080850182614e46565b5060a0820151614ee960a0850182614e46565b5060c0820151614efc60c0850182614e46565b5060e0820151614f0f60e0850182614e46565b50505050565b600061010082019050614f2b6000830184614e73565b92915050565b600081519050919050565b600082825260208201905092915050565b6000819050602082019050919050565b600082825260208201905092915050565b6000614f7982614908565b614f838185614f5d565b9350614f93818560208601614924565b614f9c81614957565b840191505092915050565b600061016083016000830151614fc06000860182614e46565b506020830151614fd36020860182614e55565b506040830151614fe66040860182614e55565b506060830151614ff96060860182614e64565b50608083015161500c6080860182614e46565b5060a083015184820360a08601526150248282614f6e565b91505060c083015161503960c0860182614e64565b5060e083015161504c60e0860182614e46565b50610100830151615061610100860182614e46565b50610120830151615076610120860182614e55565b5061014083015161508b610140860182614e46565b508091505092915050565b60006150a28383614fa7565b905092915050565b6000602082019050919050565b60006150c282614f31565b6150cc8185614f3c565b9350836020820285016150de85614f4d565b8060005b8581101561511a57848403895281516150fb8582615096565b9450615106836150aa565b925060208a019950506001810190506150e2565b50829750879550505050505092915050565b6000602082019050818103600083015261514681846150b7565b905092915050565b600060208284031215615164576151636149e8565b5b600061517284828501614a3b565b91505092915050565b600080600060608486031215615194576151936149e8565b5b600084013567ffffffffffffffff8111156151b2576151b16149ed565b5b6151be86828701614cb0565b93505060206151cf86828701614a67565b92505060406151e086828701614a67565b9150509250925092565b60008060408385031215615201576152006149e8565b5b600061520f85828601614a67565b925050602061522085828601614a67565b9150509250929050565b600080600080600060a08688031215615246576152456149e8565b5b600061525488828901614a3b565b955050602061526588828901614a67565b945050604061527688828901614a67565b935050606086013567ffffffffffffffff811115615297576152966149ed565b5b6152a388828901614cb0565b92505060806152b488828901614a67565b9150509295509295909350565b7f4e487b7100000000000000000000000000000000000000000000000000000000600052602260045260246000fd5b6000600282049050600182168061530857607f821691505b6020821081141561531c5761531b6152c1565b5b50919050565b600060608201905061533760008301866148d0565b6153446020830185614b7f565b61535160408301846148d0565b949350505050565b7f4e487b7100000000000000000000000000000000000000000000000000000000600052601160045260246000fd5b6000615393826148c6565b915061539e836148c6565b9250827fffffffffffffffffffffffffffffffffffffffffffffffffffffffffffffffff038211156153d3576153d2615359565b5b828201905092915050565b60006153e9826148c6565b91506153f4836148c6565b92508282101561540757615406615359565b5b828203905092915050565b6000819050919050565b6000819050919050565b600061544161543c61543784615412565b61541c565b614b72565b9050919050565b61545181615426565b82525050565b600060608201905061546c60008301866148d0565b6154796020830185615448565b61548660408301846148d0565b949350505050565b7f4e487b7100000000000000000000000000000000000000000000000000000000600052601260045260246000fd5b60006154c8826148c6565b91506154d3836148c6565b9250826154e3576154e261548e565b5b828204905092915050565b7f5265656e7472616e637947756172643a207265656e7472616e742063616c6c00600082015250565b6000615524601f83614913565b915061552f826154ee565b602082019050919050565b6000602082019050818103600083015261555381615517565b9050919050565b7f4e487b7100000000000000000000000000000000000000000000000000000000600052603260045260246000fd5b6000615594826148c6565b91507fffffffffffffffffffffffffffffffffffffffffffffffffffffffffffffffff8214156155c7576155c6615359565b5b600182019050919050565b60006155dd826148c6565b91506155e8836148c6565b9250817fffffffffffffffffffffffffffffffffffffffffffffffffffffffffffffffff048311821515161561562157615620615359565b5b828202905092915050565b50565b600061563c600083614913565b91506156478261562c565b600082019050919050565b6000819050919050565b600061567761567261566d84615652565b61541c565b614b72565b9050919050565b6156878161565c565b82525050565b60006080820190506156a260008301866148d0565b81810360208301526156b38161562f565b90506156c260408301856148d0565b6156cf606083018461567e565b949350505050565b6156e081614a12565b82525050565b600060c0820190506156fb60008301896156d7565b61570860208301886148d0565b61571560408301876156d7565b61572260608301866148d0565b61572f60808301856148d0565b61573c60a08301846148d0565b979650505050505050565b6000819050919050565b600061576c61576761576284615747565b61541c565b614b72565b9050919050565b61577c81615751565b82525050565b600060808201905061579760008301876148d0565b81810360208301526157a98186614968565b90506157b860408301856148d0565b6157c56060830184615773565b95945050505050565b7f45524332303a2064656372656173656420616c6c6f77616e63652062656c6f7760008201527f207a65726f000000000000000000000000000000000000000000000000000000602082015250565b600061582a602583614913565b9150615835826157ce565b604082019050919050565b600060208201905081810360008301526158598161581d565b9050919050565b600060808201905061587560008301876148d0565b81810360208301526158878186614968565b905061589660408301856148d0565b6158a36060830184615448565b95945050505050565b6000819050919050565b60006158d16158cc6158c7846158ac565b61541c565b614b72565b9050919050565b6158e1816158b6565b82525050565b60006080820190506158fc60008301866148d0565b818103602083015261590d8161562f565b905061591c60408301856148d0565b61592960608301846158d8565b949350505050565b600060608201905061594660008301866156d7565b61595360208301856156d7565b6159606040830184614ac8565b949350505050565b6000819050919050565b600061598d61598861598384615968565b61541c565b614b72565b9050919050565b61599d81615972565b82525050565b60006080820190506159b860008301866148d0565b81810360208301526159c98161562f565b90506159d860408301856148d0565b6159e56060830184615994565b949350505050565b7f45524332303a20617070726f76652066726f6d20746865207a65726f2061646460008201527f7265737300000000000000000000000000000000000000000000000000000000602082015250565b6000615a49602483614913565b9150615a54826159ed565b604082019050919050565b60006020820190508181036000830152615a7881615a3c565b9050919050565b7f45524332303a20617070726f766520746f20746865207a65726f20616464726560008201527f7373000000000000000000000000000000000000000000000000000000000000602082015250565b6000615adb602283614913565b9150615ae682615a7f565b604082019050919050565b60006020820190508181036000830152615b0a81615ace565b9050919050565b7f45524332303a20696e73756666696369656e7420616c6c6f77616e6365000000600082015250565b6000615b47601d83614913565b9150615b5282615b11565b602082019050919050565b60006020820190508181036000830152615b7681615b3a565b9050919050565b7f45524332303a207472616e736665722066726f6d20746865207a65726f20616460008201527f6472657373000000000000000000000000000000000000000000000000000000602082015250565b6000615bd9602583614913565b9150615be482615b7d565b604082019050919050565b60006020820190508181036000830152615c0881615bcc565b9050919050565b7f45524332303a207472616e7366657220746f20746865207a65726f206164647260008201527f6573730000000000000000000000000000000000000000000000000000000000602082015250565b6000615c6b602383614913565b9150615c7682615c0f565b604082019050919050565b60006020820190508181036000830152615c9a81615c5e565b9050919050565b7f45524332303a207472616e7366657220616d6f756e742065786365656473206260008201527f616c616e63650000000000000000000000000000000000000000000000000000602082015250565b6000615cfd602683614913565b9150615d0882615ca1565b604082019050919050565b60006020820190508181036000830152615d2c81615cf0565b9050919050565b7f45524332303a206275726e2066726f6d20746865207a65726f2061646472657360008201527f7300000000000000000000000000000000000000000000000000000000000000602082015250565b6000615d8f602183614913565b9150615d9a82615d33565b604082019050919050565b60006020820190508181036000830152615dbe81615d82565b9050919050565b7f45524332303a206275726e20616d6f756e7420657863656564732062616c616e60008201527f6365000000000000000000000000000000000000000000000000000000000000602082015250565b6000615e21602283614913565b9150615e2c82615dc5565b604082019050919050565b60006020820190508181036000830152615e5081615e14565b9050919050565b7f45524332303a206d696e7420746f20746865207a65726f206164647265737300600082015250565b6000615e8d601f83614913565b9150615e9882615e57565b602082019050919050565b60006020820190508181036000830152615ebc81615e80565b9050919050565b600081905092915050565b6000615edb600083615ec3565b9150615ee68261562c565b600082019050919050565b6000615efc82615ece565b915081905091905056fea2646970667358221220fe9772c9c1e14ce7b085c705566d2fd705ffd2ac6ba40938dd55f28b8513632a64736f6c634300080a0033",
  "linkReferences": {},
  "deployedLinkReferences": {}
}