{
  "_format": "hh-sol-artifact-1",
  "contractName": "WavePortal2",
  "sourceName": "contracts/newmarriages6.sol",
  "abi": [
    {
      "inputs": [],
      "stateMutability": "payable",
      "type": "constructor"
    },
    {
      "inputs": [],
      "name": "InsufficientBalance",
      "type": "error"
    },
    {
      "inputs": [],
      "name": "NotEligableByTime",
      "type": "error"
    },
    {
      "inputs": [],
      "name": "Unauthorized",
      "type": "error"
    },
    {
      "anonymous": false,
      "inputs": [
        {
          "indexed": true,
          "internalType": "address",
          "name": "from",
          "type": "address"
        },
        {
          "indexed": false,
          "internalType": "uint256",
          "name": "timestamp",
          "type": "uint256"
        },
        {
          "indexed": false,
          "internalType": "uint256",
          "name": "amount",
          "type": "uint256"
        }
      ],
      "name": "AddStake",
      "type": "event"
    },
    {
      "anonymous": false,
      "inputs": [
        {
          "indexed": true,
          "internalType": "address",
          "name": "owner",
          "type": "address"
        },
        {
          "indexed": true,
          "internalType": "address",
          "name": "spender",
          "type": "address"
        },
        {
          "indexed": false,
          "internalType": "uint256",
          "name": "value",
          "type": "uint256"
        }
      ],
      "name": "Approval",
      "type": "event"
    },
    {
      "anonymous": false,
      "inputs": [
        {
          "indexed": false,
          "internalType": "uint256",
          "name": "id",
          "type": "uint256"
        },
        {
          "indexed": true,
          "internalType": "address",
          "name": "waver",
          "type": "address"
        },
        {
          "indexed": true,
          "internalType": "address",
          "name": "proposed",
          "type": "address"
        },
        {
          "indexed": true,
          "internalType": "address",
          "name": "from",
          "type": "address"
        },
        {
          "indexed": false,
          "internalType": "string",
          "name": "message",
          "type": "string"
        },
        {
          "indexed": false,
          "internalType": "uint256",
          "name": "timestamp",
          "type": "uint256"
        },
        {
          "indexed": false,
          "internalType": "uint8",
          "name": "vid",
          "type": "uint8"
        }
      ],
      "name": "NewWave",
      "type": "event"
    },
    {
      "anonymous": false,
      "inputs": [
        {
          "indexed": true,
          "internalType": "address",
          "name": "from",
          "type": "address"
        },
        {
          "indexed": true,
          "internalType": "address",
          "name": "to",
          "type": "address"
        },
        {
          "indexed": false,
          "internalType": "uint256",
          "name": "value",
          "type": "uint256"
        }
      ],
      "name": "Transfer",
      "type": "event"
    },
    {
      "anonymous": false,
      "inputs": [
        {
          "indexed": false,
          "internalType": "uint256",
          "name": "id",
          "type": "uint256"
        },
        {
          "indexed": true,
          "internalType": "address",
          "name": "proposer",
          "type": "address"
        },
        {
          "indexed": true,
          "internalType": "address",
          "name": "responder",
          "type": "address"
        },
        {
          "indexed": false,
          "internalType": "uint8",
          "name": "voteStatus",
          "type": "uint8"
        },
        {
          "indexed": false,
          "internalType": "uint256",
          "name": "timestamp",
          "type": "uint256"
        }
      ],
      "name": "VoteStatus",
      "type": "event"
    },
    {
      "inputs": [],
      "name": "MintCertificate",
      "outputs": [],
      "stateMutability": "nonpayable",
      "type": "function"
    },
    {
      "inputs": [],
      "name": "addstake",
      "outputs": [],
      "stateMutability": "payable",
      "type": "function"
    },
    {
      "inputs": [
        {
          "internalType": "uint256",
          "name": "_id",
          "type": "uint256"
        }
      ],
      "name": "agreeVoting",
      "outputs": [],
      "stateMutability": "nonpayable",
      "type": "function"
    },
    {
      "inputs": [
        {
          "internalType": "address",
          "name": "owner",
          "type": "address"
        },
        {
          "internalType": "address",
          "name": "spender",
          "type": "address"
        }
      ],
      "name": "allowance",
      "outputs": [
        {
          "internalType": "uint256",
          "name": "",
          "type": "uint256"
        }
      ],
      "stateMutability": "view",
      "type": "function"
    },
    {
      "inputs": [
        {
          "internalType": "string",
          "name": "_message",
          "type": "string"
        },
        {
          "internalType": "uint256",
          "name": "_agreed",
          "type": "uint256"
        },
        {
          "internalType": "uint256",
          "name": "_hasensProposed",
          "type": "uint256"
        }
      ],
      "name": "approvals",
      "outputs": [],
      "stateMutability": "nonpayable",
      "type": "function"
    },
    {
      "inputs": [
        {
          "internalType": "address",
          "name": "spender",
          "type": "address"
        },
        {
          "internalType": "uint256",
          "name": "amount",
          "type": "uint256"
        }
      ],
      "name": "approve",
      "outputs": [
        {
          "internalType": "bool",
          "name": "",
          "type": "bool"
        }
      ],
      "stateMutability": "nonpayable",
      "type": "function"
    },
    {
      "inputs": [
        {
          "internalType": "address",
          "name": "account",
          "type": "address"
        }
      ],
      "name": "balanceOf",
      "outputs": [
        {
          "internalType": "uint256",
          "name": "",
          "type": "uint256"
        }
      ],
      "stateMutability": "view",
      "type": "function"
    },
    {
      "inputs": [],
      "name": "buyLovToken",
      "outputs": [],
      "stateMutability": "payable",
      "type": "function"
    },
    {
      "inputs": [],
      "name": "cancel",
      "outputs": [],
      "stateMutability": "nonpayable",
      "type": "function"
    },
    {
      "inputs": [
        {
          "internalType": "uint256",
          "name": "_id",
          "type": "uint256"
        }
      ],
      "name": "cancelVoting",
      "outputs": [],
      "stateMutability": "nonpayable",
      "type": "function"
    },
    {
      "inputs": [
        {
          "internalType": "uint256",
          "name": "_policyDays",
          "type": "uint256"
        },
        {
          "internalType": "address",
          "name": "_addressNFT",
          "type": "address"
        },
        {
          "internalType": "uint256",
          "name": "_saleCap",
          "type": "uint256"
        }
      ],
      "name": "changePolicy",
      "outputs": [],
      "stateMutability": "nonpayable",
      "type": "function"
    },
    {
      "inputs": [],
      "name": "checkIfUserHasBeenProposed",
      "outputs": [
        {
          "components": [
            {
              "internalType": "uint256",
              "name": "id",
              "type": "uint256"
            },
            {
              "internalType": "address",
              "name": "waver",
              "type": "address"
            },
            {
              "internalType": "address",
              "name": "proposed",
              "type": "address"
            },
            {
              "internalType": "uint8",
              "name": "ProposalStatus",
              "type": "uint8"
            },
            {
              "internalType": "uint256",
              "name": "stake",
              "type": "uint256"
            },
            {
              "internalType": "uint256",
              "name": "gift",
              "type": "uint256"
            },
            {
              "internalType": "uint256",
              "name": "FamilyBudget",
              "type": "uint256"
            },
            {
              "internalType": "uint256",
              "name": "marryDate",
              "type": "uint256"
            }
          ],
          "internalType": "struct WavePortal2.Wave",
          "name": "",
          "type": "tuple"
        }
      ],
      "stateMutability": "view",
      "type": "function"
    },
    {
      "inputs": [],
      "name": "checkIfUserHasProposed",
      "outputs": [
        {
          "components": [
            {
              "internalType": "uint256",
              "name": "id",
              "type": "uint256"
            },
            {
              "internalType": "address",
              "name": "waver",
              "type": "address"
            },
            {
              "internalType": "address",
              "name": "proposed",
              "type": "address"
            },
            {
              "internalType": "uint8",
              "name": "ProposalStatus",
              "type": "uint8"
            },
            {
              "internalType": "uint256",
              "name": "stake",
              "type": "uint256"
            },
            {
              "internalType": "uint256",
              "name": "gift",
              "type": "uint256"
            },
            {
              "internalType": "uint256",
              "name": "FamilyBudget",
              "type": "uint256"
            },
            {
              "internalType": "uint256",
              "name": "marryDate",
              "type": "uint256"
            }
          ],
          "internalType": "struct WavePortal2.Wave",
          "name": "",
          "type": "tuple"
        }
      ],
      "stateMutability": "view",
      "type": "function"
    },
    {
      "inputs": [],
      "name": "claimToken",
      "outputs": [],
      "stateMutability": "nonpayable",
      "type": "function"
    },
    {
      "inputs": [
        {
          "internalType": "address",
          "name": "",
          "type": "address"
        }
      ],
      "name": "claimtimer",
      "outputs": [
        {
          "internalType": "uint256",
          "name": "",
          "type": "uint256"
        }
      ],
      "stateMutability": "view",
      "type": "function"
    },
    {
      "inputs": [
        {
          "internalType": "string",
          "name": "_message",
          "type": "string"
        },
        {
          "internalType": "uint8",
          "name": "_votetype",
          "type": "uint8"
        },
        {
          "internalType": "uint256",
          "name": "_voteends",
          "type": "uint256"
        },
        {
          "internalType": "uint256",
          "name": "_numTokens",
          "type": "uint256"
        },
        {
          "internalType": "address",
          "name": "_receiver",
          "type": "address"
        },
        {
          "internalType": "uint256",
          "name": "_amount",
          "type": "uint256"
        }
      ],
      "name": "createProposal",
      "outputs": [],
      "stateMutability": "nonpayable",
      "type": "function"
    },
    {
      "inputs": [],
      "name": "decimals",
      "outputs": [
        {
          "internalType": "uint8",
          "name": "",
          "type": "uint8"
        }
      ],
      "stateMutability": "view",
      "type": "function"
    },
    {
      "inputs": [
        {
          "internalType": "address",
          "name": "spender",
          "type": "address"
        },
        {
          "internalType": "uint256",
          "name": "subtractedValue",
          "type": "uint256"
        }
      ],
      "name": "decreaseAllowance",
      "outputs": [
        {
          "internalType": "bool",
          "name": "",
          "type": "bool"
        }
      ],
      "stateMutability": "nonpayable",
      "type": "function"
    },
    {
      "inputs": [
        {
          "internalType": "uint256",
          "name": "_id",
          "type": "uint256"
        },
        {
          "internalType": "uint256",
          "name": "_numTokens",
          "type": "uint256"
        }
      ],
      "name": "disagreeVoting",
      "outputs": [],
      "stateMutability": "nonpayable",
      "type": "function"
    },
    {
      "inputs": [
        {
          "internalType": "uint256",
          "name": "_id",
          "type": "uint256"
        }
      ],
      "name": "endVotingByTime",
      "outputs": [],
      "stateMutability": "nonpayable",
      "type": "function"
    },
    {
      "inputs": [],
      "name": "execute",
      "outputs": [],
      "stateMutability": "payable",
      "type": "function"
    },
    {
      "inputs": [
        {
          "internalType": "uint256",
          "name": "_id",
          "type": "uint256"
        }
      ],
      "name": "executeVoting",
      "outputs": [],
      "stateMutability": "payable",
      "type": "function"
    },
    {
      "inputs": [],
      "name": "getBalance",
      "outputs": [
        {
          "internalType": "uint256",
          "name": "",
          "type": "uint256"
        },
        {
          "internalType": "uint256",
          "name": "",
          "type": "uint256"
        }
      ],
      "stateMutability": "view",
      "type": "function"
    },
    {
      "inputs": [
        {
          "internalType": "address",
          "name": "waver",
          "type": "address"
        },
        {
          "internalType": "address",
          "name": "proposed",
          "type": "address"
        }
      ],
      "name": "getVotingStatuses",
      "outputs": [
        {
          "components": [
            {
              "internalType": "uint256",
              "name": "id",
              "type": "uint256"
            },
            {
              "internalType": "address",
              "name": "proposer",
              "type": "address"
            },
            {
              "internalType": "address",
              "name": "responder",
              "type": "address"
            },
            {
              "internalType": "uint8",
              "name": "voteType",
              "type": "uint8"
            },
            {
              "internalType": "uint256",
              "name": "tokenVoteQuantity",
              "type": "uint256"
            },
            {
              "internalType": "string",
              "name": "voteProposalText",
              "type": "string"
            },
            {
              "internalType": "uint8",
              "name": "voteStatus",
              "type": "uint8"
            },
            {
              "internalType": "uint256",
              "name": "timestamp",
              "type": "uint256"
            },
            {
              "internalType": "uint256",
              "name": "voteends",
              "type": "uint256"
            },
            {
              "internalType": "address",
              "name": "receiver",
              "type": "address"
            },
            {
              "internalType": "uint256",
              "name": "amount",
              "type": "uint256"
            }
          ],
          "internalType": "struct WavePortal2.VoteProposal[]",
          "name": "",
          "type": "tuple[]"
        }
      ],
      "stateMutability": "view",
      "type": "function"
    },
    {
      "inputs": [
        {
          "internalType": "address",
          "name": "spender",
          "type": "address"
        },
        {
          "internalType": "uint256",
          "name": "addedValue",
          "type": "uint256"
        }
      ],
      "name": "increaseAllowance",
      "outputs": [
        {
          "internalType": "bool",
          "name": "",
          "type": "bool"
        }
      ],
      "stateMutability": "nonpayable",
      "type": "function"
    },
    {
      "inputs": [],
      "name": "name",
      "outputs": [
        {
          "internalType": "string",
          "name": "",
          "type": "string"
        }
      ],
      "stateMutability": "view",
      "type": "function"
    },
    {
      "inputs": [
        {
          "internalType": "address",
          "name": "",
          "type": "address"
        },
        {
          "internalType": "address",
          "name": "",
          "type": "address"
        }
      ],
      "name": "nftminted",
      "outputs": [
        {
          "internalType": "bool",
          "name": "",
          "type": "bool"
        }
      ],
      "stateMutability": "view",
      "type": "function"
    },
    {
      "inputs": [],
      "name": "policyDays",
      "outputs": [
        {
          "internalType": "uint256",
          "name": "",
          "type": "uint256"
        }
      ],
      "stateMutability": "view",
      "type": "function"
    },
    {
      "inputs": [],
      "name": "saleCap",
      "outputs": [
        {
          "internalType": "uint256",
          "name": "",
          "type": "uint256"
        }
      ],
      "stateMutability": "view",
      "type": "function"
    },
    {
      "inputs": [],
      "name": "symbol",
      "outputs": [
        {
          "internalType": "string",
          "name": "",
          "type": "string"
        }
      ],
      "stateMutability": "view",
      "type": "function"
    },
    {
      "inputs": [],
      "name": "totalSupply",
      "outputs": [
        {
          "internalType": "uint256",
          "name": "",
          "type": "uint256"
        }
      ],
      "stateMutability": "view",
      "type": "function"
    },
    {
      "inputs": [
        {
          "internalType": "address",
          "name": "to",
          "type": "address"
        },
        {
          "internalType": "uint256",
          "name": "amount",
          "type": "uint256"
        }
      ],
      "name": "transfer",
      "outputs": [
        {
          "internalType": "bool",
          "name": "",
          "type": "bool"
        }
      ],
      "stateMutability": "nonpayable",
      "type": "function"
    },
    {
      "inputs": [
        {
          "internalType": "address",
          "name": "from",
          "type": "address"
        },
        {
          "internalType": "address",
          "name": "to",
          "type": "address"
        },
        {
          "internalType": "uint256",
          "name": "amount",
          "type": "uint256"
        }
      ],
      "name": "transferFrom",
      "outputs": [
        {
          "internalType": "bool",
          "name": "",
          "type": "bool"
        }
      ],
      "stateMutability": "nonpayable",
      "type": "function"
    },
    {
      "inputs": [
        {
          "internalType": "address",
          "name": "_proposed",
          "type": "address"
        },
        {
          "internalType": "uint256",
          "name": "_stake",
          "type": "uint256"
        },
        {
          "internalType": "uint256",
          "name": "_gift",
          "type": "uint256"
        },
        {
          "internalType": "string",
          "name": "_message",
          "type": "string"
        },
        {
          "internalType": "uint256",
          "name": "_hasensWaver",
          "type": "uint256"
        }
      ],
      "name": "wave",
      "outputs": [],
      "stateMutability": "nonpayable",
      "type": "function"
    },
    {
      "inputs": [],
      "name": "withdrawcomission",
      "outputs": [],
      "stateMutability": "nonpayable",
      "type": "function"
    },
    {
      "stateMutability": "payable",
      "type": "receive"
    }
  ],
  "bytecode": "0x6080604052633b9aca006008556040518060400160405280600b81526020017f43727970746f4d617272790000000000000000000000000000000000000000008152506040518060400160405280600381526020017f4c4f5600000000000000000000000000000000000000000000000000000000008152508160039080519060200190620000909291906200017f565b508060049080519060200190620000a99291906200017f565b5050506001600581905550600160066000828254620000c9919062000268565b9250508190555033600960006101000a81548173ffffffffffffffffffffffffffffffffffffffff021916908373ffffffffffffffffffffffffffffffffffffffff1602179055506276a700600b8190555073b7826559f4d0244840708907fa08f089400d2679600c60006101000a81548173ffffffffffffffffffffffffffffffffffffffff021916908373ffffffffffffffffffffffffffffffffffffffff160217905550612710600d819055506200032a565b8280546200018d90620002f4565b90600052602060002090601f016020900481019282620001b15760008555620001fd565b82601f10620001cc57805160ff1916838001178555620001fd565b82800160010185558215620001fd579182015b82811115620001fc578251825591602001919060010190620001df565b5b5090506200020c919062000210565b5090565b5b808211156200022b57600081600090555060010162000211565b5090565b6000819050919050565b7f4e487b7100000000000000000000000000000000000000000000000000000000600052601160045260246000fd5b600062000275826200022f565b915062000282836200022f565b9250827fffffffffffffffffffffffffffffffffffffffffffffffffffffffffffffffff03821115620002ba57620002b962000239565b5b828201905092915050565b7f4e487b7100000000000000000000000000000000000000000000000000000000600052602260045260246000fd5b600060028204905060018216806200030d57607f821691505b60208210811415620003245762000323620002c5565b5b50919050565b615efc806200033a6000396000f3fe6080604052600436106102085760003560e01c8063549bdd6e1161011857806395d89b41116100a0578063cd4a338a1161006f578063cd4a338a14610771578063dd62ed3e1461079a578063ea8a1af0146107d7578063f3d91243146107ee578063ff9898351461080a5761026c565b806395d89b41146106a1578063a457c2d7146106cc578063a9059cbb14610709578063b77a88c9146107465761026c565b806370039e7c116100e757806370039e7c146105f157806370a08231146106085780637f7b3ee6146106455780638e4ebf401461066e57806393b45dad146106975761026c565b8063549bdd6e1461056a5780635c8ab7871461059357806361461954146105d0578063614cae62146105da5761026c565b80633242b85b1161019b578063460629111161016a57806346062911146104735780634760b84e1461049c5780634d8c0c35146104c557806352f7991c146105025780635347b6f21461052d5761026c565b80633242b85b146103ec578063395093511461041557806343a7c5a0146104525780634451d89f1461045c5761026c565b806318160ddd116101d757806318160ddd146103305780631a5728c41461035b57806323b872dd14610384578063313ce567146103c15761026c565b806306fdde0314610271578063078fd9ea1461029c578063095ea7b3146102c757806312065fe0146103045761026c565b3661026c576000341161021a57600080fd5b3373ffffffffffffffffffffffffffffffffffffffff167f454558f821e516381f5735afdf706c1069e066bc2f6c62ac498eb191dc57b428423460405161026292919061489f565b60405180910390a2005b600080fd5b34801561027d57600080fd5b50610286610835565b6040516102939190614961565b60405180910390f35b3480156102a857600080fd5b506102b16108c7565b6040516102be9190614983565b60405180910390f35b3480156102d357600080fd5b506102ee60048036038101906102e99190614a3c565b6108cd565b6040516102fb9190614a97565b60405180910390f35b34801561031057600080fd5b506103196108f0565b60405161032792919061489f565b60405180910390f35b34801561033c57600080fd5b506103456108ff565b6040516103529190614983565b60405180910390f35b34801561036757600080fd5b50610382600480360381019061037d9190614ab2565b610909565b005b34801561039057600080fd5b506103ab60048036038101906103a69190614adf565b610a5c565b6040516103b89190614a97565b60405180910390f35b3480156103cd57600080fd5b506103d6610a8b565b6040516103e39190614b4e565b60405180910390f35b3480156103f857600080fd5b50610413600480360381019061040e9190614cca565b610a94565b005b34801561042157600080fd5b5061043c60048036038101906104379190614a3c565b61105e565b6040516104499190614a97565b60405180910390f35b61045a611108565b005b34801561046857600080fd5b506104716111d5565b005b34801561047f57600080fd5b5061049a60048036038101906104959190614ab2565b611342565b005b3480156104a857600080fd5b506104c360048036038101906104be9190614d73565b6114e2565b005b3480156104d157600080fd5b506104ec60048036038101906104e79190614dc6565b6115bd565b6040516104f99190614a97565b60405180910390f35b34801561050e57600080fd5b506105176115ec565b6040516105249190614ed5565b60405180910390f35b34801561053957600080fd5b50610554600480360381019061054f9190614dc6565b611774565b60405161056191906150ec565b60405180910390f35b34801561057657600080fd5b50610591600480360381019061058c9190614ab2565b611bca565b005b34801561059f57600080fd5b506105ba60048036038101906105b5919061510e565b611d1d565b6040516105c79190614983565b60405180910390f35b6105d8611d35565b005b3480156105e657600080fd5b506105ef612003565b005b3480156105fd57600080fd5b506106066120a0565b005b34801561061457600080fd5b5061062f600480360381019061062a919061510e565b61245a565b60405161063c9190614983565b60405180910390f35b34801561065157600080fd5b5061066c6004803603810190610667919061513b565b6124a2565b005b34801561067a57600080fd5b50610695600480360381019061069091906151aa565b6126d1565b005b61069f612972565b005b3480156106ad57600080fd5b506106b6612a6e565b6040516106c39190614961565b60405180910390f35b3480156106d857600080fd5b506106f360048036038101906106ee9190614a3c565b612b00565b6040516107009190614a97565b60405180910390f35b34801561071557600080fd5b50610730600480360381019061072b9190614a3c565b612bea565b60405161073d9190614a97565b60405180910390f35b34801561075257600080fd5b5061075b612c0d565b6040516107689190614ed5565b60405180910390f35b34801561077d57600080fd5b50610798600480360381019061079391906151ea565b612d95565b005b3480156107a657600080fd5b506107c160048036038101906107bc9190614dc6565b6131d7565b6040516107ce9190614983565b60405180910390f35b3480156107e357600080fd5b506107ec61325e565b005b61080860048036038101906108039190614ab2565b6133e0565b005b34801561081657600080fd5b5061081f613ac9565b60405161082c9190614983565b60405180910390f35b606060038054610844906152b0565b80601f0160208091040260200160405190810160405280929190818152602001828054610870906152b0565b80156108bd5780601f10610892576101008083540402835291602001916108bd565b820191906000526020600020905b8154815290600101906020018083116108a057829003601f168201915b5050505050905090565b600d5481565b6000806108d8613acf565b90506108e5818585613ad7565b600191505092915050565b60008047600a54915091509091565b6000600254905090565b60006015600083815260200190815260200160002090503373ffffffffffffffffffffffffffffffffffffffff168160020160009054906101000a900473ffffffffffffffffffffffffffffffffffffffff1673ffffffffffffffffffffffffffffffffffffffff16148015610993575060018160050160009054906101000a900460ff1660ff16145b61099c57600080fd5b60028160050160006101000a81548160ff021916908360ff1602179055503373ffffffffffffffffffffffffffffffffffffffff168160010160009054906101000a900473ffffffffffffffffffffffffffffffffffffffff1673ffffffffffffffffffffffffffffffffffffffff167f264aa01f1aad7e9bfba5ebee0a4a69d1193beb5d509f12d1dc4464c52b5e9479848460050160009054906101000a900460ff1642604051610a50939291906152e2565b60405180910390a35050565b600080610a67613acf565b9050610a74858285613ca2565b610a7f858585613d2e565b60019150509392505050565b60006012905090565b6000610a9e613faf565b9050600060116000838152602001908152602001600020905060048160020160149054906101000a900460ff1660ff16148015610ae35750610adf3361245a565b8511155b610aec57600080fd5b60028760ff161415610b4f57600073ffffffffffffffffffffffffffffffffffffffff168473ffffffffffffffffffffffffffffffffffffffff1614158015610b355750600083115b610b3e57600080fd5b600b5486610b4c9190615348565b95505b60038760ff161415610bb75742600b548260060154610b6e9190615348565b1115610ba6576040517f9a98688100000000000000000000000000000000000000000000000000000000815260040160405180910390fd5b600b5486610bb49190615348565b95505b610bc133866140d4565b60003373ffffffffffffffffffffffffffffffffffffffff168260010160009054906101000a900473ffffffffffffffffffffffffffffffffffffffff1673ffffffffffffffffffffffffffffffffffffffff161415610c47578160020160009054906101000a900473ffffffffffffffffffffffffffffffffffffffff169050610cc8565b3373ffffffffffffffffffffffffffffffffffffffff168260020160009054906101000a900473ffffffffffffffffffffffffffffffffffffffff1673ffffffffffffffffffffffffffffffffffffffff161415610cc7578160010160009054906101000a900473ffffffffffffffffffffffffffffffffffffffff1690505b5b601460008360010160009054906101000a900473ffffffffffffffffffffffffffffffffffffffff1673ffffffffffffffffffffffffffffffffffffffff1673ffffffffffffffffffffffffffffffffffffffff16815260200190815260200160002060008360020160009054906101000a900473ffffffffffffffffffffffffffffffffffffffff1673ffffffffffffffffffffffffffffffffffffffff1673ffffffffffffffffffffffffffffffffffffffff168152602001908152602001600020600654908060018154018082558091505060019003906000526020600020016000909190919091505560405180610160016040528060065481526020013373ffffffffffffffffffffffffffffffffffffffff1681526020018273ffffffffffffffffffffffffffffffffffffffff1681526020018960ff1681526020018781526020018a8152602001600160ff1681526020014281526020018881526020018673ffffffffffffffffffffffffffffffffffffffff168152602001858152506015600060065481526020019081526020016000206000820151816000015560208201518160010160006101000a81548173ffffffffffffffffffffffffffffffffffffffff021916908373ffffffffffffffffffffffffffffffffffffffff16021790555060408201518160020160006101000a81548173ffffffffffffffffffffffffffffffffffffffff021916908373ffffffffffffffffffffffffffffffffffffffff16021790555060608201518160020160146101000a81548160ff021916908360ff1602179055506080820151816003015560a0820151816004019080519060200190610f409291906146ac565b5060c08201518160050160006101000a81548160ff021916908360ff16021790555060e0820151816006015561010082015181600701556101208201518160080160006101000a81548173ffffffffffffffffffffffffffffffffffffffff021916908373ffffffffffffffffffffffffffffffffffffffff1602179055506101408201518160090155905050600160066000828254610fe09190615348565b925050819055508073ffffffffffffffffffffffffffffffffffffffff163373ffffffffffffffffffffffffffffffffffffffff167f264aa01f1aad7e9bfba5ebee0a4a69d1193beb5d509f12d1dc4464c52b5e947960065460014260405161104b939291906153e3565b60405180910390a3505050505050505050565b600080611069613acf565b90506110fd818585600160008673ffffffffffffffffffffffffffffffffffffffff1673ffffffffffffffffffffffffffffffffffffffff16815260200190815260200160002060008973ffffffffffffffffffffffffffffffffffffffff1673ffffffffffffffffffffffffffffffffffffffff168152602001908152602001600020546110f89190615348565b613ad7565b600191505092915050565b60003411801561111a57506000600d54115b61112357600080fd5b34600a60008282546111359190615348565b9250508190555061115833662386f26fc10000346111539190615449565b6142ab565b662386f26fc100003461116b9190615449565b600d600082825461117c919061547a565b925050819055503373ffffffffffffffffffffffffffffffffffffffff167f454558f821e516381f5735afdf706c1069e066bc2f6c62ac498eb191dc57b42842346040516111cb92919061489f565b60405180910390a2565b6002600554141561121b576040517f08c379a0000000000000000000000000000000000000000000000000000000008152600401611212906154fa565b60405180910390fd5b6002600581905550600061122d613faf565b9050600060116000838152602001908152602001600020905042600b54601260003373ffffffffffffffffffffffffffffffffffffffff1673ffffffffffffffffffffffffffffffffffffffff168152602001908152602001600020546112949190615348565b11156112cc576040517f9a98688100000000000000000000000000000000000000000000000000000000815260040160405180910390fd5b6000662386f26fc1000082600501546112e59190615449565b905042601260003373ffffffffffffffffffffffffffffffffffffffff1673ffffffffffffffffffffffffffffffffffffffff1681526020019081526020016000208190555061133533826142ab565b5050506001600581905550565b6000601560008381526020019081526020016000209050428160070154826006015461136e9190615348565b11156113a6576040517f9a98688100000000000000000000000000000000000000000000000000000000815260040160405180910390fd5b3373ffffffffffffffffffffffffffffffffffffffff168160010160009054906101000a900473ffffffffffffffffffffffffffffffffffffffff1673ffffffffffffffffffffffffffffffffffffffff16148015611419575060018160050160009054906101000a900460ff1660ff16145b61142257600080fd5b60028160050160006101000a81548160ff021916908360ff1602179055503373ffffffffffffffffffffffffffffffffffffffff168160010160009054906101000a900473ffffffffffffffffffffffffffffffffffffffff1673ffffffffffffffffffffffffffffffffffffffff167f264aa01f1aad7e9bfba5ebee0a4a69d1193beb5d509f12d1dc4464c52b5e9479848460050160009054906101000a900460ff16426040516114d6939291906152e2565b60405180910390a35050565b600960009054906101000a900473ffffffffffffffffffffffffffffffffffffffff1673ffffffffffffffffffffffffffffffffffffffff163373ffffffffffffffffffffffffffffffffffffffff1614611569576040517f82b4290000000000000000000000000000000000000000000000000000000000815260040160405180910390fd5b82600b8190555080600d8190555081600c60006101000a81548173ffffffffffffffffffffffffffffffffffffffff021916908373ffffffffffffffffffffffffffffffffffffffff160217905550505050565b60136020528160005260406000206020528060005260406000206000915091509054906101000a900460ff1681565b6115f4614732565b6000600f60003373ffffffffffffffffffffffffffffffffffffffff1673ffffffffffffffffffffffffffffffffffffffff1681526020019081526020016000205490506000811115611763576011600082815260200190815260200160002060405180610100016040529081600082015481526020016001820160009054906101000a900473ffffffffffffffffffffffffffffffffffffffff1673ffffffffffffffffffffffffffffffffffffffff1673ffffffffffffffffffffffffffffffffffffffff1681526020016002820160009054906101000a900473ffffffffffffffffffffffffffffffffffffffff1673ffffffffffffffffffffffffffffffffffffffff1673ffffffffffffffffffffffffffffffffffffffff1681526020016002820160149054906101000a900460ff1660ff1660ff168152602001600382015481526020016004820154815260200160058201548152602001600682015481525050915050611771565b61176b614732565b80925050505b90565b60606000601460008573ffffffffffffffffffffffffffffffffffffffff1673ffffffffffffffffffffffffffffffffffffffff16815260200190815260200160002060008473ffffffffffffffffffffffffffffffffffffffff1673ffffffffffffffffffffffffffffffffffffffff1681526020019081526020016000208054905067ffffffffffffffff81111561181157611810614b73565b5b60405190808252806020026020018201604052801561184a57816020015b6118376147a6565b81526020019060019003908161182f5790505b50905060005b601460008673ffffffffffffffffffffffffffffffffffffffff1673ffffffffffffffffffffffffffffffffffffffff16815260200190815260200160002060008573ffffffffffffffffffffffffffffffffffffffff1673ffffffffffffffffffffffffffffffffffffffff16815260200190815260200160002080549050811015611bbf5760156000601460008873ffffffffffffffffffffffffffffffffffffffff1673ffffffffffffffffffffffffffffffffffffffff16815260200190815260200160002060008773ffffffffffffffffffffffffffffffffffffffff1673ffffffffffffffffffffffffffffffffffffffff16815260200190815260200160002083815481106119695761196861551a565b5b9060005260206000200154815260200190815260200160002060405180610160016040529081600082015481526020016001820160009054906101000a900473ffffffffffffffffffffffffffffffffffffffff1673ffffffffffffffffffffffffffffffffffffffff1673ffffffffffffffffffffffffffffffffffffffff1681526020016002820160009054906101000a900473ffffffffffffffffffffffffffffffffffffffff1673ffffffffffffffffffffffffffffffffffffffff1673ffffffffffffffffffffffffffffffffffffffff1681526020016002820160149054906101000a900460ff1660ff1660ff16815260200160038201548152602001600482018054611a7b906152b0565b80601f0160208091040260200160405190810160405280929190818152602001828054611aa7906152b0565b8015611af45780601f10611ac957610100808354040283529160200191611af4565b820191906000526020600020905b815481529060010190602001808311611ad757829003601f168201915b505050505081526020016005820160009054906101000a900460ff1660ff1660ff16815260200160068201548152602001600782015481526020016008820160009054906101000a900473ffffffffffffffffffffffffffffffffffffffff1673ffffffffffffffffffffffffffffffffffffffff1673ffffffffffffffffffffffffffffffffffffffff168152602001600982015481525050828281518110611ba157611ba061551a565b5b60200260200101819052508080611bb790615549565b915050611850565b508091505092915050565b60006015600083815260200190815260200160002090503373ffffffffffffffffffffffffffffffffffffffff168160010160009054906101000a900473ffffffffffffffffffffffffffffffffffffffff1673ffffffffffffffffffffffffffffffffffffffff16148015611c54575060018160050160009054906101000a900460ff1660ff16145b611c5d57600080fd5b60048160050160006101000a81548160ff021916908360ff1602179055503373ffffffffffffffffffffffffffffffffffffffff168160010160009054906101000a900473ffffffffffffffffffffffffffffffffffffffff1673ffffffffffffffffffffffffffffffffffffffff167f264aa01f1aad7e9bfba5ebee0a4a69d1193beb5d509f12d1dc4464c52b5e9479848460050160009054906101000a900460ff1642604051611d11939291906152e2565b60405180910390a35050565b60126020528060005260406000206000915090505481565b60026005541415611d7b576040517f08c379a0000000000000000000000000000000000000000000000000000000008152600401611d72906154fa565b60405180910390fd5b60026005819055506000600e60003373ffffffffffffffffffffffffffffffffffffffff1673ffffffffffffffffffffffffffffffffffffffff168152602001908152602001600020549050600060116000838152602001908152602001600020905060038160020160149054906101000a900460ff1660ff1614611dff57600080fd5b60085481600301548260040154611e169190615348565b611e209190615592565b341015611e2c57600080fd5b6064600134611e3b9190615592565b611e459190615449565b600a6000828254611e569190615348565b925050819055506064606334611e6c9190615592565b611e769190615449565b8160050181905550600081600401541115611f07576008548160040154611e9d9190615592565b816005016000828254611eb0919061547a565b9250508190555060006008548260040154611ecb9190615592565b905060008260040181905550611f058260020160009054906101000a900473ffffffffffffffffffffffffffffffffffffffff168261440b565b505b60048160020160146101000a81548160ff021916908360ff1602179055504281600601819055503373ffffffffffffffffffffffffffffffffffffffff168160020160009054906101000a900473ffffffffffffffffffffffffffffffffffffffff1673ffffffffffffffffffffffffffffffffffffffff168260010160009054906101000a900473ffffffffffffffffffffffffffffffffffffffff1673ffffffffffffffffffffffffffffffffffffffff167f4ab7b1a9735aa28f2d38d47e9c125ea09812c83140e1878788159dd599c1978885426004604051611fef9392919061564d565b60405180910390a450506001600581905550565b600960009054906101000a900473ffffffffffffffffffffffffffffffffffffffff1673ffffffffffffffffffffffffffffffffffffffff163373ffffffffffffffffffffffffffffffffffffffff161461208a576040517f82b4290000000000000000000000000000000000000000000000000000000000815260040160405180910390fd5b61209633600a5461440b565b6000600a81905550565b6000600c60009054906101000a900473ffffffffffffffffffffffffffffffffffffffff16905060006120d1613faf565b9050600060116000838152602001908152602001600020905060048160020160149054906101000a900460ff1660ff161480156121e4575060011515601360008360010160009054906101000a900473ffffffffffffffffffffffffffffffffffffffff1673ffffffffffffffffffffffffffffffffffffffff1673ffffffffffffffffffffffffffffffffffffffff16815260200190815260200160002060008360020160009054906101000a900473ffffffffffffffffffffffffffffffffffffffff1673ffffffffffffffffffffffffffffffffffffffff1673ffffffffffffffffffffffffffffffffffffffff16815260200190815260200160002060009054906101000a900460ff16151514155b6121ed57600080fd5b6001601360008360010160009054906101000a900473ffffffffffffffffffffffffffffffffffffffff1673ffffffffffffffffffffffffffffffffffffffff1673ffffffffffffffffffffffffffffffffffffffff16815260200190815260200160002060008360020160009054906101000a900473ffffffffffffffffffffffffffffffffffffffff1673ffffffffffffffffffffffffffffffffffffffff1673ffffffffffffffffffffffffffffffffffffffff16815260200190815260200160002060006101000a81548160ff0219169083151502179055508273ffffffffffffffffffffffffffffffffffffffff1663671541f18260010160009054906101000a900473ffffffffffffffffffffffffffffffffffffffff16601060008560010160009054906101000a900473ffffffffffffffffffffffffffffffffffffffff1673ffffffffffffffffffffffffffffffffffffffff1673ffffffffffffffffffffffffffffffffffffffff168152602001908152602001600020548460020160009054906101000a900473ffffffffffffffffffffffffffffffffffffffff16601060008760020160009054906101000a900473ffffffffffffffffffffffffffffffffffffffff1673ffffffffffffffffffffffffffffffffffffffff1673ffffffffffffffffffffffffffffffffffffffff16815260200190815260200160002054866005015487600001546040518763ffffffff1660e01b8152600401612423969594939291906156a6565b600060405180830381600087803b15801561243d57600080fd5b505af1158015612451573d6000803e3d6000fd5b50505050505050565b60008060008373ffffffffffffffffffffffffffffffffffffffff1673ffffffffffffffffffffffffffffffffffffffff168152602001908152602001600020549050919050565b6000600f60003373ffffffffffffffffffffffffffffffffffffffff1673ffffffffffffffffffffffffffffffffffffffff168152602001908152602001600020549050600060116000838152602001908152602001600020905060018160020160149054906101000a900460ff1660ff161461251e57600080fd5b600184141561258e5760038160020160146101000a81548160ff021916908360ff16021790555082601060003373ffffffffffffffffffffffffffffffffffffffff1673ffffffffffffffffffffffffffffffffffffffff168152602001908152602001600020819055506125ff565b60008160020160146101000a81548160ff021916908360ff1602179055506125fe8160010160009054906101000a900473ffffffffffffffffffffffffffffffffffffffff168260020160009054906101000a900473ffffffffffffffffffffffffffffffffffffffff16614486565b5b3373ffffffffffffffffffffffffffffffffffffffff168160020160009054906101000a900473ffffffffffffffffffffffffffffffffffffffff1673ffffffffffffffffffffffffffffffffffffffff168260010160009054906101000a900473ffffffffffffffffffffffffffffffffffffffff1673ffffffffffffffffffffffffffffffffffffffff167f4ab7b1a9735aa28f2d38d47e9c125ea09812c83140e1878788159dd599c1978885894260026040516126c29493929190615742565b60405180910390a45050505050565b60006015600084815260200190815260200160002090506126f13361245a565b82111561272a576040517ff4d678b800000000000000000000000000000000000000000000000000000000815260040160405180910390fd5b3373ffffffffffffffffffffffffffffffffffffffff168160020160009054906101000a900473ffffffffffffffffffffffffffffffffffffffff1673ffffffffffffffffffffffffffffffffffffffff1614801561279d575060018160050160009054906101000a900460ff1660ff16145b6127a657600080fd5b6127b033836140d4565b60018160020160149054906101000a900460ff1660ff161480156127e3575080600301546001836127e19190615348565b115b1561280b5760038160050160006101000a81548160ff021916908360ff1602179055506128cf565b60028160020160149054906101000a900460ff1660ff1614801561284657506128378160030154614628565b6001836128449190615348565b115b1561286e5760038160050160006101000a81548160ff021916908360ff1602179055506128ce565b60038160020160149054906101000a900460ff1660ff1614156128ae5760038160050160006101000a81548160ff021916908360ff1602179055506128cd565b60028160050160006101000a81548160ff021916908360ff1602179055505b5b5b3373ffffffffffffffffffffffffffffffffffffffff168160010160009054906101000a900473ffffffffffffffffffffffffffffffffffffffff1673ffffffffffffffffffffffffffffffffffffffff167f264aa01f1aad7e9bfba5ebee0a4a69d1193beb5d509f12d1dc4464c52b5e9479858460050160009054906101000a900460ff1642604051612965939291906152e2565b60405180910390a3505050565b600061297c613faf565b9050600060116000838152602001908152602001600020905060048160020160149054906101000a900460ff1660ff16146129b657600080fd5b60646001346129c59190615592565b6129cf9190615449565b600a60008282546129e09190615348565b9250508190555060646063346129f69190615592565b612a009190615449565b816005016000828254612a139190615348565b925050819055503373ffffffffffffffffffffffffffffffffffffffff167f454558f821e516381f5735afdf706c1069e066bc2f6c62ac498eb191dc57b4284234604051612a6292919061489f565b60405180910390a25050565b606060048054612a7d906152b0565b80601f0160208091040260200160405190810160405280929190818152602001828054612aa9906152b0565b8015612af65780601f10612acb57610100808354040283529160200191612af6565b820191906000526020600020905b815481529060010190602001808311612ad957829003601f168201915b5050505050905090565b600080612b0b613acf565b90506000600160008373ffffffffffffffffffffffffffffffffffffffff1673ffffffffffffffffffffffffffffffffffffffff16815260200190815260200160002060008673ffffffffffffffffffffffffffffffffffffffff1673ffffffffffffffffffffffffffffffffffffffff16815260200190815260200160002054905083811015612bd1576040517f08c379a0000000000000000000000000000000000000000000000000000000008152600401612bc890615800565b60405180910390fd5b612bde8286868403613ad7565b60019250505092915050565b600080612bf5613acf565b9050612c02818585613d2e565b600191505092915050565b612c15614732565b6000600e60003373ffffffffffffffffffffffffffffffffffffffff1673ffffffffffffffffffffffffffffffffffffffff1681526020019081526020016000205490506000811115612d84576011600082815260200190815260200160002060405180610100016040529081600082015481526020016001820160009054906101000a900473ffffffffffffffffffffffffffffffffffffffff1673ffffffffffffffffffffffffffffffffffffffff1673ffffffffffffffffffffffffffffffffffffffff1681526020016002820160009054906101000a900473ffffffffffffffffffffffffffffffffffffffff1673ffffffffffffffffffffffffffffffffffffffff1673ffffffffffffffffffffffffffffffffffffffff1681526020016002820160149054906101000a900460ff1660ff1660ff168152602001600382015481526020016004820154815260200160058201548152602001600682015481525050915050612d92565b612d8c614732565b80925050505b90565b600160076000828254612da89190615348565b925050819055508473ffffffffffffffffffffffffffffffffffffffff163373ffffffffffffffffffffffffffffffffffffffff1614158015612e2a57506000600e60003373ffffffffffffffffffffffffffffffffffffffff1673ffffffffffffffffffffffffffffffffffffffff16815260200190815260200160002054145b8015612e7557506000600f60003373ffffffffffffffffffffffffffffffffffffffff1673ffffffffffffffffffffffffffffffffffffffff16815260200190815260200160002054145b8015612ec057506000600f60008773ffffffffffffffffffffffffffffffffffffffff1673ffffffffffffffffffffffffffffffffffffffff16815260200190815260200160002054145b8015612f0b57506000600e60008773ffffffffffffffffffffffffffffffffffffffff1673ffffffffffffffffffffffffffffffffffffffff16815260200190815260200160002054145b612f1457600080fd5b600754600e60003373ffffffffffffffffffffffffffffffffffffffff1673ffffffffffffffffffffffffffffffffffffffff16815260200190815260200160002081905550600754600f60008773ffffffffffffffffffffffffffffffffffffffff1673ffffffffffffffffffffffffffffffffffffffff1681526020019081526020016000208190555080601060003373ffffffffffffffffffffffffffffffffffffffff1673ffffffffffffffffffffffffffffffffffffffff1681526020019081526020016000208190555060405180610100016040528060075481526020013373ffffffffffffffffffffffffffffffffffffffff1681526020018673ffffffffffffffffffffffffffffffffffffffff168152602001600160ff1681526020018581526020018481526020016000815260200160008152506011600060075481526020019081526020016000206000820151816000015560208201518160010160006101000a81548173ffffffffffffffffffffffffffffffffffffffff021916908373ffffffffffffffffffffffffffffffffffffffff16021790555060408201518160020160006101000a81548173ffffffffffffffffffffffffffffffffffffffff021916908373ffffffffffffffffffffffffffffffffffffffff16021790555060608201518160020160146101000a81548160ff021916908360ff1602179055506080820151816003015560a0820151816004015560c0820151816005015560e082015181600601559050503373ffffffffffffffffffffffffffffffffffffffff168573ffffffffffffffffffffffffffffffffffffffff163373ffffffffffffffffffffffffffffffffffffffff167f4ab7b1a9735aa28f2d38d47e9c125ea09812c83140e1878788159dd599c19788600754864260016040516131c89493929190615820565b60405180910390a45050505050565b6000600160008473ffffffffffffffffffffffffffffffffffffffff1673ffffffffffffffffffffffffffffffffffffffff16815260200190815260200160002060008373ffffffffffffffffffffffffffffffffffffffff1673ffffffffffffffffffffffffffffffffffffffff16815260200190815260200160002054905092915050565b6000613268613faf565b9050600060116000838152602001908152602001600020905060048160020160149054906101000a900460ff1660ff1614156132a357600080fd5b60028160020160146101000a81548160ff021916908360ff1602179055503373ffffffffffffffffffffffffffffffffffffffff168160020160009054906101000a900473ffffffffffffffffffffffffffffffffffffffff1673ffffffffffffffffffffffffffffffffffffffff168260010160009054906101000a900473ffffffffffffffffffffffffffffffffffffffff1673ffffffffffffffffffffffffffffffffffffffff167f4ab7b1a9735aa28f2d38d47e9c125ea09812c83140e1878788159dd599c1978885426003604051613382939291906158a7565b60405180910390a46133dc8160010160009054906101000a900473ffffffffffffffffffffffffffffffffffffffff168260020160009054906101000a900473ffffffffffffffffffffffffffffffffffffffff16614486565b5050565b60026005541415613426576040517f08c379a000000000000000000000000000000000000000000000000000000000815260040161341d906154fa565b60405180910390fd5b6002600581905550600060156000838152602001908152602001600020905060028160050160009054906101000a900460ff1660ff161461346657600080fd5b3373ffffffffffffffffffffffffffffffffffffffff168160010160009054906101000a900473ffffffffffffffffffffffffffffffffffffffff1673ffffffffffffffffffffffffffffffffffffffff16148061351357503373ffffffffffffffffffffffffffffffffffffffff168160020160009054906101000a900473ffffffffffffffffffffffffffffffffffffffff1673ffffffffffffffffffffffffffffffffffffffff16145b61351c57600080fd5b6000613526613faf565b9050600060116000838152602001908152602001600020905060028360020160149054906101000a900460ff1660ff16141561370657600060085484600901546135709190615592565b905081600501548111156135b0576040517ff4d678b800000000000000000000000000000000000000000000000000000000815260040160405180910390fd5b808260050160008282546135c4919061547a565b92505081905550600060646063836135dc9190615592565b6135e69190615449565b905060646001836135f79190615592565b6136019190615449565b600a60008282546136129190615348565b9250508190555060058560050160006101000a81548160ff021916908360ff1602179055506136658560080160009054906101000a900473ffffffffffffffffffffffffffffffffffffffff168261440b565b3373ffffffffffffffffffffffffffffffffffffffff168560010160009054906101000a900473ffffffffffffffffffffffffffffffffffffffff1673ffffffffffffffffffffffffffffffffffffffff167f264aa01f1aad7e9bfba5ebee0a4a69d1193beb5d509f12d1dc4464c52b5e9479888860050160009054906101000a900460ff16426040516136fb939291906152e2565b60405180910390a350505b60038360020160149054906101000a900460ff1660ff161415613abb576064600182600501546137369190615592565b6137409190615449565b600a60008282546137519190615348565b92505081905550600060c86063836005015461376d9190615592565b6137779190615449565b9050600082600501819055506137b18260010160009054906101000a900473ffffffffffffffffffffffffffffffffffffffff168261440b565b6137df8260020160009054906101000a900473ffffffffffffffffffffffffffffffffffffffff168261440b565b6138318260010160009054906101000a900473ffffffffffffffffffffffffffffffffffffffff168360020160009054906101000a900473ffffffffffffffffffffffffffffffffffffffff16614486565b60011515601360008460010160009054906101000a900473ffffffffffffffffffffffffffffffffffffffff1673ffffffffffffffffffffffffffffffffffffffff1673ffffffffffffffffffffffffffffffffffffffff16815260200190815260200160002060008460020160009054906101000a900473ffffffffffffffffffffffffffffffffffffffff1673ffffffffffffffffffffffffffffffffffffffff1673ffffffffffffffffffffffffffffffffffffffff16815260200190815260200160002060009054906101000a900460ff16151514156139f0576000600c60009054906101000a900473ffffffffffffffffffffffffffffffffffffffff1690508073ffffffffffffffffffffffffffffffffffffffff1663197cf2008460010160009054906101000a900473ffffffffffffffffffffffffffffffffffffffff168560020160009054906101000a900473ffffffffffffffffffffffffffffffffffffffff1660006040518463ffffffff1660e01b81526004016139bc939291906158f1565b600060405180830381600087803b1580156139d657600080fd5b505af11580156139ea573d6000803e3d6000fd5b50505050505b3373ffffffffffffffffffffffffffffffffffffffff168260020160009054906101000a900473ffffffffffffffffffffffffffffffffffffffff1673ffffffffffffffffffffffffffffffffffffffff168360010160009054906101000a900473ffffffffffffffffffffffffffffffffffffffff1673ffffffffffffffffffffffffffffffffffffffff167f4ab7b1a9735aa28f2d38d47e9c125ea09812c83140e1878788159dd599c1978888426006604051613ab193929190615963565b60405180910390a4505b505050600160058190555050565b600b5481565b600033905090565b600073ffffffffffffffffffffffffffffffffffffffff168373ffffffffffffffffffffffffffffffffffffffff161415613b47576040517f08c379a0000000000000000000000000000000000000000000000000000000008152600401613b3e90615a1f565b60405180910390fd5b600073ffffffffffffffffffffffffffffffffffffffff168273ffffffffffffffffffffffffffffffffffffffff161415613bb7576040517f08c379a0000000000000000000000000000000000000000000000000000000008152600401613bae90615ab1565b60405180910390fd5b80600160008573ffffffffffffffffffffffffffffffffffffffff1673ffffffffffffffffffffffffffffffffffffffff16815260200190815260200160002060008473ffffffffffffffffffffffffffffffffffffffff1673ffffffffffffffffffffffffffffffffffffffff168152602001908152602001600020819055508173ffffffffffffffffffffffffffffffffffffffff168373ffffffffffffffffffffffffffffffffffffffff167f8c5be1e5ebec7d5bd14f71427d1e84f3dd0314c0f7b2291e5b200ac8c7c3b92583604051613c959190614983565b60405180910390a3505050565b6000613cae84846131d7565b90507fffffffffffffffffffffffffffffffffffffffffffffffffffffffffffffffff8114613d285781811015613d1a576040517f08c379a0000000000000000000000000000000000000000000000000000000008152600401613d1190615b1d565b60405180910390fd5b613d278484848403613ad7565b5b50505050565b600073ffffffffffffffffffffffffffffffffffffffff168373ffffffffffffffffffffffffffffffffffffffff161415613d9e576040517f08c379a0000000000000000000000000000000000000000000000000000000008152600401613d9590615baf565b60405180910390fd5b600073ffffffffffffffffffffffffffffffffffffffff168273ffffffffffffffffffffffffffffffffffffffff161415613e0e576040517f08c379a0000000000000000000000000000000000000000000000000000000008152600401613e0590615c41565b60405180910390fd5b613e198383836146a2565b60008060008573ffffffffffffffffffffffffffffffffffffffff1673ffffffffffffffffffffffffffffffffffffffff16815260200190815260200160002054905081811015613e9f576040517f08c379a0000000000000000000000000000000000000000000000000000000008152600401613e9690615cd3565b60405180910390fd5b8181036000808673ffffffffffffffffffffffffffffffffffffffff1673ffffffffffffffffffffffffffffffffffffffff16815260200190815260200160002081905550816000808573ffffffffffffffffffffffffffffffffffffffff1673ffffffffffffffffffffffffffffffffffffffff1681526020019081526020016000206000828254613f329190615348565b925050819055508273ffffffffffffffffffffffffffffffffffffffff168473ffffffffffffffffffffffffffffffffffffffff167fddf252ad1be2c89b69c2b068fc378daa952ba7f163c4a11628f55a4df523b3ef84604051613f969190614983565b60405180910390a3613fa98484846146a7565b50505050565b6000806000600e60003373ffffffffffffffffffffffffffffffffffffffff1673ffffffffffffffffffffffffffffffffffffffff16815260200190815260200160002054111561404157600e60003373ffffffffffffffffffffffffffffffffffffffff1673ffffffffffffffffffffffffffffffffffffffff1681526020019081526020016000205490506140cd565b6000600f60003373ffffffffffffffffffffffffffffffffffffffff1673ffffffffffffffffffffffffffffffffffffffff1681526020019081526020016000205411156140cc57600f60003373ffffffffffffffffffffffffffffffffffffffff1673ffffffffffffffffffffffffffffffffffffffff1681526020019081526020016000205490505b5b8091505090565b600073ffffffffffffffffffffffffffffffffffffffff168273ffffffffffffffffffffffffffffffffffffffff161415614144576040517f08c379a000000000000000000000000000000000000000000000000000000000815260040161413b90615d65565b60405180910390fd5b614150826000836146a2565b60008060008473ffffffffffffffffffffffffffffffffffffffff1673ffffffffffffffffffffffffffffffffffffffff168152602001908152602001600020549050818110156141d6576040517f08c379a00000000000000000000000000000000000000000000000000000000081526004016141cd90615df7565b60405180910390fd5b8181036000808573ffffffffffffffffffffffffffffffffffffffff1673ffffffffffffffffffffffffffffffffffffffff16815260200190815260200160002081905550816002600082825461422d919061547a565b92505081905550600073ffffffffffffffffffffffffffffffffffffffff168373ffffffffffffffffffffffffffffffffffffffff167fddf252ad1be2c89b69c2b068fc378daa952ba7f163c4a11628f55a4df523b3ef846040516142929190614983565b60405180910390a36142a6836000846146a7565b505050565b600073ffffffffffffffffffffffffffffffffffffffff168273ffffffffffffffffffffffffffffffffffffffff16141561431b576040517f08c379a000000000000000000000000000000000000000000000000000000000815260040161431290615e63565b60405180910390fd5b614327600083836146a2565b80600260008282546143399190615348565b92505081905550806000808473ffffffffffffffffffffffffffffffffffffffff1673ffffffffffffffffffffffffffffffffffffffff168152602001908152602001600020600082825461438e9190615348565b925050819055508173ffffffffffffffffffffffffffffffffffffffff16600073ffffffffffffffffffffffffffffffffffffffff167fddf252ad1be2c89b69c2b068fc378daa952ba7f163c4a11628f55a4df523b3ef836040516143f39190614983565b60405180910390a3614407600083836146a7565b5050565b60008273ffffffffffffffffffffffffffffffffffffffff168260405161443190615eb1565b60006040518083038185875af1925050503d806000811461446e576040519150601f19603f3d011682016040523d82523d6000602084013e614473565b606091505b505090508061448157600080fd5b505050565b6000600e60008473ffffffffffffffffffffffffffffffffffffffff1673ffffffffffffffffffffffffffffffffffffffff168152602001908152602001600020819055506000600f60008373ffffffffffffffffffffffffffffffffffffffff1673ffffffffffffffffffffffffffffffffffffffff16815260200190815260200160002081905550601460008373ffffffffffffffffffffffffffffffffffffffff1673ffffffffffffffffffffffffffffffffffffffff16815260200190815260200160002060008273ffffffffffffffffffffffffffffffffffffffff1673ffffffffffffffffffffffffffffffffffffffff16815260200190815260200160002060006145989190614848565b601360008373ffffffffffffffffffffffffffffffffffffffff1673ffffffffffffffffffffffffffffffffffffffff16815260200190815260200160002060008273ffffffffffffffffffffffffffffffffffffffff1673ffffffffffffffffffffffffffffffffffffffff16815260200190815260200160002060006101000a81549060ff02191690555050565b6000600382111561468f57819050600060016002846146479190615449565b6146519190615348565b90505b8181101561468957809150600281828561466e9190615449565b6146789190615348565b6146829190615449565b9050614654565b5061469d565b6000821461469c57600190505b5b919050565b505050565b505050565b8280546146b8906152b0565b90600052602060002090601f0160209004810192826146da5760008555614721565b82601f106146f357805160ff1916838001178555614721565b82800160010185558215614721579182015b82811115614720578251825591602001919060010190614705565b5b50905061472e9190614869565b5090565b60405180610100016040528060008152602001600073ffffffffffffffffffffffffffffffffffffffff168152602001600073ffffffffffffffffffffffffffffffffffffffff168152602001600060ff168152602001600081526020016000815260200160008152602001600081525090565b60405180610160016040528060008152602001600073ffffffffffffffffffffffffffffffffffffffff168152602001600073ffffffffffffffffffffffffffffffffffffffff168152602001600060ff1681526020016000815260200160608152602001600060ff1681526020016000815260200160008152602001600073ffffffffffffffffffffffffffffffffffffffff168152602001600081525090565b50805460008255906000526020600020908101906148669190614869565b50565b5b8082111561488257600081600090555060010161486a565b5090565b6000819050919050565b61489981614886565b82525050565b60006040820190506148b46000830185614890565b6148c16020830184614890565b9392505050565b600081519050919050565b600082825260208201905092915050565b60005b838110156149025780820151818401526020810190506148e7565b83811115614911576000848401525b50505050565b6000601f19601f8301169050919050565b6000614933826148c8565b61493d81856148d3565b935061494d8185602086016148e4565b61495681614917565b840191505092915050565b6000602082019050818103600083015261497b8184614928565b905092915050565b60006020820190506149986000830184614890565b92915050565b6000604051905090565b600080fd5b600080fd5b600073ffffffffffffffffffffffffffffffffffffffff82169050919050565b60006149dd826149b2565b9050919050565b6149ed816149d2565b81146149f857600080fd5b50565b600081359050614a0a816149e4565b92915050565b614a1981614886565b8114614a2457600080fd5b50565b600081359050614a3681614a10565b92915050565b60008060408385031215614a5357614a526149a8565b5b6000614a61858286016149fb565b9250506020614a7285828601614a27565b9150509250929050565b60008115159050919050565b614a9181614a7c565b82525050565b6000602082019050614aac6000830184614a88565b92915050565b600060208284031215614ac857614ac76149a8565b5b6000614ad684828501614a27565b91505092915050565b600080600060608486031215614af857614af76149a8565b5b6000614b06868287016149fb565b9350506020614b17868287016149fb565b9250506040614b2886828701614a27565b9150509250925092565b600060ff82169050919050565b614b4881614b32565b82525050565b6000602082019050614b636000830184614b3f565b92915050565b600080fd5b600080fd5b7f4e487b7100000000000000000000000000000000000000000000000000000000600052604160045260246000fd5b614bab82614917565b810181811067ffffffffffffffff82111715614bca57614bc9614b73565b5b80604052505050565b6000614bdd61499e565b9050614be98282614ba2565b919050565b600067ffffffffffffffff821115614c0957614c08614b73565b5b614c1282614917565b9050602081019050919050565b82818337600083830152505050565b6000614c41614c3c84614bee565b614bd3565b905082815260208101848484011115614c5d57614c5c614b6e565b5b614c68848285614c1f565b509392505050565b600082601f830112614c8557614c84614b69565b5b8135614c95848260208601614c2e565b91505092915050565b614ca781614b32565b8114614cb257600080fd5b50565b600081359050614cc481614c9e565b92915050565b60008060008060008060c08789031215614ce757614ce66149a8565b5b600087013567ffffffffffffffff811115614d0557614d046149ad565b5b614d1189828a01614c70565b9650506020614d2289828a01614cb5565b9550506040614d3389828a01614a27565b9450506060614d4489828a01614a27565b9350506080614d5589828a016149fb565b92505060a0614d6689828a01614a27565b9150509295509295509295565b600080600060608486031215614d8c57614d8b6149a8565b5b6000614d9a86828701614a27565b9350506020614dab868287016149fb565b9250506040614dbc86828701614a27565b9150509250925092565b60008060408385031215614ddd57614ddc6149a8565b5b6000614deb858286016149fb565b9250506020614dfc858286016149fb565b9150509250929050565b614e0f81614886565b82525050565b614e1e816149d2565b82525050565b614e2d81614b32565b82525050565b61010082016000820151614e4a6000850182614e06565b506020820151614e5d6020850182614e15565b506040820151614e706040850182614e15565b506060820151614e836060850182614e24565b506080820151614e966080850182614e06565b5060a0820151614ea960a0850182614e06565b5060c0820151614ebc60c0850182614e06565b5060e0820151614ecf60e0850182614e06565b50505050565b600061010082019050614eeb6000830184614e33565b92915050565b600081519050919050565b600082825260208201905092915050565b6000819050602082019050919050565b600082825260208201905092915050565b6000614f39826148c8565b614f438185614f1d565b9350614f538185602086016148e4565b614f5c81614917565b840191505092915050565b600061016083016000830151614f806000860182614e06565b506020830151614f936020860182614e15565b506040830151614fa66040860182614e15565b506060830151614fb96060860182614e24565b506080830151614fcc6080860182614e06565b5060a083015184820360a0860152614fe48282614f2e565b91505060c0830151614ff960c0860182614e24565b5060e083015161500c60e0860182614e06565b50610100830151615021610100860182614e06565b50610120830151615036610120860182614e15565b5061014083015161504b610140860182614e06565b508091505092915050565b60006150628383614f67565b905092915050565b6000602082019050919050565b600061508282614ef1565b61508c8185614efc565b93508360208202850161509e85614f0d565b8060005b858110156150da57848403895281516150bb8582615056565b94506150c68361506a565b925060208a019950506001810190506150a2565b50829750879550505050505092915050565b600060208201905081810360008301526151068184615077565b905092915050565b600060208284031215615124576151236149a8565b5b6000615132848285016149fb565b91505092915050565b600080600060608486031215615154576151536149a8565b5b600084013567ffffffffffffffff811115615172576151716149ad565b5b61517e86828701614c70565b935050602061518f86828701614a27565b92505060406151a086828701614a27565b9150509250925092565b600080604083850312156151c1576151c06149a8565b5b60006151cf85828601614a27565b92505060206151e085828601614a27565b9150509250929050565b600080600080600060a08688031215615206576152056149a8565b5b6000615214888289016149fb565b955050602061522588828901614a27565b945050604061523688828901614a27565b935050606086013567ffffffffffffffff811115615257576152566149ad565b5b61526388828901614c70565b925050608061527488828901614a27565b9150509295509295909350565b7f4e487b7100000000000000000000000000000000000000000000000000000000600052602260045260246000fd5b600060028204905060018216806152c857607f821691505b602082108114156152dc576152db615281565b5b50919050565b60006060820190506152f76000830186614890565b6153046020830185614b3f565b6153116040830184614890565b949350505050565b7f4e487b7100000000000000000000000000000000000000000000000000000000600052601160045260246000fd5b600061535382614886565b915061535e83614886565b9250827fffffffffffffffffffffffffffffffffffffffffffffffffffffffffffffffff0382111561539357615392615319565b5b828201905092915050565b6000819050919050565b6000819050919050565b60006153cd6153c86153c38461539e565b6153a8565b614b32565b9050919050565b6153dd816153b2565b82525050565b60006060820190506153f86000830186614890565b61540560208301856153d4565b6154126040830184614890565b949350505050565b7f4e487b7100000000000000000000000000000000000000000000000000000000600052601260045260246000fd5b600061545482614886565b915061545f83614886565b92508261546f5761546e61541a565b5b828204905092915050565b600061548582614886565b915061549083614886565b9250828210156154a3576154a2615319565b5b828203905092915050565b7f5265656e7472616e637947756172643a207265656e7472616e742063616c6c00600082015250565b60006154e4601f836148d3565b91506154ef826154ae565b602082019050919050565b60006020820190508181036000830152615513816154d7565b9050919050565b7f4e487b7100000000000000000000000000000000000000000000000000000000600052603260045260246000fd5b600061555482614886565b91507fffffffffffffffffffffffffffffffffffffffffffffffffffffffffffffffff82141561558757615586615319565b5b600182019050919050565b600061559d82614886565b91506155a883614886565b9250817fffffffffffffffffffffffffffffffffffffffffffffffffffffffffffffffff04831182151516156155e1576155e0615319565b5b828202905092915050565b50565b60006155fc6000836148d3565b9150615607826155ec565b600082019050919050565b6000819050919050565b600061563761563261562d84615612565b6153a8565b614b32565b9050919050565b6156478161561c565b82525050565b60006080820190506156626000830186614890565b8181036020830152615673816155ef565b90506156826040830185614890565b61568f606083018461563e565b949350505050565b6156a0816149d2565b82525050565b600060c0820190506156bb6000830189615697565b6156c86020830188614890565b6156d56040830187615697565b6156e26060830186614890565b6156ef6080830185614890565b6156fc60a0830184614890565b979650505050505050565b6000819050919050565b600061572c61572761572284615707565b6153a8565b614b32565b9050919050565b61573c81615711565b82525050565b60006080820190506157576000830187614890565b81810360208301526157698186614928565b90506157786040830185614890565b6157856060830184615733565b95945050505050565b7f45524332303a2064656372656173656420616c6c6f77616e63652062656c6f7760008201527f207a65726f000000000000000000000000000000000000000000000000000000602082015250565b60006157ea6025836148d3565b91506157f58261578e565b604082019050919050565b60006020820190508181036000830152615819816157dd565b9050919050565b60006080820190506158356000830187614890565b81810360208301526158478186614928565b90506158566040830185614890565b61586360608301846153d4565b95945050505050565b6000819050919050565b600061589161588c6158878461586c565b6153a8565b614b32565b9050919050565b6158a181615876565b82525050565b60006080820190506158bc6000830186614890565b81810360208301526158cd816155ef565b90506158dc6040830185614890565b6158e96060830184615898565b949350505050565b60006060820190506159066000830186615697565b6159136020830185615697565b6159206040830184614a88565b949350505050565b6000819050919050565b600061594d61594861594384615928565b6153a8565b614b32565b9050919050565b61595d81615932565b82525050565b60006080820190506159786000830186614890565b8181036020830152615989816155ef565b90506159986040830185614890565b6159a56060830184615954565b949350505050565b7f45524332303a20617070726f76652066726f6d20746865207a65726f2061646460008201527f7265737300000000000000000000000000000000000000000000000000000000602082015250565b6000615a096024836148d3565b9150615a14826159ad565b604082019050919050565b60006020820190508181036000830152615a38816159fc565b9050919050565b7f45524332303a20617070726f766520746f20746865207a65726f20616464726560008201527f7373000000000000000000000000000000000000000000000000000000000000602082015250565b6000615a9b6022836148d3565b9150615aa682615a3f565b604082019050919050565b60006020820190508181036000830152615aca81615a8e565b9050919050565b7f45524332303a20696e73756666696369656e7420616c6c6f77616e6365000000600082015250565b6000615b07601d836148d3565b9150615b1282615ad1565b602082019050919050565b60006020820190508181036000830152615b3681615afa565b9050919050565b7f45524332303a207472616e736665722066726f6d20746865207a65726f20616460008201527f6472657373000000000000000000000000000000000000000000000000000000602082015250565b6000615b996025836148d3565b9150615ba482615b3d565b604082019050919050565b60006020820190508181036000830152615bc881615b8c565b9050919050565b7f45524332303a207472616e7366657220746f20746865207a65726f206164647260008201527f6573730000000000000000000000000000000000000000000000000000000000602082015250565b6000615c2b6023836148d3565b9150615c3682615bcf565b604082019050919050565b60006020820190508181036000830152615c5a81615c1e565b9050919050565b7f45524332303a207472616e7366657220616d6f756e742065786365656473206260008201527f616c616e63650000000000000000000000000000000000000000000000000000602082015250565b6000615cbd6026836148d3565b9150615cc882615c61565b604082019050919050565b60006020820190508181036000830152615cec81615cb0565b9050919050565b7f45524332303a206275726e2066726f6d20746865207a65726f2061646472657360008201527f7300000000000000000000000000000000000000000000000000000000000000602082015250565b6000615d4f6021836148d3565b9150615d5a82615cf3565b604082019050919050565b60006020820190508181036000830152615d7e81615d42565b9050919050565b7f45524332303a206275726e20616d6f756e7420657863656564732062616c616e60008201527f6365000000000000000000000000000000000000000000000000000000000000602082015250565b6000615de16022836148d3565b9150615dec82615d85565b604082019050919050565b60006020820190508181036000830152615e1081615dd4565b9050919050565b7f45524332303a206d696e7420746f20746865207a65726f206164647265737300600082015250565b6000615e4d601f836148d3565b9150615e5882615e17565b602082019050919050565b60006020820190508181036000830152615e7c81615e40565b9050919050565b600081905092915050565b6000615e9b600083615e83565b9150615ea6826155ec565b600082019050919050565b6000615ebc82615e8e565b915081905091905056fea2646970667358221220f56420c2506f73228d486a6cfac98dfc9ec68308488f050b55359dd2d5a3ebcf64736f6c634300080a0033",
  "linkReferences": {},
  "deployedLinkReferences": {}
}